{"contracts/SharpWallet.sol":{"SharpWallet":{"abi":[{"inputs":[{"internalType":"address[]","name":"_owners","type":"address[]"},{"internalType":"uint256","name":"_requiredApprovals","type":"uint256"}],"stateMutability":"nonpayable","type":"constructor"},{"inputs":[],"name":"NotOwner","type":"error"},{"inputs":[],"name":"TxAlreadyApproved","type":"error"},{"inputs":[],"name":"TxAlreadyExecuted","type":"error"},{"inputs":[],"name":"TxDeleted","type":"error"},{"inputs":[],"name":"TxDoesNotExist","type":"error"},{"anonymous":false,"inputs":[{"indexed":true,"internalType":"uint256","name":"txId","type":"uint256"},{"indexed":true,"internalType":"address","name":"owner","type":"address"}],"name":"ApprovalRevoked","type":"event"},{"anonymous":false,"inputs":[{"indexed":true,"internalType":"address","name":"sender","type":"address"},{"indexed":false,"internalType":"uint256","name":"amount","type":"uint256"}],"name":"Deposit","type":"event"},{"anonymous":false,"inputs":[{"indexed":true,"internalType":"address","name":"newOwner","type":"address"}],"name":"OwnerAdded","type":"event"},{"anonymous":false,"inputs":[{"indexed":true,"internalType":"address","name":"oldOwner","type":"address"}],"name":"OwnerRemoved","type":"event"},{"anonymous":false,"inputs":[{"indexed":false,"internalType":"uint256","name":"newRequirement","type":"uint256"}],"name":"RequirementChanged","type":"event"},{"anonymous":false,"inputs":[{"indexed":true,"internalType":"uint256","name":"txId","type":"uint256"},{"indexed":true,"internalType":"address","name":"owner","type":"address"}],"name":"TransactionApproved","type":"event"},{"anonymous":false,"inputs":[{"indexed":true,"internalType":"uint256","name":"txId","type":"uint256"},{"indexed":true,"internalType":"address","name":"deleter","type":"address"}],"name":"TransactionDeleted","type":"event"},{"anonymous":false,"inputs":[{"indexed":true,"internalType":"uint256","name":"txId","type":"uint256"},{"indexed":true,"internalType":"address","name":"executor","type":"address"}],"name":"TransactionExecuted","type":"event"},{"anonymous":false,"inputs":[{"indexed":true,"internalType":"uint256","name":"txId","type":"uint256"},{"indexed":true,"internalType":"address","name":"proposer","type":"address"},{"indexed":false,"internalType":"address","name":"to","type":"address"},{"indexed":false,"internalType":"uint256","name":"value","type":"uint256"},{"indexed":false,"internalType":"bytes","name":"data","type":"bytes"}],"name":"TransactionSubmitted","type":"event"},{"stateMutability":"payable","type":"fallback"},{"inputs":[{"internalType":"uint256","name":"txId","type":"uint256"}],"name":"approvalCount","outputs":[{"internalType":"uint256","name":"","type":"uint256"}],"stateMutability":"view","type":"function"},{"inputs":[{"internalType":"uint256","name":"txId","type":"uint256"}],"name":"approveTransaction","outputs":[],"stateMutability":"nonpayable","type":"function"},{"inputs":[{"internalType":"uint256","name":"","type":"uint256"},{"internalType":"address","name":"","type":"address"}],"name":"approved","outputs":[{"internalType":"bool","name":"","type":"bool"}],"stateMutability":"view","type":"function"},{"inputs":[{"internalType":"uint256","name":"txId","type":"uint256"}],"name":"deleteTransaction","outputs":[],"stateMutability":"nonpayable","type":"function"},{"inputs":[{"internalType":"uint256","name":"txId","type":"uint256"}],"name":"executeTransaction","outputs":[],"stateMutability":"nonpayable","type":"function"},{"inputs":[{"internalType":"uint256","name":"txId","type":"uint256"}],"name":"getApprovers","outputs":[{"internalType":"address[]","name":"","type":"address[]"}],"stateMutability":"view","type":"function"},{"inputs":[],"name":"getBalance","outputs":[{"internalType":"uint256","name":"","type":"uint256"}],"stateMutability":"view","type":"function"},{"inputs":[],"name":"getOwners","outputs":[{"internalType":"address[]","name":"","type":"address[]"}],"stateMutability":"view","type":"function"},{"inputs":[{"internalType":"uint256","name":"txId","type":"uint256"}],"name":"getTransaction","outputs":[{"internalType":"address","name":"to","type":"address"},{"internalType":"uint256","name":"value","type":"uint256"},{"internalType":"bool","name":"executed","type":"bool"},{"internalType":"uint256","name":"numConfirmations","type":"uint256"},{"internalType":"bytes","name":"data","type":"bytes"}],"stateMutability":"view","type":"function"},{"inputs":[],"name":"getTransactionCount","outputs":[{"internalType":"uint256","name":"","type":"uint256"}],"stateMutability":"view","type":"function"},{"inputs":[{"internalType":"uint256","name":"txId","type":"uint256"},{"internalType":"address","name":"owner","type":"address"}],"name":"isApproved","outputs":[{"internalType":"bool","name":"","type":"bool"}],"stateMutability":"view","type":"function"},{"inputs":[{"internalType":"address","name":"","type":"address"}],"name":"isOwner","outputs":[{"internalType":"bool","name":"","type":"bool"}],"stateMutability":"view","type":"function"},{"inputs":[{"internalType":"address","name":"to","type":"address"},{"internalType":"uint256","name":"value","type":"uint256"},{"internalType":"bytes","name":"data","type":"bytes"}],"name":"newTransaction","outputs":[{"internalType":"uint256","name":"txId","type":"uint256"}],"stateMutability":"nonpayable","type":"function"},{"inputs":[{"internalType":"uint256","name":"","type":"uint256"}],"name":"owners","outputs":[{"internalType":"address","name":"","type":"address"}],"stateMutability":"view","type":"function"},{"inputs":[],"name":"requiredApprovals","outputs":[{"internalType":"uint256","name":"","type":"uint256"}],"stateMutability":"view","type":"function"},{"inputs":[],"name":"requiredConfirmations","outputs":[{"internalType":"uint256","name":"","type":"uint256"}],"stateMutability":"view","type":"function"},{"inputs":[{"internalType":"uint256","name":"txId","type":"uint256"}],"name":"revokeApproval","outputs":[],"stateMutability":"nonpayable","type":"function"},{"inputs":[{"internalType":"uint256","name":"","type":"uint256"}],"name":"transactions","outputs":[{"internalType":"address","name":"to","type":"address"},{"internalType":"uint256","name":"value","type":"uint256"},{"internalType":"bool","name":"executed","type":"bool"},{"internalType":"uint256","name":"numConfirmations","type":"uint256"},{"internalType":"bytes","name":"data","type":"bytes"},{"internalType":"bool","name":"deleted","type":"bool"}],"stateMutability":"view","type":"function"},{"stateMutability":"payable","type":"receive"}],"evm":{"bytecode":{"linkReferences":{},"object":"60806040523480156200001157600080fd5b5060405162001b5d38038062001b5d833981016040819052620000349162000280565b60008251116200007d5760405162461bcd60e51b815260206004820152600f60248201526e13dddb995c9cc81c995c5d5a5c9959608a1b60448201526064015b60405180910390fd5b6000811180156200008f575081518111155b620000dd5760405162461bcd60e51b815260206004820152601c60248201527f496e76616c696420617070726f76616c20726571756972656d656e7400000000604482015260640162000074565b60005b8251811015620002425760008382815181106200010157620001016200035a565b6020026020010151905060006001600160a01b0316816001600160a01b0316036200016f5760405162461bcd60e51b815260206004820152601560248201527f496e76616c6964206f776e657220616464726573730000000000000000000000604482015260640162000074565b6001600160a01b03811660009081526001602052604090205460ff1615620001cd5760405162461bcd60e51b815260206004820152601060248201526f4f776e6572206e6f7420756e6971756560801b604482015260640162000074565b6001600160a01b031660008181526001602081905260408220805460ff191682179055815490810182559080527f290decd9548b62a8d60345a988386fc84ba6bc95484008f6362f93160ef3e5630180546001600160a01b031916909117905580620002398162000370565b915050620000e0565b506002555062000398565b634e487b7160e01b600052604160045260246000fd5b80516001600160a01b03811681146200027b57600080fd5b919050565b600080604083850312156200029457600080fd5b82516001600160401b0380821115620002ac57600080fd5b818501915085601f830112620002c157600080fd5b8151602082821115620002d857620002d86200024d565b8160051b604051601f19603f830116810181811086821117156200030057620003006200024d565b6040529283528183019350848101820192898411156200031f57600080fd5b948201945b838610156200034857620003388662000263565b8552948201949382019362000324565b97909101519698969750505050505050565b634e487b7160e01b600052603260045260246000fd5b6000600182016200039157634e487b7160e01b600052601160045260246000fd5b5060010190565b6117b580620003a86000396000f3fe60806040526004361061010c5760003560e01c806356c31637116100955780639ace38c2116100645780639ace38c214610367578063a0e67e2b14610399578063b1e130fc146103bb578063c65df794146103db578063ee22610b146103fb57610149565b806356c31637146102e15780638253951a1461030157806382e717f71461033c57806399c1aadc1461035257610149565b8063242232d1116100dc578063242232d11461021b5780632e7700f01461023b5780632f54bf6e1461025057806333ea3dc81461029057806340ad01ea146102c157610149565b8062e9c0061461017b578063025e7c271461019d578063117c7a56146101da57806312065fe01461020857610149565b366101495760405134815233907fe1fffcc4923d04b559f4d29a8bfc6cda04eb5b0d3c460751c2402c5c5cc9109c906020015b60405180910390a2005b60405134815233907fe1fffcc4923d04b559f4d29a8bfc6cda04eb5b0d3c460751c2402c5c5cc9109c9060200161013f565b34801561018757600080fd5b5061019b6101963660046112d6565b61041b565b005b3480156101a957600080fd5b506101bd6101b83660046112d6565b610650565b6040516001600160a01b0390911681526020015b60405180910390f35b3480156101e657600080fd5b506101fa6101f536600461130b565b61067a565b6040519081526020016101d1565b34801561021457600080fd5b50476101fa565b34801561022757600080fd5b5061019b6102363660046112d6565b6108ea565b34801561024757600080fd5b506003546101fa565b34801561025c57600080fd5b5061028061026b366004611392565b60016020526000908152604090205460ff1681565b60405190151581526020016101d1565b34801561029c57600080fd5b506102b06102ab3660046112d6565b610aa1565b6040516101d19594939291906113fa565b3480156102cd57600080fd5b506101fa6102dc3660046112d6565b610ba6565b3480156102ed57600080fd5b506102806102fc36600461143a565b610bd4565b34801561030d57600080fd5b5061028061031c36600461143a565b600460209081526000928352604080842090915290825290205460ff1681565b34801561034857600080fd5b506101fa60025481565b34801561035e57600080fd5b506002546101fa565b34801561037357600080fd5b506103876103823660046112d6565b610c01565b6040516101d196959493929190611466565b3480156103a557600080fd5b506103ae610ce5565b6040516101d191906114b0565b3480156103c757600080fd5b5061019b6103d63660046112d6565b610d47565b3480156103e757600080fd5b506103ae6103f63660046112d6565b610f27565b34801561040757600080fd5b5061019b6104163660046112d6565b61107f565b3360009081526001602052604090205460ff1661044b576040516330cd747160e01b815260040160405180910390fd5b6003548190811061046f57604051639e1b596f60e01b815260040160405180910390fd5b8160038181548110610483576104836114fd565b600091825260209091206002600690920201015460ff16156104b857604051632ea945cf60e01b815260040160405180910390fd5b82600381815481106104cc576104cc6114fd565b600091825260209091206005600690920201015460ff161561050157604051630230e6cf60e21b815260040160405180910390fd5b600060038581548110610516576105166114fd565b600091825260208083208884526004825260408085203386529092529220546006909102909101915060ff166105935760405162461bcd60e51b815260206004820152601760248201527f596f75206469646e27742070726f706f7365207468697300000000000000000060448201526064015b60405180910390fd5b80600301546001146105e75760405162461bcd60e51b815260206004820152601760248201527f4f746865727320616c726561647920617070726f766564000000000000000000604482015260640161058a565b60058101805460ff199081166001179091556000868152600460209081526040808320338085529252808320805490941690935560038401829055915187917f0db4a2e81b174686d0ed44896f2d8fcfe9eb7631601e632fbe6aa79b267bc15091a35050505050565b6000818154811061066057600080fd5b6000918252602090912001546001600160a01b0316905081565b3360009081526001602052604081205460ff166106aa576040516330cd747160e01b815260040160405180910390fd5b6001600160a01b0385166106f95760405162461bcd60e51b8152602060048201526016602482015275496e76616c696420746172676574206164647265737360501b604482015260640161058a565b6110008211156107405760405162461bcd60e51b815260206004820152601260248201527143616c6c6461746120746f6f206c6172676560701b604482015260640161058a565b600380549050905060036040518060c00160405280876001600160a01b031681526020018681526020016000151581526020016001815260200185858080601f0160208091040260200160405190810160405280939291908181526020018383808284376000920182905250938552505050602091820181905283546001808201865594825290829020835160069092020180546001600160a01b0319166001600160a01b039092169190911781559082015192810192909255604081015160028301805460ff1916911515919091179055606081015160038301556080810151909190600482019061083390826115ac565b5060a091909101516005909101805491151560ff1992831617905560008281526004602090815260408083203380855292528083208054909416600117909355915183917f924813d717e221b5f46dcd8a56da1679e4612584ab3237d55e5faabf6f6a307991a3336001600160a01b0316817f2ecf8c4571be1f8a0b1e6feaa711128f3f8038e97869aa59d0f595e21f50eaa0878787876040516108da949392919061166c565b60405180910390a3949350505050565b3360009081526001602052604090205460ff1661091a576040516330cd747160e01b815260040160405180910390fd5b6003548190811061093e57604051639e1b596f60e01b815260040160405180910390fd5b8160038181548110610952576109526114fd565b600091825260209091206002600690920201015460ff161561098757604051632ea945cf60e01b815260040160405180910390fd5b826003818154811061099b5761099b6114fd565b600091825260209091206005600690920201015460ff16156109d057604051630230e6cf60e21b815260040160405180910390fd5b6000848152600460209081526040808320338452909152902054849060ff1615610a0d57604051635db7ec0d60e01b815260040160405180910390fd5b60008581526004602090815260408083203384529091529020805460ff191660019081179091556003805487908110610a4857610a486114fd565b90600052602060002090600602016003016000828254610a6891906116ca565b9091555050604051339086907f924813d717e221b5f46dcd8a56da1679e4612584ab3237d55e5faabf6f6a307990600090a35050505050565b6000806000806060600060038781548110610abe57610abe6114fd565b906000526020600020906006020190508060000160009054906101000a90046001600160a01b031681600101548260020160009054906101000a900460ff16836003015484600401808054610b1290611529565b80601f0160208091040260200160405190810160405280929190818152602001828054610b3e90611529565b8015610b8b5780601f10610b6057610100808354040283529160200191610b8b565b820191906000526020600020905b815481529060010190602001808311610b6e57829003601f168201915b50505050509050955095509550955095505091939590929450565b600060038281548110610bbb57610bbb6114fd565b9060005260206000209060060201600301549050919050565b60008281526004602090815260408083206001600160a01b038516845290915290205460ff165b92915050565b60038181548110610c1157600080fd5b6000918252602090912060069091020180546001820154600283015460038401546004850180546001600160a01b039095169650929460ff90921693909290610c5990611529565b80601f0160208091040260200160405190810160405280929190818152602001828054610c8590611529565b8015610cd25780601f10610ca757610100808354040283529160200191610cd2565b820191906000526020600020905b815481529060010190602001808311610cb557829003601f168201915b5050506005909301549192505060ff1686565b60606000805480602002602001604051908101604052809291908181526020018280548015610d3d57602002820191906000526020600020905b81546001600160a01b03168152600190910190602001808311610d1f575b5050505050905090565b3360009081526001602052604090205460ff16610d77576040516330cd747160e01b815260040160405180910390fd5b60035481908110610d9b57604051639e1b596f60e01b815260040160405180910390fd5b8160038181548110610daf57610daf6114fd565b600091825260209091206002600690920201015460ff1615610de457604051632ea945cf60e01b815260040160405180910390fd5b8260038181548110610df857610df86114fd565b600091825260209091206005600690920201015460ff1615610e2d57604051630230e6cf60e21b815260040160405180910390fd5b600084815260046020908152604080832033845290915290205460ff16610e965760405162461bcd60e51b815260206004820152601860248201527f5472616e73616374696f6e206e6f7420617070726f7665640000000000000000604482015260640161058a565b60008481526004602090815260408083203384529091529020805460ff19169055600380546001919086908110610ecf57610ecf6114fd565b90600052602060002090600602016003016000828254610eef91906116dd565b9091555050604051339085907f430c786ad6c97d1739e88415e23257a88a0a989b6bdc4e9e415b72bb53d869a890600090a350505050565b60035460609082908110610f4e57604051639e1b596f60e01b815260040160405180910390fd5b6000805467ffffffffffffffff811115610f6a57610f6a611513565b604051908082528060200260200182016040528015610f93578160200160208202803683370190505b5090506000805b60005481101561107357600460008781526020019081526020016000206000808381548110610fcb57610fcb6114fd565b60009182526020808320909101546001600160a01b0316835282019290925260400190205460ff1615611061576000818154811061100b5761100b6114fd565b9060005260206000200160009054906101000a90046001600160a01b031683838151811061103b5761103b6114fd565b6001600160a01b03909216602092830291909101909101528161105d816116f0565b9250505b8061106b816116f0565b915050610f9a565b50815291505b50919050565b3360009081526001602052604090205460ff166110af576040516330cd747160e01b815260040160405180910390fd5b600354819081106110d357604051639e1b596f60e01b815260040160405180910390fd5b81600381815481106110e7576110e76114fd565b600091825260209091206002600690920201015460ff161561111c57604051632ea945cf60e01b815260040160405180910390fd5b8260038181548110611130576111306114fd565b600091825260209091206005600690920201015460ff161561116557604051630230e6cf60e21b815260040160405180910390fd5b60006003858154811061117a5761117a6114fd565b90600052602060002090600602019050600254816003015410156111d75760405162461bcd60e51b81526020600482015260146024820152734e6f7420656e6f75676820617070726f76616c7360601b604482015260640161058a565b60028101805460ff191660019081179091558154908201546040516000926001600160a01b0316919061120e906004860190611709565b60006040518083038185875af1925050503d806000811461124b576040519150601f19603f3d011682016040523d82523d6000602084013e611250565b606091505b50509050806112a15760405162461bcd60e51b815260206004820152601c60248201527f5472616e73616374696f6e20657865637574696f6e206661696c656400000000604482015260640161058a565b604051339087907fefc13bdcf58f184ea7cae26b499fb33b539e01d0197cea456f3ada289b8cf19b90600090a3505050505050565b6000602082840312156112e857600080fd5b5035919050565b80356001600160a01b038116811461130657600080fd5b919050565b6000806000806060858703121561132157600080fd5b61132a856112ef565b935060208501359250604085013567ffffffffffffffff8082111561134e57600080fd5b818701915087601f83011261136257600080fd5b81358181111561137157600080fd5b88602082850101111561138357600080fd5b95989497505060200194505050565b6000602082840312156113a457600080fd5b6113ad826112ef565b9392505050565b6000815180845260005b818110156113da576020818501810151868301820152016113be565b506000602082860101526020601f19601f83011685010191505092915050565b60018060a01b0386168152846020820152831515604082015282606082015260a06080820152600061142f60a08301846113b4565b979650505050505050565b6000806040838503121561144d57600080fd5b8235915061145d602084016112ef565b90509250929050565b60018060a01b0387168152856020820152841515604082015283606082015260c06080820152600061149b60c08301856113b4565b905082151560a0830152979650505050505050565b6020808252825182820181905260009190848201906040850190845b818110156114f15783516001600160a01b0316835292840192918401916001016114cc565b50909695505050505050565b634e487b7160e01b600052603260045260246000fd5b634e487b7160e01b600052604160045260246000fd5b600181811c9082168061153d57607f821691505b60208210810361107957634e487b7160e01b600052602260045260246000fd5b601f8211156115a757600081815260208120601f850160051c810160208610156115845750805b601f850160051c820191505b818110156115a357828155600101611590565b5050505b505050565b815167ffffffffffffffff8111156115c6576115c6611513565b6115da816115d48454611529565b8461155d565b602080601f83116001811461160f57600084156115f75750858301515b600019600386901b1c1916600185901b1785556115a3565b600085815260208120601f198616915b8281101561163e5788860151825594840194600190910190840161161f565b508582101561165c5787850151600019600388901b60f8161c191681555b5050505050600190811b01905550565b6001600160a01b0385168152602081018490526060604082018190528101829052818360808301376000818301608090810191909152601f909201601f191601019392505050565b634e487b7160e01b600052601160045260246000fd5b80820180821115610bfb57610bfb6116b4565b81810381811115610bfb57610bfb6116b4565b600060018201611702576117026116b4565b5060010190565b600080835461171781611529565b6001828116801561172f576001811461174457611773565b60ff1984168752821515830287019450611773565b8760005260208060002060005b8581101561176a5781548a820152908401908201611751565b50505082870194505b5092969550505050505056fea26469706673582212208d0058a6649e2c48e40e96bffca044dbe7c7c66f19755ab868abc0d937e0fdaf64736f6c63430008130033","opcodes":"PUSH1 0x80 PUSH1 0x40 MSTORE CALLVALUE DUP1 ISZERO PUSH3 0x11 JUMPI PUSH1 0x0 DUP1 REVERT JUMPDEST POP PUSH1 0x40 MLOAD PUSH3 0x1B5D CODESIZE SUB DUP1 PUSH3 0x1B5D DUP4 CODECOPY DUP2 ADD PUSH1 0x40 DUP2 SWAP1 MSTORE PUSH3 0x34 SWAP2 PUSH3 0x280 JUMP JUMPDEST PUSH1 0x0 DUP3 MLOAD GT PUSH3 0x7D JUMPI PUSH1 0x40 MLOAD PUSH3 0x461BCD PUSH1 0xE5 SHL DUP2 MSTORE PUSH1 0x20 PUSH1 0x4 DUP3 ADD MSTORE PUSH1 0xF PUSH1 0x24 DUP3 ADD MSTORE PUSH15 0x13DDDB995C9CC81C995C5D5A5C9959 PUSH1 0x8A SHL PUSH1 0x44 DUP3 ADD MSTORE PUSH1 0x64 ADD JUMPDEST PUSH1 0x40 MLOAD DUP1 SWAP2 SUB SWAP1 REVERT JUMPDEST PUSH1 0x0 DUP2 GT DUP1 ISZERO PUSH3 0x8F JUMPI POP DUP2 MLOAD DUP2 GT ISZERO JUMPDEST PUSH3 0xDD JUMPI PUSH1 0x40 MLOAD PUSH3 0x461BCD PUSH1 0xE5 SHL DUP2 MSTORE PUSH1 0x20 PUSH1 0x4 DUP3 ADD MSTORE PUSH1 0x1C PUSH1 0x24 DUP3 ADD MSTORE PUSH32 0x496E76616C696420617070726F76616C20726571756972656D656E7400000000 PUSH1 0x44 DUP3 ADD MSTORE PUSH1 0x64 ADD PUSH3 0x74 JUMP JUMPDEST PUSH1 0x0 JUMPDEST DUP3 MLOAD DUP2 LT ISZERO PUSH3 0x242 JUMPI PUSH1 0x0 DUP4 DUP3 DUP2 MLOAD DUP2 LT PUSH3 0x101 JUMPI PUSH3 0x101 PUSH3 0x35A JUMP JUMPDEST PUSH1 0x20 MUL PUSH1 0x20 ADD ADD MLOAD SWAP1 POP PUSH1 0x0 PUSH1 0x1 PUSH1 0x1 PUSH1 0xA0 SHL SUB AND DUP2 PUSH1 0x1 PUSH1 0x1 PUSH1 0xA0 SHL SUB AND SUB PUSH3 0x16F JUMPI PUSH1 0x40 MLOAD PUSH3 0x461BCD PUSH1 0xE5 SHL DUP2 MSTORE PUSH1 0x20 PUSH1 0x4 DUP3 ADD MSTORE PUSH1 0x15 PUSH1 0x24 DUP3 ADD MSTORE PUSH32 0x496E76616C6964206F776E657220616464726573730000000000000000000000 PUSH1 0x44 DUP3 ADD MSTORE PUSH1 0x64 ADD PUSH3 0x74 JUMP JUMPDEST PUSH1 0x1 PUSH1 0x1 PUSH1 0xA0 SHL SUB DUP2 AND PUSH1 0x0 SWAP1 DUP2 MSTORE PUSH1 0x1 PUSH1 0x20 MSTORE PUSH1 0x40 SWAP1 KECCAK256 SLOAD PUSH1 0xFF AND ISZERO PUSH3 0x1CD JUMPI PUSH1 0x40 MLOAD PUSH3 0x461BCD PUSH1 0xE5 SHL DUP2 MSTORE PUSH1 0x20 PUSH1 0x4 DUP3 ADD MSTORE PUSH1 0x10 PUSH1 0x24 DUP3 ADD MSTORE PUSH16 0x4F776E6572206E6F7420756E69717565 PUSH1 0x80 SHL PUSH1 0x44 DUP3 ADD MSTORE PUSH1 0x64 ADD PUSH3 0x74 JUMP JUMPDEST PUSH1 0x1 PUSH1 0x1 PUSH1 0xA0 SHL SUB AND PUSH1 0x0 DUP2 DUP2 MSTORE PUSH1 0x1 PUSH1 0x20 DUP2 SWAP1 MSTORE PUSH1 0x40 DUP3 KECCAK256 DUP1 SLOAD PUSH1 0xFF NOT AND DUP3 OR SWAP1 SSTORE DUP2 SLOAD SWAP1 DUP2 ADD DUP3 SSTORE SWAP1 DUP1 MSTORE PUSH32 0x290DECD9548B62A8D60345A988386FC84BA6BC95484008F6362F93160EF3E563 ADD DUP1 SLOAD PUSH1 0x1 PUSH1 0x1 PUSH1 0xA0 SHL SUB NOT AND SWAP1 SWAP2 OR SWAP1 SSTORE DUP1 PUSH3 0x239 DUP2 PUSH3 0x370 JUMP JUMPDEST SWAP2 POP POP PUSH3 0xE0 JUMP JUMPDEST POP PUSH1 0x2 SSTORE POP PUSH3 0x398 JUMP JUMPDEST PUSH4 0x4E487B71 PUSH1 0xE0 SHL PUSH1 0x0 MSTORE PUSH1 0x41 PUSH1 0x4 MSTORE PUSH1 0x24 PUSH1 0x0 REVERT JUMPDEST DUP1 MLOAD PUSH1 0x1 PUSH1 0x1 PUSH1 0xA0 SHL SUB DUP2 AND DUP2 EQ PUSH3 0x27B JUMPI PUSH1 0x0 DUP1 REVERT JUMPDEST SWAP2 SWAP1 POP JUMP JUMPDEST PUSH1 0x0 DUP1 PUSH1 0x40 DUP4 DUP6 SUB SLT ISZERO PUSH3 0x294 JUMPI PUSH1 0x0 DUP1 REVERT JUMPDEST DUP3 MLOAD PUSH1 0x1 PUSH1 0x1 PUSH1 0x40 SHL SUB DUP1 DUP3 GT ISZERO PUSH3 0x2AC JUMPI PUSH1 0x0 DUP1 REVERT JUMPDEST DUP2 DUP6 ADD SWAP2 POP DUP6 PUSH1 0x1F DUP4 ADD SLT PUSH3 0x2C1 JUMPI PUSH1 0x0 DUP1 REVERT JUMPDEST DUP2 MLOAD PUSH1 0x20 DUP3 DUP3 GT ISZERO PUSH3 0x2D8 JUMPI PUSH3 0x2D8 PUSH3 0x24D JUMP JUMPDEST DUP2 PUSH1 0x5 SHL PUSH1 0x40 MLOAD PUSH1 0x1F NOT PUSH1 0x3F DUP4 ADD AND DUP2 ADD DUP2 DUP2 LT DUP7 DUP3 GT OR ISZERO PUSH3 0x300 JUMPI PUSH3 0x300 PUSH3 0x24D JUMP JUMPDEST PUSH1 0x40 MSTORE SWAP3 DUP4 MSTORE DUP2 DUP4 ADD SWAP4 POP DUP5 DUP2 ADD DUP3 ADD SWAP3 DUP10 DUP5 GT ISZERO PUSH3 0x31F JUMPI PUSH1 0x0 DUP1 REVERT JUMPDEST SWAP5 DUP3 ADD SWAP5 JUMPDEST DUP4 DUP7 LT ISZERO PUSH3 0x348 JUMPI PUSH3 0x338 DUP7 PUSH3 0x263 JUMP JUMPDEST DUP6 MSTORE SWAP5 DUP3 ADD SWAP5 SWAP4 DUP3 ADD SWAP4 PUSH3 0x324 JUMP JUMPDEST SWAP8 SWAP1 SWAP2 ADD MLOAD SWAP7 SWAP9 SWAP7 SWAP8 POP POP POP POP POP POP POP JUMP JUMPDEST PUSH4 0x4E487B71 PUSH1 0xE0 SHL PUSH1 0x0 MSTORE PUSH1 0x32 PUSH1 0x4 MSTORE PUSH1 0x24 PUSH1 0x0 REVERT JUMPDEST PUSH1 0x0 PUSH1 0x1 DUP3 ADD PUSH3 0x391 JUMPI PUSH4 0x4E487B71 PUSH1 0xE0 SHL PUSH1 0x0 MSTORE PUSH1 0x11 PUSH1 0x4 MSTORE PUSH1 0x24 PUSH1 0x0 REVERT JUMPDEST POP PUSH1 0x1 ADD SWAP1 JUMP JUMPDEST PUSH2 0x17B5 DUP1 PUSH3 0x3A8 PUSH1 0x0 CODECOPY PUSH1 0x0 RETURN INVALID PUSH1 0x80 PUSH1 0x40 MSTORE PUSH1 0x4 CALLDATASIZE LT PUSH2 0x10C JUMPI PUSH1 0x0 CALLDATALOAD PUSH1 0xE0 SHR DUP1 PUSH4 0x56C31637 GT PUSH2 0x95 JUMPI DUP1 PUSH4 0x9ACE38C2 GT PUSH2 0x64 JUMPI DUP1 PUSH4 0x9ACE38C2 EQ PUSH2 0x367 JUMPI DUP1 PUSH4 0xA0E67E2B EQ PUSH2 0x399 JUMPI DUP1 PUSH4 0xB1E130FC EQ PUSH2 0x3BB JUMPI DUP1 PUSH4 0xC65DF794 EQ PUSH2 0x3DB JUMPI DUP1 PUSH4 0xEE22610B EQ PUSH2 0x3FB JUMPI PUSH2 0x149 JUMP JUMPDEST DUP1 PUSH4 0x56C31637 EQ PUSH2 0x2E1 JUMPI DUP1 PUSH4 0x8253951A EQ PUSH2 0x301 JUMPI DUP1 PUSH4 0x82E717F7 EQ PUSH2 0x33C JUMPI DUP1 PUSH4 0x99C1AADC EQ PUSH2 0x352 JUMPI PUSH2 0x149 JUMP JUMPDEST DUP1 PUSH4 0x242232D1 GT PUSH2 0xDC JUMPI DUP1 PUSH4 0x242232D1 EQ PUSH2 0x21B JUMPI DUP1 PUSH4 0x2E7700F0 EQ PUSH2 0x23B JUMPI DUP1 PUSH4 0x2F54BF6E EQ PUSH2 0x250 JUMPI DUP1 PUSH4 0x33EA3DC8 EQ PUSH2 0x290 JUMPI DUP1 PUSH4 0x40AD01EA EQ PUSH2 0x2C1 JUMPI PUSH2 0x149 JUMP JUMPDEST DUP1 PUSH3 0xE9C006 EQ PUSH2 0x17B JUMPI DUP1 PUSH4 0x25E7C27 EQ PUSH2 0x19D JUMPI DUP1 PUSH4 0x117C7A56 EQ PUSH2 0x1DA JUMPI DUP1 PUSH4 0x12065FE0 EQ PUSH2 0x208 JUMPI PUSH2 0x149 JUMP JUMPDEST CALLDATASIZE PUSH2 0x149 JUMPI PUSH1 0x40 MLOAD CALLVALUE DUP2 MSTORE CALLER SWAP1 PUSH32 0xE1FFFCC4923D04B559F4D29A8BFC6CDA04EB5B0D3C460751C2402C5C5CC9109C SWAP1 PUSH1 0x20 ADD JUMPDEST PUSH1 0x40 MLOAD DUP1 SWAP2 SUB SWAP1 LOG2 STOP JUMPDEST PUSH1 0x40 MLOAD CALLVALUE DUP2 MSTORE CALLER SWAP1 PUSH32 0xE1FFFCC4923D04B559F4D29A8BFC6CDA04EB5B0D3C460751C2402C5C5CC9109C SWAP1 PUSH1 0x20 ADD PUSH2 0x13F JUMP JUMPDEST CALLVALUE DUP1 ISZERO PUSH2 0x187 JUMPI PUSH1 0x0 DUP1 REVERT JUMPDEST POP PUSH2 0x19B PUSH2 0x196 CALLDATASIZE PUSH1 0x4 PUSH2 0x12D6 JUMP JUMPDEST PUSH2 0x41B JUMP JUMPDEST STOP JUMPDEST CALLVALUE DUP1 ISZERO PUSH2 0x1A9 JUMPI PUSH1 0x0 DUP1 REVERT JUMPDEST POP PUSH2 0x1BD PUSH2 0x1B8 CALLDATASIZE PUSH1 0x4 PUSH2 0x12D6 JUMP JUMPDEST PUSH2 0x650 JUMP JUMPDEST PUSH1 0x40 MLOAD PUSH1 0x1 PUSH1 0x1 PUSH1 0xA0 SHL SUB SWAP1 SWAP2 AND DUP2 MSTORE PUSH1 0x20 ADD JUMPDEST PUSH1 0x40 MLOAD DUP1 SWAP2 SUB SWAP1 RETURN JUMPDEST CALLVALUE DUP1 ISZERO PUSH2 0x1E6 JUMPI PUSH1 0x0 DUP1 REVERT JUMPDEST POP PUSH2 0x1FA PUSH2 0x1F5 CALLDATASIZE PUSH1 0x4 PUSH2 0x130B JUMP JUMPDEST PUSH2 0x67A JUMP JUMPDEST PUSH1 0x40 MLOAD SWAP1 DUP2 MSTORE PUSH1 0x20 ADD PUSH2 0x1D1 JUMP JUMPDEST CALLVALUE DUP1 ISZERO PUSH2 0x214 JUMPI PUSH1 0x0 DUP1 REVERT JUMPDEST POP SELFBALANCE PUSH2 0x1FA JUMP JUMPDEST CALLVALUE DUP1 ISZERO PUSH2 0x227 JUMPI PUSH1 0x0 DUP1 REVERT JUMPDEST POP PUSH2 0x19B PUSH2 0x236 CALLDATASIZE PUSH1 0x4 PUSH2 0x12D6 JUMP JUMPDEST PUSH2 0x8EA JUMP JUMPDEST CALLVALUE DUP1 ISZERO PUSH2 0x247 JUMPI PUSH1 0x0 DUP1 REVERT JUMPDEST POP PUSH1 0x3 SLOAD PUSH2 0x1FA JUMP JUMPDEST CALLVALUE DUP1 ISZERO PUSH2 0x25C JUMPI PUSH1 0x0 DUP1 REVERT JUMPDEST POP PUSH2 0x280 PUSH2 0x26B CALLDATASIZE PUSH1 0x4 PUSH2 0x1392 JUMP JUMPDEST PUSH1 0x1 PUSH1 0x20 MSTORE PUSH1 0x0 SWAP1 DUP2 MSTORE PUSH1 0x40 SWAP1 KECCAK256 SLOAD PUSH1 0xFF AND DUP2 JUMP JUMPDEST PUSH1 0x40 MLOAD SWAP1 ISZERO ISZERO DUP2 MSTORE PUSH1 0x20 ADD PUSH2 0x1D1 JUMP JUMPDEST CALLVALUE DUP1 ISZERO PUSH2 0x29C JUMPI PUSH1 0x0 DUP1 REVERT JUMPDEST POP PUSH2 0x2B0 PUSH2 0x2AB CALLDATASIZE PUSH1 0x4 PUSH2 0x12D6 JUMP JUMPDEST PUSH2 0xAA1 JUMP JUMPDEST PUSH1 0x40 MLOAD PUSH2 0x1D1 SWAP6 SWAP5 SWAP4 SWAP3 SWAP2 SWAP1 PUSH2 0x13FA JUMP JUMPDEST CALLVALUE DUP1 ISZERO PUSH2 0x2CD JUMPI PUSH1 0x0 DUP1 REVERT JUMPDEST POP PUSH2 0x1FA PUSH2 0x2DC CALLDATASIZE PUSH1 0x4 PUSH2 0x12D6 JUMP JUMPDEST PUSH2 0xBA6 JUMP JUMPDEST CALLVALUE DUP1 ISZERO PUSH2 0x2ED JUMPI PUSH1 0x0 DUP1 REVERT JUMPDEST POP PUSH2 0x280 PUSH2 0x2FC CALLDATASIZE PUSH1 0x4 PUSH2 0x143A JUMP JUMPDEST PUSH2 0xBD4 JUMP JUMPDEST CALLVALUE DUP1 ISZERO PUSH2 0x30D JUMPI PUSH1 0x0 DUP1 REVERT JUMPDEST POP PUSH2 0x280 PUSH2 0x31C CALLDATASIZE PUSH1 0x4 PUSH2 0x143A JUMP JUMPDEST PUSH1 0x4 PUSH1 0x20 SWAP1 DUP2 MSTORE PUSH1 0x0 SWAP3 DUP4 MSTORE PUSH1 0x40 DUP1 DUP5 KECCAK256 SWAP1 SWAP2 MSTORE SWAP1 DUP3 MSTORE SWAP1 KECCAK256 SLOAD PUSH1 0xFF AND DUP2 JUMP JUMPDEST CALLVALUE DUP1 ISZERO PUSH2 0x348 JUMPI PUSH1 0x0 DUP1 REVERT JUMPDEST POP PUSH2 0x1FA PUSH1 0x2 SLOAD DUP2 JUMP JUMPDEST CALLVALUE DUP1 ISZERO PUSH2 0x35E JUMPI PUSH1 0x0 DUP1 REVERT JUMPDEST POP PUSH1 0x2 SLOAD PUSH2 0x1FA JUMP JUMPDEST CALLVALUE DUP1 ISZERO PUSH2 0x373 JUMPI PUSH1 0x0 DUP1 REVERT JUMPDEST POP PUSH2 0x387 PUSH2 0x382 CALLDATASIZE PUSH1 0x4 PUSH2 0x12D6 JUMP JUMPDEST PUSH2 0xC01 JUMP JUMPDEST PUSH1 0x40 MLOAD PUSH2 0x1D1 SWAP7 SWAP6 SWAP5 SWAP4 SWAP3 SWAP2 SWAP1 PUSH2 0x1466 JUMP JUMPDEST CALLVALUE DUP1 ISZERO PUSH2 0x3A5 JUMPI PUSH1 0x0 DUP1 REVERT JUMPDEST POP PUSH2 0x3AE PUSH2 0xCE5 JUMP JUMPDEST PUSH1 0x40 MLOAD PUSH2 0x1D1 SWAP2 SWAP1 PUSH2 0x14B0 JUMP JUMPDEST CALLVALUE DUP1 ISZERO PUSH2 0x3C7 JUMPI PUSH1 0x0 DUP1 REVERT JUMPDEST POP PUSH2 0x19B PUSH2 0x3D6 CALLDATASIZE PUSH1 0x4 PUSH2 0x12D6 JUMP JUMPDEST PUSH2 0xD47 JUMP JUMPDEST CALLVALUE DUP1 ISZERO PUSH2 0x3E7 JUMPI PUSH1 0x0 DUP1 REVERT JUMPDEST POP PUSH2 0x3AE PUSH2 0x3F6 CALLDATASIZE PUSH1 0x4 PUSH2 0x12D6 JUMP JUMPDEST PUSH2 0xF27 JUMP JUMPDEST CALLVALUE DUP1 ISZERO PUSH2 0x407 JUMPI PUSH1 0x0 DUP1 REVERT JUMPDEST POP PUSH2 0x19B PUSH2 0x416 CALLDATASIZE PUSH1 0x4 PUSH2 0x12D6 JUMP JUMPDEST PUSH2 0x107F JUMP JUMPDEST CALLER PUSH1 0x0 SWAP1 DUP2 MSTORE PUSH1 0x1 PUSH1 0x20 MSTORE PUSH1 0x40 SWAP1 KECCAK256 SLOAD PUSH1 0xFF AND PUSH2 0x44B JUMPI PUSH1 0x40 MLOAD PUSH4 0x30CD7471 PUSH1 0xE0 SHL DUP2 MSTORE PUSH1 0x4 ADD PUSH1 0x40 MLOAD DUP1 SWAP2 SUB SWAP1 REVERT JUMPDEST PUSH1 0x3 SLOAD DUP2 SWAP1 DUP2 LT PUSH2 0x46F JUMPI PUSH1 0x40 MLOAD PUSH4 0x9E1B596F PUSH1 0xE0 SHL DUP2 MSTORE PUSH1 0x4 ADD PUSH1 0x40 MLOAD DUP1 SWAP2 SUB SWAP1 REVERT JUMPDEST DUP2 PUSH1 0x3 DUP2 DUP2 SLOAD DUP2 LT PUSH2 0x483 JUMPI PUSH2 0x483 PUSH2 0x14FD JUMP JUMPDEST PUSH1 0x0 SWAP2 DUP3 MSTORE PUSH1 0x20 SWAP1 SWAP2 KECCAK256 PUSH1 0x2 PUSH1 0x6 SWAP1 SWAP3 MUL ADD ADD SLOAD PUSH1 0xFF AND ISZERO PUSH2 0x4B8 JUMPI PUSH1 0x40 MLOAD PUSH4 0x2EA945CF PUSH1 0xE0 SHL DUP2 MSTORE PUSH1 0x4 ADD PUSH1 0x40 MLOAD DUP1 SWAP2 SUB SWAP1 REVERT JUMPDEST DUP3 PUSH1 0x3 DUP2 DUP2 SLOAD DUP2 LT PUSH2 0x4CC JUMPI PUSH2 0x4CC PUSH2 0x14FD JUMP JUMPDEST PUSH1 0x0 SWAP2 DUP3 MSTORE PUSH1 0x20 SWAP1 SWAP2 KECCAK256 PUSH1 0x5 PUSH1 0x6 SWAP1 SWAP3 MUL ADD ADD SLOAD PUSH1 0xFF AND ISZERO PUSH2 0x501 JUMPI PUSH1 0x40 MLOAD PUSH4 0x230E6CF PUSH1 0xE2 SHL DUP2 MSTORE PUSH1 0x4 ADD PUSH1 0x40 MLOAD DUP1 SWAP2 SUB SWAP1 REVERT JUMPDEST PUSH1 0x0 PUSH1 0x3 DUP6 DUP2 SLOAD DUP2 LT PUSH2 0x516 JUMPI PUSH2 0x516 PUSH2 0x14FD JUMP JUMPDEST PUSH1 0x0 SWAP2 DUP3 MSTORE PUSH1 0x20 DUP1 DUP4 KECCAK256 DUP9 DUP5 MSTORE PUSH1 0x4 DUP3 MSTORE PUSH1 0x40 DUP1 DUP6 KECCAK256 CALLER DUP7 MSTORE SWAP1 SWAP3 MSTORE SWAP3 KECCAK256 SLOAD PUSH1 0x6 SWAP1 SWAP2 MUL SWAP1 SWAP2 ADD SWAP2 POP PUSH1 0xFF AND PUSH2 0x593 JUMPI PUSH1 0x40 MLOAD PUSH3 0x461BCD PUSH1 0xE5 SHL DUP2 MSTORE PUSH1 0x20 PUSH1 0x4 DUP3 ADD MSTORE PUSH1 0x17 PUSH1 0x24 DUP3 ADD MSTORE PUSH32 0x596F75206469646E27742070726F706F73652074686973000000000000000000 PUSH1 0x44 DUP3 ADD MSTORE PUSH1 0x64 ADD JUMPDEST PUSH1 0x40 MLOAD DUP1 SWAP2 SUB SWAP1 REVERT JUMPDEST DUP1 PUSH1 0x3 ADD SLOAD PUSH1 0x1 EQ PUSH2 0x5E7 JUMPI PUSH1 0x40 MLOAD PUSH3 0x461BCD PUSH1 0xE5 SHL DUP2 MSTORE PUSH1 0x20 PUSH1 0x4 DUP3 ADD MSTORE PUSH1 0x17 PUSH1 0x24 DUP3 ADD MSTORE PUSH32 0x4F746865727320616C726561647920617070726F766564000000000000000000 PUSH1 0x44 DUP3 ADD MSTORE PUSH1 0x64 ADD PUSH2 0x58A JUMP JUMPDEST PUSH1 0x5 DUP2 ADD DUP1 SLOAD PUSH1 0xFF NOT SWAP1 DUP2 AND PUSH1 0x1 OR SWAP1 SWAP2 SSTORE PUSH1 0x0 DUP7 DUP2 MSTORE PUSH1 0x4 PUSH1 0x20 SWAP1 DUP2 MSTORE PUSH1 0x40 DUP1 DUP4 KECCAK256 CALLER DUP1 DUP6 MSTORE SWAP3 MSTORE DUP1 DUP4 KECCAK256 DUP1 SLOAD SWAP1 SWAP5 AND SWAP1 SWAP4 SSTORE PUSH1 0x3 DUP5 ADD DUP3 SWAP1 SSTORE SWAP2 MLOAD DUP8 SWAP2 PUSH32 0xDB4A2E81B174686D0ED44896F2D8FCFE9EB7631601E632FBE6AA79B267BC150 SWAP2 LOG3 POP POP POP POP POP JUMP JUMPDEST PUSH1 0x0 DUP2 DUP2 SLOAD DUP2 LT PUSH2 0x660 JUMPI PUSH1 0x0 DUP1 REVERT JUMPDEST PUSH1 0x0 SWAP2 DUP3 MSTORE PUSH1 0x20 SWAP1 SWAP2 KECCAK256 ADD SLOAD PUSH1 0x1 PUSH1 0x1 PUSH1 0xA0 SHL SUB AND SWAP1 POP DUP2 JUMP JUMPDEST CALLER PUSH1 0x0 SWAP1 DUP2 MSTORE PUSH1 0x1 PUSH1 0x20 MSTORE PUSH1 0x40 DUP2 KECCAK256 SLOAD PUSH1 0xFF AND PUSH2 0x6AA JUMPI PUSH1 0x40 MLOAD PUSH4 0x30CD7471 PUSH1 0xE0 SHL DUP2 MSTORE PUSH1 0x4 ADD PUSH1 0x40 MLOAD DUP1 SWAP2 SUB SWAP1 REVERT JUMPDEST PUSH1 0x1 PUSH1 0x1 PUSH1 0xA0 SHL SUB DUP6 AND PUSH2 0x6F9 JUMPI PUSH1 0x40 MLOAD PUSH3 0x461BCD PUSH1 0xE5 SHL DUP2 MSTORE PUSH1 0x20 PUSH1 0x4 DUP3 ADD MSTORE PUSH1 0x16 PUSH1 0x24 DUP3 ADD MSTORE PUSH22 0x496E76616C6964207461726765742061646472657373 PUSH1 0x50 SHL PUSH1 0x44 DUP3 ADD MSTORE PUSH1 0x64 ADD PUSH2 0x58A JUMP JUMPDEST PUSH2 0x1000 DUP3 GT ISZERO PUSH2 0x740 JUMPI PUSH1 0x40 MLOAD PUSH3 0x461BCD PUSH1 0xE5 SHL DUP2 MSTORE PUSH1 0x20 PUSH1 0x4 DUP3 ADD MSTORE PUSH1 0x12 PUSH1 0x24 DUP3 ADD MSTORE PUSH18 0x43616C6C6461746120746F6F206C61726765 PUSH1 0x70 SHL PUSH1 0x44 DUP3 ADD MSTORE PUSH1 0x64 ADD PUSH2 0x58A JUMP JUMPDEST PUSH1 0x3 DUP1 SLOAD SWAP1 POP SWAP1 POP PUSH1 0x3 PUSH1 0x40 MLOAD DUP1 PUSH1 0xC0 ADD PUSH1 0x40 MSTORE DUP1 DUP8 PUSH1 0x1 PUSH1 0x1 PUSH1 0xA0 SHL SUB AND DUP2 MSTORE PUSH1 0x20 ADD DUP7 DUP2 MSTORE PUSH1 0x20 ADD PUSH1 0x0 ISZERO ISZERO DUP2 MSTORE PUSH1 0x20 ADD PUSH1 0x1 DUP2 MSTORE PUSH1 0x20 ADD DUP6 DUP6 DUP1 DUP1 PUSH1 0x1F ADD PUSH1 0x20 DUP1 SWAP2 DIV MUL PUSH1 0x20 ADD PUSH1 0x40 MLOAD SWAP1 DUP2 ADD PUSH1 0x40 MSTORE DUP1 SWAP4 SWAP3 SWAP2 SWAP1 DUP2 DUP2 MSTORE PUSH1 0x20 ADD DUP4 DUP4 DUP1 DUP3 DUP5 CALLDATACOPY PUSH1 0x0 SWAP3 ADD DUP3 SWAP1 MSTORE POP SWAP4 DUP6 MSTORE POP POP POP PUSH1 0x20 SWAP2 DUP3 ADD DUP2 SWAP1 MSTORE DUP4 SLOAD PUSH1 0x1 DUP1 DUP3 ADD DUP7 SSTORE SWAP5 DUP3 MSTORE SWAP1 DUP3 SWAP1 KECCAK256 DUP4 MLOAD PUSH1 0x6 SWAP1 SWAP3 MUL ADD DUP1 SLOAD PUSH1 0x1 PUSH1 0x1 PUSH1 0xA0 SHL SUB NOT AND PUSH1 0x1 PUSH1 0x1 PUSH1 0xA0 SHL SUB SWAP1 SWAP3 AND SWAP2 SWAP1 SWAP2 OR DUP2 SSTORE SWAP1 DUP3 ADD MLOAD SWAP3 DUP2 ADD SWAP3 SWAP1 SWAP3 SSTORE PUSH1 0x40 DUP2 ADD MLOAD PUSH1 0x2 DUP4 ADD DUP1 SLOAD PUSH1 0xFF NOT AND SWAP2 ISZERO ISZERO SWAP2 SWAP1 SWAP2 OR SWAP1 SSTORE PUSH1 0x60 DUP2 ADD MLOAD PUSH1 0x3 DUP4 ADD SSTORE PUSH1 0x80 DUP2 ADD MLOAD SWAP1 SWAP2 SWAP1 PUSH1 0x4 DUP3 ADD SWAP1 PUSH2 0x833 SWAP1 DUP3 PUSH2 0x15AC JUMP JUMPDEST POP PUSH1 0xA0 SWAP2 SWAP1 SWAP2 ADD MLOAD PUSH1 0x5 SWAP1 SWAP2 ADD DUP1 SLOAD SWAP2 ISZERO ISZERO PUSH1 0xFF NOT SWAP3 DUP4 AND OR SWAP1 SSTORE PUSH1 0x0 DUP3 DUP2 MSTORE PUSH1 0x4 PUSH1 0x20 SWAP1 DUP2 MSTORE PUSH1 0x40 DUP1 DUP4 KECCAK256 CALLER DUP1 DUP6 MSTORE SWAP3 MSTORE DUP1 DUP4 KECCAK256 DUP1 SLOAD SWAP1 SWAP5 AND PUSH1 0x1 OR SWAP1 SWAP4 SSTORE SWAP2 MLOAD DUP4 SWAP2 PUSH32 0x924813D717E221B5F46DCD8A56DA1679E4612584AB3237D55E5FAABF6F6A3079 SWAP2 LOG3 CALLER PUSH1 0x1 PUSH1 0x1 PUSH1 0xA0 SHL SUB AND DUP2 PUSH32 0x2ECF8C4571BE1F8A0B1E6FEAA711128F3F8038E97869AA59D0F595E21F50EAA0 DUP8 DUP8 DUP8 DUP8 PUSH1 0x40 MLOAD PUSH2 0x8DA SWAP5 SWAP4 SWAP3 SWAP2 SWAP1 PUSH2 0x166C JUMP JUMPDEST PUSH1 0x40 MLOAD DUP1 SWAP2 SUB SWAP1 LOG3 SWAP5 SWAP4 POP POP POP POP JUMP JUMPDEST CALLER PUSH1 0x0 SWAP1 DUP2 MSTORE PUSH1 0x1 PUSH1 0x20 MSTORE PUSH1 0x40 SWAP1 KECCAK256 SLOAD PUSH1 0xFF AND PUSH2 0x91A JUMPI PUSH1 0x40 MLOAD PUSH4 0x30CD7471 PUSH1 0xE0 SHL DUP2 MSTORE PUSH1 0x4 ADD PUSH1 0x40 MLOAD DUP1 SWAP2 SUB SWAP1 REVERT JUMPDEST PUSH1 0x3 SLOAD DUP2 SWAP1 DUP2 LT PUSH2 0x93E JUMPI PUSH1 0x40 MLOAD PUSH4 0x9E1B596F PUSH1 0xE0 SHL DUP2 MSTORE PUSH1 0x4 ADD PUSH1 0x40 MLOAD DUP1 SWAP2 SUB SWAP1 REVERT JUMPDEST DUP2 PUSH1 0x3 DUP2 DUP2 SLOAD DUP2 LT PUSH2 0x952 JUMPI PUSH2 0x952 PUSH2 0x14FD JUMP JUMPDEST PUSH1 0x0 SWAP2 DUP3 MSTORE PUSH1 0x20 SWAP1 SWAP2 KECCAK256 PUSH1 0x2 PUSH1 0x6 SWAP1 SWAP3 MUL ADD ADD SLOAD PUSH1 0xFF AND ISZERO PUSH2 0x987 JUMPI PUSH1 0x40 MLOAD PUSH4 0x2EA945CF PUSH1 0xE0 SHL DUP2 MSTORE PUSH1 0x4 ADD PUSH1 0x40 MLOAD DUP1 SWAP2 SUB SWAP1 REVERT JUMPDEST DUP3 PUSH1 0x3 DUP2 DUP2 SLOAD DUP2 LT PUSH2 0x99B JUMPI PUSH2 0x99B PUSH2 0x14FD JUMP JUMPDEST PUSH1 0x0 SWAP2 DUP3 MSTORE PUSH1 0x20 SWAP1 SWAP2 KECCAK256 PUSH1 0x5 PUSH1 0x6 SWAP1 SWAP3 MUL ADD ADD SLOAD PUSH1 0xFF AND ISZERO PUSH2 0x9D0 JUMPI PUSH1 0x40 MLOAD PUSH4 0x230E6CF PUSH1 0xE2 SHL DUP2 MSTORE PUSH1 0x4 ADD PUSH1 0x40 MLOAD DUP1 SWAP2 SUB SWAP1 REVERT JUMPDEST PUSH1 0x0 DUP5 DUP2 MSTORE PUSH1 0x4 PUSH1 0x20 SWAP1 DUP2 MSTORE PUSH1 0x40 DUP1 DUP4 KECCAK256 CALLER DUP5 MSTORE SWAP1 SWAP2 MSTORE SWAP1 KECCAK256 SLOAD DUP5 SWAP1 PUSH1 0xFF AND ISZERO PUSH2 0xA0D JUMPI PUSH1 0x40 MLOAD PUSH4 0x5DB7EC0D PUSH1 0xE0 SHL DUP2 MSTORE PUSH1 0x4 ADD PUSH1 0x40 MLOAD DUP1 SWAP2 SUB SWAP1 REVERT JUMPDEST PUSH1 0x0 DUP6 DUP2 MSTORE PUSH1 0x4 PUSH1 0x20 SWAP1 DUP2 MSTORE PUSH1 0x40 DUP1 DUP4 KECCAK256 CALLER DUP5 MSTORE SWAP1 SWAP2 MSTORE SWAP1 KECCAK256 DUP1 SLOAD PUSH1 0xFF NOT AND PUSH1 0x1 SWAP1 DUP2 OR SWAP1 SWAP2 SSTORE PUSH1 0x3 DUP1 SLOAD DUP8 SWAP1 DUP2 LT PUSH2 0xA48 JUMPI PUSH2 0xA48 PUSH2 0x14FD JUMP JUMPDEST SWAP1 PUSH1 0x0 MSTORE PUSH1 0x20 PUSH1 0x0 KECCAK256 SWAP1 PUSH1 0x6 MUL ADD PUSH1 0x3 ADD PUSH1 0x0 DUP3 DUP3 SLOAD PUSH2 0xA68 SWAP2 SWAP1 PUSH2 0x16CA JUMP JUMPDEST SWAP1 SWAP2 SSTORE POP POP PUSH1 0x40 MLOAD CALLER SWAP1 DUP7 SWAP1 PUSH32 0x924813D717E221B5F46DCD8A56DA1679E4612584AB3237D55E5FAABF6F6A3079 SWAP1 PUSH1 0x0 SWAP1 LOG3 POP POP POP POP POP JUMP JUMPDEST PUSH1 0x0 DUP1 PUSH1 0x0 DUP1 PUSH1 0x60 PUSH1 0x0 PUSH1 0x3 DUP8 DUP2 SLOAD DUP2 LT PUSH2 0xABE JUMPI PUSH2 0xABE PUSH2 0x14FD JUMP JUMPDEST SWAP1 PUSH1 0x0 MSTORE PUSH1 0x20 PUSH1 0x0 KECCAK256 SWAP1 PUSH1 0x6 MUL ADD SWAP1 POP DUP1 PUSH1 0x0 ADD PUSH1 0x0 SWAP1 SLOAD SWAP1 PUSH2 0x100 EXP SWAP1 DIV PUSH1 0x1 PUSH1 0x1 PUSH1 0xA0 SHL SUB AND DUP2 PUSH1 0x1 ADD SLOAD DUP3 PUSH1 0x2 ADD PUSH1 0x0 SWAP1 SLOAD SWAP1 PUSH2 0x100 EXP SWAP1 DIV PUSH1 0xFF AND DUP4 PUSH1 0x3 ADD SLOAD DUP5 PUSH1 0x4 ADD DUP1 DUP1 SLOAD PUSH2 0xB12 SWAP1 PUSH2 0x1529 JUMP JUMPDEST DUP1 PUSH1 0x1F ADD PUSH1 0x20 DUP1 SWAP2 DIV MUL PUSH1 0x20 ADD PUSH1 0x40 MLOAD SWAP1 DUP2 ADD PUSH1 0x40 MSTORE DUP1 SWAP3 SWAP2 SWAP1 DUP2 DUP2 MSTORE PUSH1 0x20 ADD DUP3 DUP1 SLOAD PUSH2 0xB3E SWAP1 PUSH2 0x1529 JUMP JUMPDEST DUP1 ISZERO PUSH2 0xB8B JUMPI DUP1 PUSH1 0x1F LT PUSH2 0xB60 JUMPI PUSH2 0x100 DUP1 DUP4 SLOAD DIV MUL DUP4 MSTORE SWAP2 PUSH1 0x20 ADD SWAP2 PUSH2 0xB8B JUMP JUMPDEST DUP3 ADD SWAP2 SWAP1 PUSH1 0x0 MSTORE PUSH1 0x20 PUSH1 0x0 KECCAK256 SWAP1 JUMPDEST DUP2 SLOAD DUP2 MSTORE SWAP1 PUSH1 0x1 ADD SWAP1 PUSH1 0x20 ADD DUP1 DUP4 GT PUSH2 0xB6E JUMPI DUP3 SWAP1 SUB PUSH1 0x1F AND DUP3 ADD SWAP2 JUMPDEST POP POP POP POP POP SWAP1 POP SWAP6 POP SWAP6 POP SWAP6 POP SWAP6 POP SWAP6 POP POP SWAP2 SWAP4 SWAP6 SWAP1 SWAP3 SWAP5 POP JUMP JUMPDEST PUSH1 0x0 PUSH1 0x3 DUP3 DUP2 SLOAD DUP2 LT PUSH2 0xBBB JUMPI PUSH2 0xBBB PUSH2 0x14FD JUMP JUMPDEST SWAP1 PUSH1 0x0 MSTORE PUSH1 0x20 PUSH1 0x0 KECCAK256 SWAP1 PUSH1 0x6 MUL ADD PUSH1 0x3 ADD SLOAD SWAP1 POP SWAP2 SWAP1 POP JUMP JUMPDEST PUSH1 0x0 DUP3 DUP2 MSTORE PUSH1 0x4 PUSH1 0x20 SWAP1 DUP2 MSTORE PUSH1 0x40 DUP1 DUP4 KECCAK256 PUSH1 0x1 PUSH1 0x1 PUSH1 0xA0 SHL SUB DUP6 AND DUP5 MSTORE SWAP1 SWAP2 MSTORE SWAP1 KECCAK256 SLOAD PUSH1 0xFF AND JUMPDEST SWAP3 SWAP2 POP POP JUMP JUMPDEST PUSH1 0x3 DUP2 DUP2 SLOAD DUP2 LT PUSH2 0xC11 JUMPI PUSH1 0x0 DUP1 REVERT JUMPDEST PUSH1 0x0 SWAP2 DUP3 MSTORE PUSH1 0x20 SWAP1 SWAP2 KECCAK256 PUSH1 0x6 SWAP1 SWAP2 MUL ADD DUP1 SLOAD PUSH1 0x1 DUP3 ADD SLOAD PUSH1 0x2 DUP4 ADD SLOAD PUSH1 0x3 DUP5 ADD SLOAD PUSH1 0x4 DUP6 ADD DUP1 SLOAD PUSH1 0x1 PUSH1 0x1 PUSH1 0xA0 SHL SUB SWAP1 SWAP6 AND SWAP7 POP SWAP3 SWAP5 PUSH1 0xFF SWAP1 SWAP3 AND SWAP4 SWAP1 SWAP3 SWAP1 PUSH2 0xC59 SWAP1 PUSH2 0x1529 JUMP JUMPDEST DUP1 PUSH1 0x1F ADD PUSH1 0x20 DUP1 SWAP2 DIV MUL PUSH1 0x20 ADD PUSH1 0x40 MLOAD SWAP1 DUP2 ADD PUSH1 0x40 MSTORE DUP1 SWAP3 SWAP2 SWAP1 DUP2 DUP2 MSTORE PUSH1 0x20 ADD DUP3 DUP1 SLOAD PUSH2 0xC85 SWAP1 PUSH2 0x1529 JUMP JUMPDEST DUP1 ISZERO PUSH2 0xCD2 JUMPI DUP1 PUSH1 0x1F LT PUSH2 0xCA7 JUMPI PUSH2 0x100 DUP1 DUP4 SLOAD DIV MUL DUP4 MSTORE SWAP2 PUSH1 0x20 ADD SWAP2 PUSH2 0xCD2 JUMP JUMPDEST DUP3 ADD SWAP2 SWAP1 PUSH1 0x0 MSTORE PUSH1 0x20 PUSH1 0x0 KECCAK256 SWAP1 JUMPDEST DUP2 SLOAD DUP2 MSTORE SWAP1 PUSH1 0x1 ADD SWAP1 PUSH1 0x20 ADD DUP1 DUP4 GT PUSH2 0xCB5 JUMPI DUP3 SWAP1 SUB PUSH1 0x1F AND DUP3 ADD SWAP2 JUMPDEST POP POP POP PUSH1 0x5 SWAP1 SWAP4 ADD SLOAD SWAP2 SWAP3 POP POP PUSH1 0xFF AND DUP7 JUMP JUMPDEST PUSH1 0x60 PUSH1 0x0 DUP1 SLOAD DUP1 PUSH1 0x20 MUL PUSH1 0x20 ADD PUSH1 0x40 MLOAD SWAP1 DUP2 ADD PUSH1 0x40 MSTORE DUP1 SWAP3 SWAP2 SWAP1 DUP2 DUP2 MSTORE PUSH1 0x20 ADD DUP3 DUP1 SLOAD DUP1 ISZERO PUSH2 0xD3D JUMPI PUSH1 0x20 MUL DUP3 ADD SWAP2 SWAP1 PUSH1 0x0 MSTORE PUSH1 0x20 PUSH1 0x0 KECCAK256 SWAP1 JUMPDEST DUP2 SLOAD PUSH1 0x1 PUSH1 0x1 PUSH1 0xA0 SHL SUB AND DUP2 MSTORE PUSH1 0x1 SWAP1 SWAP2 ADD SWAP1 PUSH1 0x20 ADD DUP1 DUP4 GT PUSH2 0xD1F JUMPI JUMPDEST POP POP POP POP POP SWAP1 POP SWAP1 JUMP JUMPDEST CALLER PUSH1 0x0 SWAP1 DUP2 MSTORE PUSH1 0x1 PUSH1 0x20 MSTORE PUSH1 0x40 SWAP1 KECCAK256 SLOAD PUSH1 0xFF AND PUSH2 0xD77 JUMPI PUSH1 0x40 MLOAD PUSH4 0x30CD7471 PUSH1 0xE0 SHL DUP2 MSTORE PUSH1 0x4 ADD PUSH1 0x40 MLOAD DUP1 SWAP2 SUB SWAP1 REVERT JUMPDEST PUSH1 0x3 SLOAD DUP2 SWAP1 DUP2 LT PUSH2 0xD9B JUMPI PUSH1 0x40 MLOAD PUSH4 0x9E1B596F PUSH1 0xE0 SHL DUP2 MSTORE PUSH1 0x4 ADD PUSH1 0x40 MLOAD DUP1 SWAP2 SUB SWAP1 REVERT JUMPDEST DUP2 PUSH1 0x3 DUP2 DUP2 SLOAD DUP2 LT PUSH2 0xDAF JUMPI PUSH2 0xDAF PUSH2 0x14FD JUMP JUMPDEST PUSH1 0x0 SWAP2 DUP3 MSTORE PUSH1 0x20 SWAP1 SWAP2 KECCAK256 PUSH1 0x2 PUSH1 0x6 SWAP1 SWAP3 MUL ADD ADD SLOAD PUSH1 0xFF AND ISZERO PUSH2 0xDE4 JUMPI PUSH1 0x40 MLOAD PUSH4 0x2EA945CF PUSH1 0xE0 SHL DUP2 MSTORE PUSH1 0x4 ADD PUSH1 0x40 MLOAD DUP1 SWAP2 SUB SWAP1 REVERT JUMPDEST DUP3 PUSH1 0x3 DUP2 DUP2 SLOAD DUP2 LT PUSH2 0xDF8 JUMPI PUSH2 0xDF8 PUSH2 0x14FD JUMP JUMPDEST PUSH1 0x0 SWAP2 DUP3 MSTORE PUSH1 0x20 SWAP1 SWAP2 KECCAK256 PUSH1 0x5 PUSH1 0x6 SWAP1 SWAP3 MUL ADD ADD SLOAD PUSH1 0xFF AND ISZERO PUSH2 0xE2D JUMPI PUSH1 0x40 MLOAD PUSH4 0x230E6CF PUSH1 0xE2 SHL DUP2 MSTORE PUSH1 0x4 ADD PUSH1 0x40 MLOAD DUP1 SWAP2 SUB SWAP1 REVERT JUMPDEST PUSH1 0x0 DUP5 DUP2 MSTORE PUSH1 0x4 PUSH1 0x20 SWAP1 DUP2 MSTORE PUSH1 0x40 DUP1 DUP4 KECCAK256 CALLER DUP5 MSTORE SWAP1 SWAP2 MSTORE SWAP1 KECCAK256 SLOAD PUSH1 0xFF AND PUSH2 0xE96 JUMPI PUSH1 0x40 MLOAD PUSH3 0x461BCD PUSH1 0xE5 SHL DUP2 MSTORE PUSH1 0x20 PUSH1 0x4 DUP3 ADD MSTORE PUSH1 0x18 PUSH1 0x24 DUP3 ADD MSTORE PUSH32 0x5472616E73616374696F6E206E6F7420617070726F7665640000000000000000 PUSH1 0x44 DUP3 ADD MSTORE PUSH1 0x64 ADD PUSH2 0x58A JUMP JUMPDEST PUSH1 0x0 DUP5 DUP2 MSTORE PUSH1 0x4 PUSH1 0x20 SWAP1 DUP2 MSTORE PUSH1 0x40 DUP1 DUP4 KECCAK256 CALLER DUP5 MSTORE SWAP1 SWAP2 MSTORE SWAP1 KECCAK256 DUP1 SLOAD PUSH1 0xFF NOT AND SWAP1 SSTORE PUSH1 0x3 DUP1 SLOAD PUSH1 0x1 SWAP2 SWAP1 DUP7 SWAP1 DUP2 LT PUSH2 0xECF JUMPI PUSH2 0xECF PUSH2 0x14FD JUMP JUMPDEST SWAP1 PUSH1 0x0 MSTORE PUSH1 0x20 PUSH1 0x0 KECCAK256 SWAP1 PUSH1 0x6 MUL ADD PUSH1 0x3 ADD PUSH1 0x0 DUP3 DUP3 SLOAD PUSH2 0xEEF SWAP2 SWAP1 PUSH2 0x16DD JUMP JUMPDEST SWAP1 SWAP2 SSTORE POP POP PUSH1 0x40 MLOAD CALLER SWAP1 DUP6 SWAP1 PUSH32 0x430C786AD6C97D1739E88415E23257A88A0A989B6BDC4E9E415B72BB53D869A8 SWAP1 PUSH1 0x0 SWAP1 LOG3 POP POP POP POP JUMP JUMPDEST PUSH1 0x3 SLOAD PUSH1 0x60 SWAP1 DUP3 SWAP1 DUP2 LT PUSH2 0xF4E JUMPI PUSH1 0x40 MLOAD PUSH4 0x9E1B596F PUSH1 0xE0 SHL DUP2 MSTORE PUSH1 0x4 ADD PUSH1 0x40 MLOAD DUP1 SWAP2 SUB SWAP1 REVERT JUMPDEST PUSH1 0x0 DUP1 SLOAD PUSH8 0xFFFFFFFFFFFFFFFF DUP2 GT ISZERO PUSH2 0xF6A JUMPI PUSH2 0xF6A PUSH2 0x1513 JUMP JUMPDEST PUSH1 0x40 MLOAD SWAP1 DUP1 DUP3 MSTORE DUP1 PUSH1 0x20 MUL PUSH1 0x20 ADD DUP3 ADD PUSH1 0x40 MSTORE DUP1 ISZERO PUSH2 0xF93 JUMPI DUP2 PUSH1 0x20 ADD PUSH1 0x20 DUP3 MUL DUP1 CALLDATASIZE DUP4 CALLDATACOPY ADD SWAP1 POP JUMPDEST POP SWAP1 POP PUSH1 0x0 DUP1 JUMPDEST PUSH1 0x0 SLOAD DUP2 LT ISZERO PUSH2 0x1073 JUMPI PUSH1 0x4 PUSH1 0x0 DUP8 DUP2 MSTORE PUSH1 0x20 ADD SWAP1 DUP2 MSTORE PUSH1 0x20 ADD PUSH1 0x0 KECCAK256 PUSH1 0x0 DUP1 DUP4 DUP2 SLOAD DUP2 LT PUSH2 0xFCB JUMPI PUSH2 0xFCB PUSH2 0x14FD JUMP JUMPDEST PUSH1 0x0 SWAP2 DUP3 MSTORE PUSH1 0x20 DUP1 DUP4 KECCAK256 SWAP1 SWAP2 ADD SLOAD PUSH1 0x1 PUSH1 0x1 PUSH1 0xA0 SHL SUB AND DUP4 MSTORE DUP3 ADD SWAP3 SWAP1 SWAP3 MSTORE PUSH1 0x40 ADD SWAP1 KECCAK256 SLOAD PUSH1 0xFF AND ISZERO PUSH2 0x1061 JUMPI PUSH1 0x0 DUP2 DUP2 SLOAD DUP2 LT PUSH2 0x100B JUMPI PUSH2 0x100B PUSH2 0x14FD JUMP JUMPDEST SWAP1 PUSH1 0x0 MSTORE PUSH1 0x20 PUSH1 0x0 KECCAK256 ADD PUSH1 0x0 SWAP1 SLOAD SWAP1 PUSH2 0x100 EXP SWAP1 DIV PUSH1 0x1 PUSH1 0x1 PUSH1 0xA0 SHL SUB AND DUP4 DUP4 DUP2 MLOAD DUP2 LT PUSH2 0x103B JUMPI PUSH2 0x103B PUSH2 0x14FD JUMP JUMPDEST PUSH1 0x1 PUSH1 0x1 PUSH1 0xA0 SHL SUB SWAP1 SWAP3 AND PUSH1 0x20 SWAP3 DUP4 MUL SWAP2 SWAP1 SWAP2 ADD SWAP1 SWAP2 ADD MSTORE DUP2 PUSH2 0x105D DUP2 PUSH2 0x16F0 JUMP JUMPDEST SWAP3 POP POP JUMPDEST DUP1 PUSH2 0x106B DUP2 PUSH2 0x16F0 JUMP JUMPDEST SWAP2 POP POP PUSH2 0xF9A JUMP JUMPDEST POP DUP2 MSTORE SWAP2 POP JUMPDEST POP SWAP2 SWAP1 POP JUMP JUMPDEST CALLER PUSH1 0x0 SWAP1 DUP2 MSTORE PUSH1 0x1 PUSH1 0x20 MSTORE PUSH1 0x40 SWAP1 KECCAK256 SLOAD PUSH1 0xFF AND PUSH2 0x10AF JUMPI PUSH1 0x40 MLOAD PUSH4 0x30CD7471 PUSH1 0xE0 SHL DUP2 MSTORE PUSH1 0x4 ADD PUSH1 0x40 MLOAD DUP1 SWAP2 SUB SWAP1 REVERT JUMPDEST PUSH1 0x3 SLOAD DUP2 SWAP1 DUP2 LT PUSH2 0x10D3 JUMPI PUSH1 0x40 MLOAD PUSH4 0x9E1B596F PUSH1 0xE0 SHL DUP2 MSTORE PUSH1 0x4 ADD PUSH1 0x40 MLOAD DUP1 SWAP2 SUB SWAP1 REVERT JUMPDEST DUP2 PUSH1 0x3 DUP2 DUP2 SLOAD DUP2 LT PUSH2 0x10E7 JUMPI PUSH2 0x10E7 PUSH2 0x14FD JUMP JUMPDEST PUSH1 0x0 SWAP2 DUP3 MSTORE PUSH1 0x20 SWAP1 SWAP2 KECCAK256 PUSH1 0x2 PUSH1 0x6 SWAP1 SWAP3 MUL ADD ADD SLOAD PUSH1 0xFF AND ISZERO PUSH2 0x111C JUMPI PUSH1 0x40 MLOAD PUSH4 0x2EA945CF PUSH1 0xE0 SHL DUP2 MSTORE PUSH1 0x4 ADD PUSH1 0x40 MLOAD DUP1 SWAP2 SUB SWAP1 REVERT JUMPDEST DUP3 PUSH1 0x3 DUP2 DUP2 SLOAD DUP2 LT PUSH2 0x1130 JUMPI PUSH2 0x1130 PUSH2 0x14FD JUMP JUMPDEST PUSH1 0x0 SWAP2 DUP3 MSTORE PUSH1 0x20 SWAP1 SWAP2 KECCAK256 PUSH1 0x5 PUSH1 0x6 SWAP1 SWAP3 MUL ADD ADD SLOAD PUSH1 0xFF AND ISZERO PUSH2 0x1165 JUMPI PUSH1 0x40 MLOAD PUSH4 0x230E6CF PUSH1 0xE2 SHL DUP2 MSTORE PUSH1 0x4 ADD PUSH1 0x40 MLOAD DUP1 SWAP2 SUB SWAP1 REVERT JUMPDEST PUSH1 0x0 PUSH1 0x3 DUP6 DUP2 SLOAD DUP2 LT PUSH2 0x117A JUMPI PUSH2 0x117A PUSH2 0x14FD JUMP JUMPDEST SWAP1 PUSH1 0x0 MSTORE PUSH1 0x20 PUSH1 0x0 KECCAK256 SWAP1 PUSH1 0x6 MUL ADD SWAP1 POP PUSH1 0x2 SLOAD DUP2 PUSH1 0x3 ADD SLOAD LT ISZERO PUSH2 0x11D7 JUMPI PUSH1 0x40 MLOAD PUSH3 0x461BCD PUSH1 0xE5 SHL DUP2 MSTORE PUSH1 0x20 PUSH1 0x4 DUP3 ADD MSTORE PUSH1 0x14 PUSH1 0x24 DUP3 ADD MSTORE PUSH20 0x4E6F7420656E6F75676820617070726F76616C73 PUSH1 0x60 SHL PUSH1 0x44 DUP3 ADD MSTORE PUSH1 0x64 ADD PUSH2 0x58A JUMP JUMPDEST PUSH1 0x2 DUP2 ADD DUP1 SLOAD PUSH1 0xFF NOT AND PUSH1 0x1 SWAP1 DUP2 OR SWAP1 SWAP2 SSTORE DUP2 SLOAD SWAP1 DUP3 ADD SLOAD PUSH1 0x40 MLOAD PUSH1 0x0 SWAP3 PUSH1 0x1 PUSH1 0x1 PUSH1 0xA0 SHL SUB AND SWAP2 SWAP1 PUSH2 0x120E SWAP1 PUSH1 0x4 DUP7 ADD SWAP1 PUSH2 0x1709 JUMP JUMPDEST PUSH1 0x0 PUSH1 0x40 MLOAD DUP1 DUP4 SUB DUP2 DUP6 DUP8 GAS CALL SWAP3 POP POP POP RETURNDATASIZE DUP1 PUSH1 0x0 DUP2 EQ PUSH2 0x124B JUMPI PUSH1 0x40 MLOAD SWAP2 POP PUSH1 0x1F NOT PUSH1 0x3F RETURNDATASIZE ADD AND DUP3 ADD PUSH1 0x40 MSTORE RETURNDATASIZE DUP3 MSTORE RETURNDATASIZE PUSH1 0x0 PUSH1 0x20 DUP5 ADD RETURNDATACOPY PUSH2 0x1250 JUMP JUMPDEST PUSH1 0x60 SWAP2 POP JUMPDEST POP POP SWAP1 POP DUP1 PUSH2 0x12A1 JUMPI PUSH1 0x40 MLOAD PUSH3 0x461BCD PUSH1 0xE5 SHL DUP2 MSTORE PUSH1 0x20 PUSH1 0x4 DUP3 ADD MSTORE PUSH1 0x1C PUSH1 0x24 DUP3 ADD MSTORE PUSH32 0x5472616E73616374696F6E20657865637574696F6E206661696C656400000000 PUSH1 0x44 DUP3 ADD MSTORE PUSH1 0x64 ADD PUSH2 0x58A JUMP JUMPDEST PUSH1 0x40 MLOAD CALLER SWAP1 DUP8 SWAP1 PUSH32 0xEFC13BDCF58F184EA7CAE26B499FB33B539E01D0197CEA456F3ADA289B8CF19B SWAP1 PUSH1 0x0 SWAP1 LOG3 POP POP POP POP POP POP JUMP JUMPDEST PUSH1 0x0 PUSH1 0x20 DUP3 DUP5 SUB SLT ISZERO PUSH2 0x12E8 JUMPI PUSH1 0x0 DUP1 REVERT JUMPDEST POP CALLDATALOAD SWAP2 SWAP1 POP JUMP JUMPDEST DUP1 CALLDATALOAD PUSH1 0x1 PUSH1 0x1 PUSH1 0xA0 SHL SUB DUP2 AND DUP2 EQ PUSH2 0x1306 JUMPI PUSH1 0x0 DUP1 REVERT JUMPDEST SWAP2 SWAP1 POP JUMP JUMPDEST PUSH1 0x0 DUP1 PUSH1 0x0 DUP1 PUSH1 0x60 DUP6 DUP8 SUB SLT ISZERO PUSH2 0x1321 JUMPI PUSH1 0x0 DUP1 REVERT JUMPDEST PUSH2 0x132A DUP6 PUSH2 0x12EF JUMP JUMPDEST SWAP4 POP PUSH1 0x20 DUP6 ADD CALLDATALOAD SWAP3 POP PUSH1 0x40 DUP6 ADD CALLDATALOAD PUSH8 0xFFFFFFFFFFFFFFFF DUP1 DUP3 GT ISZERO PUSH2 0x134E JUMPI PUSH1 0x0 DUP1 REVERT JUMPDEST DUP2 DUP8 ADD SWAP2 POP DUP8 PUSH1 0x1F DUP4 ADD SLT PUSH2 0x1362 JUMPI PUSH1 0x0 DUP1 REVERT JUMPDEST DUP2 CALLDATALOAD DUP2 DUP2 GT ISZERO PUSH2 0x1371 JUMPI PUSH1 0x0 DUP1 REVERT JUMPDEST DUP9 PUSH1 0x20 DUP3 DUP6 ADD ADD GT ISZERO PUSH2 0x1383 JUMPI PUSH1 0x0 DUP1 REVERT JUMPDEST SWAP6 SWAP9 SWAP5 SWAP8 POP POP PUSH1 0x20 ADD SWAP5 POP POP POP JUMP JUMPDEST PUSH1 0x0 PUSH1 0x20 DUP3 DUP5 SUB SLT ISZERO PUSH2 0x13A4 JUMPI PUSH1 0x0 DUP1 REVERT JUMPDEST PUSH2 0x13AD DUP3 PUSH2 0x12EF JUMP JUMPDEST SWAP4 SWAP3 POP POP POP JUMP JUMPDEST PUSH1 0x0 DUP2 MLOAD DUP1 DUP5 MSTORE PUSH1 0x0 JUMPDEST DUP2 DUP2 LT ISZERO PUSH2 0x13DA JUMPI PUSH1 0x20 DUP2 DUP6 ADD DUP2 ADD MLOAD DUP7 DUP4 ADD DUP3 ADD MSTORE ADD PUSH2 0x13BE JUMP JUMPDEST POP PUSH1 0x0 PUSH1 0x20 DUP3 DUP7 ADD ADD MSTORE PUSH1 0x20 PUSH1 0x1F NOT PUSH1 0x1F DUP4 ADD AND DUP6 ADD ADD SWAP2 POP POP SWAP3 SWAP2 POP POP JUMP JUMPDEST PUSH1 0x1 DUP1 PUSH1 0xA0 SHL SUB DUP7 AND DUP2 MSTORE DUP5 PUSH1 0x20 DUP3 ADD MSTORE DUP4 ISZERO ISZERO PUSH1 0x40 DUP3 ADD MSTORE DUP3 PUSH1 0x60 DUP3 ADD MSTORE PUSH1 0xA0 PUSH1 0x80 DUP3 ADD MSTORE PUSH1 0x0 PUSH2 0x142F PUSH1 0xA0 DUP4 ADD DUP5 PUSH2 0x13B4 JUMP JUMPDEST SWAP8 SWAP7 POP POP POP POP POP POP POP JUMP JUMPDEST PUSH1 0x0 DUP1 PUSH1 0x40 DUP4 DUP6 SUB SLT ISZERO PUSH2 0x144D JUMPI PUSH1 0x0 DUP1 REVERT JUMPDEST DUP3 CALLDATALOAD SWAP2 POP PUSH2 0x145D PUSH1 0x20 DUP5 ADD PUSH2 0x12EF JUMP JUMPDEST SWAP1 POP SWAP3 POP SWAP3 SWAP1 POP JUMP JUMPDEST PUSH1 0x1 DUP1 PUSH1 0xA0 SHL SUB DUP8 AND DUP2 MSTORE DUP6 PUSH1 0x20 DUP3 ADD MSTORE DUP5 ISZERO ISZERO PUSH1 0x40 DUP3 ADD MSTORE DUP4 PUSH1 0x60 DUP3 ADD MSTORE PUSH1 0xC0 PUSH1 0x80 DUP3 ADD MSTORE PUSH1 0x0 PUSH2 0x149B PUSH1 0xC0 DUP4 ADD DUP6 PUSH2 0x13B4 JUMP JUMPDEST SWAP1 POP DUP3 ISZERO ISZERO PUSH1 0xA0 DUP4 ADD MSTORE SWAP8 SWAP7 POP POP POP POP POP POP POP JUMP JUMPDEST PUSH1 0x20 DUP1 DUP3 MSTORE DUP3 MLOAD DUP3 DUP3 ADD DUP2 SWAP1 MSTORE PUSH1 0x0 SWAP2 SWAP1 DUP5 DUP3 ADD SWAP1 PUSH1 0x40 DUP6 ADD SWAP1 DUP5 JUMPDEST DUP2 DUP2 LT ISZERO PUSH2 0x14F1 JUMPI DUP4 MLOAD PUSH1 0x1 PUSH1 0x1 PUSH1 0xA0 SHL SUB AND DUP4 MSTORE SWAP3 DUP5 ADD SWAP3 SWAP2 DUP5 ADD SWAP2 PUSH1 0x1 ADD PUSH2 0x14CC JUMP JUMPDEST POP SWAP1 SWAP7 SWAP6 POP POP POP POP POP POP JUMP JUMPDEST PUSH4 0x4E487B71 PUSH1 0xE0 SHL PUSH1 0x0 MSTORE PUSH1 0x32 PUSH1 0x4 MSTORE PUSH1 0x24 PUSH1 0x0 REVERT JUMPDEST PUSH4 0x4E487B71 PUSH1 0xE0 SHL PUSH1 0x0 MSTORE PUSH1 0x41 PUSH1 0x4 MSTORE PUSH1 0x24 PUSH1 0x0 REVERT JUMPDEST PUSH1 0x1 DUP2 DUP2 SHR SWAP1 DUP3 AND DUP1 PUSH2 0x153D JUMPI PUSH1 0x7F DUP3 AND SWAP2 POP JUMPDEST PUSH1 0x20 DUP3 LT DUP2 SUB PUSH2 0x1079 JUMPI PUSH4 0x4E487B71 PUSH1 0xE0 SHL PUSH1 0x0 MSTORE PUSH1 0x22 PUSH1 0x4 MSTORE PUSH1 0x24 PUSH1 0x0 REVERT JUMPDEST PUSH1 0x1F DUP3 GT ISZERO PUSH2 0x15A7 JUMPI PUSH1 0x0 DUP2 DUP2 MSTORE PUSH1 0x20 DUP2 KECCAK256 PUSH1 0x1F DUP6 ADD PUSH1 0x5 SHR DUP2 ADD PUSH1 0x20 DUP7 LT ISZERO PUSH2 0x1584 JUMPI POP DUP1 JUMPDEST PUSH1 0x1F DUP6 ADD PUSH1 0x5 SHR DUP3 ADD SWAP2 POP JUMPDEST DUP2 DUP2 LT ISZERO PUSH2 0x15A3 JUMPI DUP3 DUP2 SSTORE PUSH1 0x1 ADD PUSH2 0x1590 JUMP JUMPDEST POP POP POP JUMPDEST POP POP POP JUMP JUMPDEST DUP2 MLOAD PUSH8 0xFFFFFFFFFFFFFFFF DUP2 GT ISZERO PUSH2 0x15C6 JUMPI PUSH2 0x15C6 PUSH2 0x1513 JUMP JUMPDEST PUSH2 0x15DA DUP2 PUSH2 0x15D4 DUP5 SLOAD PUSH2 0x1529 JUMP JUMPDEST DUP5 PUSH2 0x155D JUMP JUMPDEST PUSH1 0x20 DUP1 PUSH1 0x1F DUP4 GT PUSH1 0x1 DUP2 EQ PUSH2 0x160F JUMPI PUSH1 0x0 DUP5 ISZERO PUSH2 0x15F7 JUMPI POP DUP6 DUP4 ADD MLOAD JUMPDEST PUSH1 0x0 NOT PUSH1 0x3 DUP7 SWAP1 SHL SHR NOT AND PUSH1 0x1 DUP6 SWAP1 SHL OR DUP6 SSTORE PUSH2 0x15A3 JUMP JUMPDEST PUSH1 0x0 DUP6 DUP2 MSTORE PUSH1 0x20 DUP2 KECCAK256 PUSH1 0x1F NOT DUP7 AND SWAP2 JUMPDEST DUP3 DUP2 LT ISZERO PUSH2 0x163E JUMPI DUP9 DUP7 ADD MLOAD DUP3 SSTORE SWAP5 DUP5 ADD SWAP5 PUSH1 0x1 SWAP1 SWAP2 ADD SWAP1 DUP5 ADD PUSH2 0x161F JUMP JUMPDEST POP DUP6 DUP3 LT ISZERO PUSH2 0x165C JUMPI DUP8 DUP6 ADD MLOAD PUSH1 0x0 NOT PUSH1 0x3 DUP9 SWAP1 SHL PUSH1 0xF8 AND SHR NOT AND DUP2 SSTORE JUMPDEST POP POP POP POP POP PUSH1 0x1 SWAP1 DUP2 SHL ADD SWAP1 SSTORE POP JUMP JUMPDEST PUSH1 0x1 PUSH1 0x1 PUSH1 0xA0 SHL SUB DUP6 AND DUP2 MSTORE PUSH1 0x20 DUP2 ADD DUP5 SWAP1 MSTORE PUSH1 0x60 PUSH1 0x40 DUP3 ADD DUP2 SWAP1 MSTORE DUP2 ADD DUP3 SWAP1 MSTORE DUP2 DUP4 PUSH1 0x80 DUP4 ADD CALLDATACOPY PUSH1 0x0 DUP2 DUP4 ADD PUSH1 0x80 SWAP1 DUP2 ADD SWAP2 SWAP1 SWAP2 MSTORE PUSH1 0x1F SWAP1 SWAP3 ADD PUSH1 0x1F NOT AND ADD ADD SWAP4 SWAP3 POP POP POP JUMP JUMPDEST PUSH4 0x4E487B71 PUSH1 0xE0 SHL PUSH1 0x0 MSTORE PUSH1 0x11 PUSH1 0x4 MSTORE PUSH1 0x24 PUSH1 0x0 REVERT JUMPDEST DUP1 DUP3 ADD DUP1 DUP3 GT ISZERO PUSH2 0xBFB JUMPI PUSH2 0xBFB PUSH2 0x16B4 JUMP JUMPDEST DUP2 DUP2 SUB DUP2 DUP2 GT ISZERO PUSH2 0xBFB JUMPI PUSH2 0xBFB PUSH2 0x16B4 JUMP JUMPDEST PUSH1 0x0 PUSH1 0x1 DUP3 ADD PUSH2 0x1702 JUMPI PUSH2 0x1702 PUSH2 0x16B4 JUMP JUMPDEST POP PUSH1 0x1 ADD SWAP1 JUMP JUMPDEST PUSH1 0x0 DUP1 DUP4 SLOAD PUSH2 0x1717 DUP2 PUSH2 0x1529 JUMP JUMPDEST PUSH1 0x1 DUP3 DUP2 AND DUP1 ISZERO PUSH2 0x172F JUMPI PUSH1 0x1 DUP2 EQ PUSH2 0x1744 JUMPI PUSH2 0x1773 JUMP JUMPDEST PUSH1 0xFF NOT DUP5 AND DUP8 MSTORE DUP3 ISZERO ISZERO DUP4 MUL DUP8 ADD SWAP5 POP PUSH2 0x1773 JUMP JUMPDEST DUP8 PUSH1 0x0 MSTORE PUSH1 0x20 DUP1 PUSH1 0x0 KECCAK256 PUSH1 0x0 JUMPDEST DUP6 DUP2 LT ISZERO PUSH2 0x176A JUMPI DUP2 SLOAD DUP11 DUP3 ADD MSTORE SWAP1 DUP5 ADD SWAP1 DUP3 ADD PUSH2 0x1751 JUMP JUMPDEST POP POP POP DUP3 DUP8 ADD SWAP5 POP JUMPDEST POP SWAP3 SWAP7 SWAP6 POP POP POP POP POP POP JUMP INVALID LOG2 PUSH5 0x6970667358 0x22 SLT KECCAK256 DUP14 STOP PC 0xA6 PUSH5 0x9E2C48E40E SWAP7 0xBF 0xFC LOG0 PREVRANDAO 0xDB 0xE7 0xC7 0xC6 PUSH16 0x19755AB868ABC0D937E0FDAF64736F6C PUSH4 0x43000813 STOP CALLER "},"methodIdentifiers":{"approvalCount(uint256)":"40ad01ea","approveTransaction(uint256)":"242232d1","approved(uint256,address)":"8253951a","deleteTransaction(uint256)":"00e9c006","executeTransaction(uint256)":"ee22610b","getApprovers(uint256)":"c65df794","getBalance()":"12065fe0","getOwners()":"a0e67e2b","getTransaction(uint256)":"33ea3dc8","getTransactionCount()":"2e7700f0","isApproved(uint256,address)":"56c31637","isOwner(address)":"2f54bf6e","newTransaction(address,uint256,bytes)":"117c7a56","owners(uint256)":"025e7c27","requiredApprovals()":"99c1aadc","requiredConfirmations()":"82e717f7","revokeApproval(uint256)":"b1e130fc","transactions(uint256)":"9ace38c2"}}}}}