{"contracts/SharpWallet.sol":{"SharpWallet":{"abi":[{"inputs":[{"internalType":"address[]","name":"_owners","type":"address[]"},{"internalType":"uint256","name":"_requiredApprovals","type":"uint256"}],"stateMutability":"nonpayable","type":"constructor"},{"inputs":[],"name":"NotOwner","type":"error"},{"inputs":[],"name":"TxAlreadyApproved","type":"error"},{"inputs":[],"name":"TxAlreadyExecuted","type":"error"},{"inputs":[],"name":"TxDoesNotExist","type":"error"},{"anonymous":false,"inputs":[{"indexed":true,"internalType":"uint256","name":"txId","type":"uint256"},{"indexed":true,"internalType":"address","name":"owner","type":"address"}],"name":"ApprovalRevoked","type":"event"},{"anonymous":false,"inputs":[{"indexed":true,"internalType":"address","name":"sender","type":"address"},{"indexed":false,"internalType":"uint256","name":"amount","type":"uint256"}],"name":"Deposit","type":"event"},{"anonymous":false,"inputs":[{"indexed":true,"internalType":"address","name":"newOwner","type":"address"}],"name":"OwnerAdded","type":"event"},{"anonymous":false,"inputs":[{"indexed":true,"internalType":"address","name":"oldOwner","type":"address"}],"name":"OwnerRemoved","type":"event"},{"anonymous":false,"inputs":[{"indexed":false,"internalType":"uint256","name":"newRequirement","type":"uint256"}],"name":"RequirementChanged","type":"event"},{"anonymous":false,"inputs":[{"indexed":true,"internalType":"uint256","name":"txId","type":"uint256"},{"indexed":true,"internalType":"address","name":"owner","type":"address"}],"name":"TransactionApproved","type":"event"},{"anonymous":false,"inputs":[{"indexed":true,"internalType":"uint256","name":"txId","type":"uint256"},{"indexed":true,"internalType":"address","name":"executor","type":"address"}],"name":"TransactionExecuted","type":"event"},{"anonymous":false,"inputs":[{"indexed":true,"internalType":"uint256","name":"txId","type":"uint256"},{"indexed":true,"internalType":"address","name":"proposer","type":"address"},{"indexed":false,"internalType":"address","name":"to","type":"address"},{"indexed":false,"internalType":"uint256","name":"value","type":"uint256"},{"indexed":false,"internalType":"bytes","name":"data","type":"bytes"}],"name":"TransactionSubmitted","type":"event"},{"stateMutability":"payable","type":"fallback"},{"inputs":[{"internalType":"uint256","name":"txId","type":"uint256"}],"name":"approvalCount","outputs":[{"internalType":"uint256","name":"","type":"uint256"}],"stateMutability":"view","type":"function"},{"inputs":[{"internalType":"uint256","name":"txId","type":"uint256"}],"name":"approveTransaction","outputs":[],"stateMutability":"nonpayable","type":"function"},{"inputs":[{"internalType":"uint256","name":"","type":"uint256"},{"internalType":"address","name":"","type":"address"}],"name":"approved","outputs":[{"internalType":"bool","name":"","type":"bool"}],"stateMutability":"view","type":"function"},{"inputs":[{"internalType":"uint256","name":"txId","type":"uint256"}],"name":"executeTransaction","outputs":[],"stateMutability":"nonpayable","type":"function"},{"inputs":[],"name":"getBalance","outputs":[{"internalType":"uint256","name":"","type":"uint256"}],"stateMutability":"view","type":"function"},{"inputs":[],"name":"getOwners","outputs":[{"internalType":"address[]","name":"","type":"address[]"}],"stateMutability":"view","type":"function"},{"inputs":[{"internalType":"uint256","name":"txId","type":"uint256"}],"name":"getTransaction","outputs":[{"internalType":"address","name":"to","type":"address"},{"internalType":"uint256","name":"value","type":"uint256"},{"internalType":"bool","name":"executed","type":"bool"},{"internalType":"uint256","name":"numConfirmations","type":"uint256"},{"internalType":"bytes","name":"data","type":"bytes"}],"stateMutability":"view","type":"function"},{"inputs":[],"name":"getTransactionCount","outputs":[{"internalType":"uint256","name":"","type":"uint256"}],"stateMutability":"view","type":"function"},{"inputs":[{"internalType":"uint256","name":"txId","type":"uint256"},{"internalType":"address","name":"owner","type":"address"}],"name":"isApproved","outputs":[{"internalType":"bool","name":"","type":"bool"}],"stateMutability":"view","type":"function"},{"inputs":[{"internalType":"address","name":"","type":"address"}],"name":"isOwner","outputs":[{"internalType":"bool","name":"","type":"bool"}],"stateMutability":"view","type":"function"},{"inputs":[{"internalType":"address","name":"to","type":"address"},{"internalType":"uint256","name":"value","type":"uint256"},{"internalType":"bytes","name":"data","type":"bytes"}],"name":"newTransaction","outputs":[{"internalType":"uint256","name":"txId","type":"uint256"}],"stateMutability":"nonpayable","type":"function"},{"inputs":[{"internalType":"uint256","name":"","type":"uint256"}],"name":"owners","outputs":[{"internalType":"address","name":"","type":"address"}],"stateMutability":"view","type":"function"},{"inputs":[],"name":"requiredApprovals","outputs":[{"internalType":"uint256","name":"","type":"uint256"}],"stateMutability":"view","type":"function"},{"inputs":[],"name":"requiredConfirmations","outputs":[{"internalType":"uint256","name":"","type":"uint256"}],"stateMutability":"view","type":"function"},{"inputs":[{"internalType":"uint256","name":"txId","type":"uint256"}],"name":"revokeApproval","outputs":[],"stateMutability":"nonpayable","type":"function"},{"inputs":[{"internalType":"uint256","name":"","type":"uint256"}],"name":"transactions","outputs":[{"internalType":"address","name":"to","type":"address"},{"internalType":"uint256","name":"value","type":"uint256"},{"internalType":"bool","name":"executed","type":"bool"},{"internalType":"uint256","name":"numConfirmations","type":"uint256"},{"internalType":"bytes","name":"data","type":"bytes"}],"stateMutability":"view","type":"function"},{"stateMutability":"payable","type":"receive"}],"evm":{"bytecode":{"linkReferences":{},"object":"60806040523480156200001157600080fd5b50604051620015b0380380620015b0833981016040819052620000349162000280565b60008251116200007d5760405162461bcd60e51b815260206004820152600f60248201526e13dddb995c9cc81c995c5d5a5c9959608a1b60448201526064015b60405180910390fd5b6000811180156200008f575081518111155b620000dd5760405162461bcd60e51b815260206004820152601c60248201527f496e76616c696420617070726f76616c20726571756972656d656e7400000000604482015260640162000074565b60005b8251811015620002425760008382815181106200010157620001016200035a565b6020026020010151905060006001600160a01b0316816001600160a01b0316036200016f5760405162461bcd60e51b815260206004820152601560248201527f496e76616c6964206f776e657220616464726573730000000000000000000000604482015260640162000074565b6001600160a01b03811660009081526001602052604090205460ff1615620001cd5760405162461bcd60e51b815260206004820152601060248201526f4f776e6572206e6f7420756e6971756560801b604482015260640162000074565b6001600160a01b031660008181526001602081905260408220805460ff191682179055815490810182559080527f290decd9548b62a8d60345a988386fc84ba6bc95484008f6362f93160ef3e5630180546001600160a01b031916909117905580620002398162000370565b915050620000e0565b506002555062000398565b634e487b7160e01b600052604160045260246000fd5b80516001600160a01b03811681146200027b57600080fd5b919050565b600080604083850312156200029457600080fd5b82516001600160401b0380821115620002ac57600080fd5b818501915085601f830112620002c157600080fd5b8151602082821115620002d857620002d86200024d565b8160051b604051601f19603f830116810181811086821117156200030057620003006200024d565b6040529283528183019350848101820192898411156200031f57600080fd5b948201945b838610156200034857620003388662000263565b8552948201949382019362000324565b97909101519698969750505050505050565b634e487b7160e01b600052603260045260246000fd5b6000600182016200039157634e487b7160e01b600052601160045260246000fd5b5060010190565b61120880620003a86000396000f3fe6080604052600436106100f75760003560e01c806356c316371161008a5780639ace38c2116100595780639ace38c214610332578063a0e67e2b14610352578063b1e130fc14610374578063ee22610b1461039457610134565b806356c31637146102ac5780638253951a146102cc57806382e717f71461030757806399c1aadc1461031d57610134565b80632e7700f0116100c65780632e7700f0146102065780632f54bf6e1461021b57806333ea3dc81461025b57806340ad01ea1461028c57610134565b8063025e7c2714610166578063117c7a56146101a357806312065fe0146101d1578063242232d1146101e457610134565b366101345760405134815233907fe1fffcc4923d04b559f4d29a8bfc6cda04eb5b0d3c460751c2402c5c5cc9109c906020015b60405180910390a2005b60405134815233907fe1fffcc4923d04b559f4d29a8bfc6cda04eb5b0d3c460751c2402c5c5cc9109c9060200161012a565b34801561017257600080fd5b50610186610181366004610d97565b6103b4565b6040516001600160a01b0390911681526020015b60405180910390f35b3480156101af57600080fd5b506101c36101be366004610dcc565b6103de565b60405190815260200161019a565b3480156101dd57600080fd5b50476101c3565b3480156101f057600080fd5b506102046101ff366004610d97565b6105ea565b005b34801561021257600080fd5b506003546101c3565b34801561022757600080fd5b5061024b610236366004610e53565b60016020526000908152604090205460ff1681565b604051901515815260200161019a565b34801561026757600080fd5b5061027b610276366004610d97565b610757565b60405161019a959493929190610e75565b34801561029857600080fd5b506101c36102a7366004610d97565b61085c565b3480156102b857600080fd5b5061024b6102c7366004610eea565b61088a565b3480156102d857600080fd5b5061024b6102e7366004610eea565b600460209081526000928352604080842090915290825290205460ff1681565b34801561031357600080fd5b506101c360025481565b34801561032957600080fd5b506002546101c3565b34801561033e57600080fd5b5061027b61034d366004610d97565b6108b7565b34801561035e57600080fd5b50610367610992565b60405161019a9190610f16565b34801561038057600080fd5b5061020461038f366004610d97565b6109f4565b3480156103a057600080fd5b506102046103af366004610d97565b610b8a565b600081815481106103c457600080fd5b6000918252602090912001546001600160a01b0316905081565b3360009081526001602052604081205460ff1661040e576040516330cd747160e01b815260040160405180910390fd5b6001600160a01b0385166104625760405162461bcd60e51b8152602060048201526016602482015275496e76616c696420746172676574206164647265737360501b60448201526064015b60405180910390fd5b6110008211156104a95760405162461bcd60e51b815260206004820152601260248201527143616c6c6461746120746f6f206c6172676560701b6044820152606401610459565b600380549050905060036040518060a00160405280876001600160a01b031681526020018681526020016000151581526020016000815260200185858080601f0160208091040260200160405190810160405280939291908181526020018383808284376000920182905250939094525050835460018082018655948252602091829020845160059092020180546001600160a01b0319166001600160a01b03909216919091178155908301519381019390935550604081015160028301805460ff191691151591909117905560608101516003830155608081015190919060048201906105979082611002565b505050336001600160a01b0316817f2ecf8c4571be1f8a0b1e6feaa711128f3f8038e97869aa59d0f595e21f50eaa0878787876040516105da94939291906110c2565b60405180910390a3949350505050565b3360009081526001602052604090205460ff1661061a576040516330cd747160e01b815260040160405180910390fd5b6003548190811061063e57604051639e1b596f60e01b815260040160405180910390fd5b81600381815481106106525761065261110a565b600091825260209091206002600590920201015460ff161561068757604051632ea945cf60e01b815260040160405180910390fd5b6000838152600460209081526040808320338452909152902054839060ff16156106c457604051635db7ec0d60e01b815260040160405180910390fd5b60008481526004602090815260408083203384529091529020805460ff1916600190811790915560038054869081106106ff576106ff61110a565b9060005260206000209060050201600301600082825461071f9190611136565b9091555050604051339085907f924813d717e221b5f46dcd8a56da1679e4612584ab3237d55e5faabf6f6a307990600090a350505050565b60008060008060606000600387815481106107745761077461110a565b906000526020600020906005020190508060000160009054906101000a90046001600160a01b031681600101548260020160009054906101000a900460ff168360030154846004018080546107c890610f79565b80601f01602080910402602001604051908101604052809291908181526020018280546107f490610f79565b80156108415780601f1061081657610100808354040283529160200191610841565b820191906000526020600020905b81548152906001019060200180831161082457829003601f168201915b50505050509050955095509550955095505091939590929450565b6000600382815481106108715761087161110a565b9060005260206000209060050201600301549050919050565b60008281526004602090815260408083206001600160a01b038516845290915290205460ff165b92915050565b600381815481106108c757600080fd5b6000918252602090912060059091020180546001820154600283015460038401546004850180546001600160a01b039095169650929460ff9092169390929061090f90610f79565b80601f016020809104026020016040519081016040528092919081815260200182805461093b90610f79565b80156109885780601f1061095d57610100808354040283529160200191610988565b820191906000526020600020905b81548152906001019060200180831161096b57829003601f168201915b5050505050905085565b606060008054806020026020016040519081016040528092919081815260200182805480156109ea57602002820191906000526020600020905b81546001600160a01b031681526001909101906020018083116109cc575b5050505050905090565b3360009081526001602052604090205460ff16610a24576040516330cd747160e01b815260040160405180910390fd5b60035481908110610a4857604051639e1b596f60e01b815260040160405180910390fd5b8160038181548110610a5c57610a5c61110a565b600091825260209091206002600590920201015460ff1615610a9157604051632ea945cf60e01b815260040160405180910390fd5b600083815260046020908152604080832033845290915290205460ff16610afa5760405162461bcd60e51b815260206004820152601860248201527f5472616e73616374696f6e206e6f7420617070726f76656400000000000000006044820152606401610459565b60008381526004602090815260408083203384529091529020805460ff19169055600380546001919085908110610b3357610b3361110a565b90600052602060002090600502016003016000828254610b539190611149565b9091555050604051339084907f430c786ad6c97d1739e88415e23257a88a0a989b6bdc4e9e415b72bb53d869a890600090a3505050565b3360009081526001602052604090205460ff16610bba576040516330cd747160e01b815260040160405180910390fd5b60035481908110610bde57604051639e1b596f60e01b815260040160405180910390fd5b8160038181548110610bf257610bf261110a565b600091825260209091206002600590920201015460ff1615610c2757604051632ea945cf60e01b815260040160405180910390fd5b600060038481548110610c3c57610c3c61110a565b9060005260206000209060050201905060025481600301541015610c995760405162461bcd60e51b81526020600482015260146024820152734e6f7420656e6f75676820617070726f76616c7360601b6044820152606401610459565b60028101805460ff191660019081179091558154908201546040516000926001600160a01b03169190610cd090600486019061115c565b60006040518083038185875af1925050503d8060008114610d0d576040519150601f19603f3d011682016040523d82523d6000602084013e610d12565b606091505b5050905080610d635760405162461bcd60e51b815260206004820152601c60248201527f5472616e73616374696f6e20657865637574696f6e206661696c6564000000006044820152606401610459565b604051339086907fefc13bdcf58f184ea7cae26b499fb33b539e01d0197cea456f3ada289b8cf19b90600090a35050505050565b600060208284031215610da957600080fd5b5035919050565b80356001600160a01b0381168114610dc757600080fd5b919050565b60008060008060608587031215610de257600080fd5b610deb85610db0565b935060208501359250604085013567ffffffffffffffff80821115610e0f57600080fd5b818701915087601f830112610e2357600080fd5b813581811115610e3257600080fd5b886020828501011115610e4457600080fd5b95989497505060200194505050565b600060208284031215610e6557600080fd5b610e6e82610db0565b9392505050565b60018060a01b0386168152600060208681840152851515604084015284606084015260a0608084015283518060a085015260005b81811015610ec55785810183015185820160c001528201610ea9565b50600060c0828601015260c0601f19601f830116850101925050509695505050505050565b60008060408385031215610efd57600080fd5b82359150610f0d60208401610db0565b90509250929050565b6020808252825182820181905260009190848201906040850190845b81811015610f575783516001600160a01b031683529284019291840191600101610f32565b50909695505050505050565b634e487b7160e01b600052604160045260246000fd5b600181811c90821680610f8d57607f821691505b602082108103610fad57634e487b7160e01b600052602260045260246000fd5b50919050565b601f821115610ffd57600081815260208120601f850160051c81016020861015610fda5750805b601f850160051c820191505b81811015610ff957828155600101610fe6565b5050505b505050565b815167ffffffffffffffff81111561101c5761101c610f63565b6110308161102a8454610f79565b84610fb3565b602080601f831160018114611065576000841561104d5750858301515b600019600386901b1c1916600185901b178555610ff9565b600085815260208120601f198616915b8281101561109457888601518255948401946001909101908401611075565b50858210156110b25787850151600019600388901b60f8161c191681555b5050505050600190811b01905550565b6001600160a01b0385168152602081018490526060604082018190528101829052818360808301376000818301608090810191909152601f909201601f191601019392505050565b634e487b7160e01b600052603260045260246000fd5b634e487b7160e01b600052601160045260246000fd5b808201808211156108b1576108b1611120565b818103818111156108b1576108b1611120565b600080835461116a81610f79565b600182811680156111825760018114611197576111c6565b60ff19841687528215158302870194506111c6565b8760005260208060002060005b858110156111bd5781548a8201529084019082016111a4565b50505082870194505b5092969550505050505056fea26469706673582212202f353e0d2ad831f3797454453be40ab98ccedd9839fd45d1878a214de9e7aa7564736f6c63430008130033","opcodes":"PUSH1 0x80 PUSH1 0x40 MSTORE CALLVALUE DUP1 ISZERO PUSH3 0x11 JUMPI PUSH1 0x0 DUP1 REVERT JUMPDEST POP PUSH1 0x40 MLOAD PUSH3 0x15B0 CODESIZE SUB DUP1 PUSH3 0x15B0 DUP4 CODECOPY DUP2 ADD PUSH1 0x40 DUP2 SWAP1 MSTORE PUSH3 0x34 SWAP2 PUSH3 0x280 JUMP JUMPDEST PUSH1 0x0 DUP3 MLOAD GT PUSH3 0x7D JUMPI PUSH1 0x40 MLOAD PUSH3 0x461BCD PUSH1 0xE5 SHL DUP2 MSTORE PUSH1 0x20 PUSH1 0x4 DUP3 ADD MSTORE PUSH1 0xF PUSH1 0x24 DUP3 ADD MSTORE PUSH15 0x13DDDB995C9CC81C995C5D5A5C9959 PUSH1 0x8A SHL PUSH1 0x44 DUP3 ADD MSTORE PUSH1 0x64 ADD JUMPDEST PUSH1 0x40 MLOAD DUP1 SWAP2 SUB SWAP1 REVERT JUMPDEST PUSH1 0x0 DUP2 GT DUP1 ISZERO PUSH3 0x8F JUMPI POP DUP2 MLOAD DUP2 GT ISZERO JUMPDEST PUSH3 0xDD JUMPI PUSH1 0x40 MLOAD PUSH3 0x461BCD PUSH1 0xE5 SHL DUP2 MSTORE PUSH1 0x20 PUSH1 0x4 DUP3 ADD MSTORE PUSH1 0x1C PUSH1 0x24 DUP3 ADD MSTORE PUSH32 0x496E76616C696420617070726F76616C20726571756972656D656E7400000000 PUSH1 0x44 DUP3 ADD MSTORE PUSH1 0x64 ADD PUSH3 0x74 JUMP JUMPDEST PUSH1 0x0 JUMPDEST DUP3 MLOAD DUP2 LT ISZERO PUSH3 0x242 JUMPI PUSH1 0x0 DUP4 DUP3 DUP2 MLOAD DUP2 LT PUSH3 0x101 JUMPI PUSH3 0x101 PUSH3 0x35A JUMP JUMPDEST PUSH1 0x20 MUL PUSH1 0x20 ADD ADD MLOAD SWAP1 POP PUSH1 0x0 PUSH1 0x1 PUSH1 0x1 PUSH1 0xA0 SHL SUB AND DUP2 PUSH1 0x1 PUSH1 0x1 PUSH1 0xA0 SHL SUB AND SUB PUSH3 0x16F JUMPI PUSH1 0x40 MLOAD PUSH3 0x461BCD PUSH1 0xE5 SHL DUP2 MSTORE PUSH1 0x20 PUSH1 0x4 DUP3 ADD MSTORE PUSH1 0x15 PUSH1 0x24 DUP3 ADD MSTORE PUSH32 0x496E76616C6964206F776E657220616464726573730000000000000000000000 PUSH1 0x44 DUP3 ADD MSTORE PUSH1 0x64 ADD PUSH3 0x74 JUMP JUMPDEST PUSH1 0x1 PUSH1 0x1 PUSH1 0xA0 SHL SUB DUP2 AND PUSH1 0x0 SWAP1 DUP2 MSTORE PUSH1 0x1 PUSH1 0x20 MSTORE PUSH1 0x40 SWAP1 KECCAK256 SLOAD PUSH1 0xFF AND ISZERO PUSH3 0x1CD JUMPI PUSH1 0x40 MLOAD PUSH3 0x461BCD PUSH1 0xE5 SHL DUP2 MSTORE PUSH1 0x20 PUSH1 0x4 DUP3 ADD MSTORE PUSH1 0x10 PUSH1 0x24 DUP3 ADD MSTORE PUSH16 0x4F776E6572206E6F7420756E69717565 PUSH1 0x80 SHL PUSH1 0x44 DUP3 ADD MSTORE PUSH1 0x64 ADD PUSH3 0x74 JUMP JUMPDEST PUSH1 0x1 PUSH1 0x1 PUSH1 0xA0 SHL SUB AND PUSH1 0x0 DUP2 DUP2 MSTORE PUSH1 0x1 PUSH1 0x20 DUP2 SWAP1 MSTORE PUSH1 0x40 DUP3 KECCAK256 DUP1 SLOAD PUSH1 0xFF NOT AND DUP3 OR SWAP1 SSTORE DUP2 SLOAD SWAP1 DUP2 ADD DUP3 SSTORE SWAP1 DUP1 MSTORE PUSH32 0x290DECD9548B62A8D60345A988386FC84BA6BC95484008F6362F93160EF3E563 ADD DUP1 SLOAD PUSH1 0x1 PUSH1 0x1 PUSH1 0xA0 SHL SUB NOT AND SWAP1 SWAP2 OR SWAP1 SSTORE DUP1 PUSH3 0x239 DUP2 PUSH3 0x370 JUMP JUMPDEST SWAP2 POP POP PUSH3 0xE0 JUMP JUMPDEST POP PUSH1 0x2 SSTORE POP PUSH3 0x398 JUMP JUMPDEST PUSH4 0x4E487B71 PUSH1 0xE0 SHL PUSH1 0x0 MSTORE PUSH1 0x41 PUSH1 0x4 MSTORE PUSH1 0x24 PUSH1 0x0 REVERT JUMPDEST DUP1 MLOAD PUSH1 0x1 PUSH1 0x1 PUSH1 0xA0 SHL SUB DUP2 AND DUP2 EQ PUSH3 0x27B JUMPI PUSH1 0x0 DUP1 REVERT JUMPDEST SWAP2 SWAP1 POP JUMP JUMPDEST PUSH1 0x0 DUP1 PUSH1 0x40 DUP4 DUP6 SUB SLT ISZERO PUSH3 0x294 JUMPI PUSH1 0x0 DUP1 REVERT JUMPDEST DUP3 MLOAD PUSH1 0x1 PUSH1 0x1 PUSH1 0x40 SHL SUB DUP1 DUP3 GT ISZERO PUSH3 0x2AC JUMPI PUSH1 0x0 DUP1 REVERT JUMPDEST DUP2 DUP6 ADD SWAP2 POP DUP6 PUSH1 0x1F DUP4 ADD SLT PUSH3 0x2C1 JUMPI PUSH1 0x0 DUP1 REVERT JUMPDEST DUP2 MLOAD PUSH1 0x20 DUP3 DUP3 GT ISZERO PUSH3 0x2D8 JUMPI PUSH3 0x2D8 PUSH3 0x24D JUMP JUMPDEST DUP2 PUSH1 0x5 SHL PUSH1 0x40 MLOAD PUSH1 0x1F NOT PUSH1 0x3F DUP4 ADD AND DUP2 ADD DUP2 DUP2 LT DUP7 DUP3 GT OR ISZERO PUSH3 0x300 JUMPI PUSH3 0x300 PUSH3 0x24D JUMP JUMPDEST PUSH1 0x40 MSTORE SWAP3 DUP4 MSTORE DUP2 DUP4 ADD SWAP4 POP DUP5 DUP2 ADD DUP3 ADD SWAP3 DUP10 DUP5 GT ISZERO PUSH3 0x31F JUMPI PUSH1 0x0 DUP1 REVERT JUMPDEST SWAP5 DUP3 ADD SWAP5 JUMPDEST DUP4 DUP7 LT ISZERO PUSH3 0x348 JUMPI PUSH3 0x338 DUP7 PUSH3 0x263 JUMP JUMPDEST DUP6 MSTORE SWAP5 DUP3 ADD SWAP5 SWAP4 DUP3 ADD SWAP4 PUSH3 0x324 JUMP JUMPDEST SWAP8 SWAP1 SWAP2 ADD MLOAD SWAP7 SWAP9 SWAP7 SWAP8 POP POP POP POP POP POP POP JUMP JUMPDEST PUSH4 0x4E487B71 PUSH1 0xE0 SHL PUSH1 0x0 MSTORE PUSH1 0x32 PUSH1 0x4 MSTORE PUSH1 0x24 PUSH1 0x0 REVERT JUMPDEST PUSH1 0x0 PUSH1 0x1 DUP3 ADD PUSH3 0x391 JUMPI PUSH4 0x4E487B71 PUSH1 0xE0 SHL PUSH1 0x0 MSTORE PUSH1 0x11 PUSH1 0x4 MSTORE PUSH1 0x24 PUSH1 0x0 REVERT JUMPDEST POP PUSH1 0x1 ADD SWAP1 JUMP JUMPDEST PUSH2 0x1208 DUP1 PUSH3 0x3A8 PUSH1 0x0 CODECOPY PUSH1 0x0 RETURN INVALID PUSH1 0x80 PUSH1 0x40 MSTORE PUSH1 0x4 CALLDATASIZE LT PUSH2 0xF7 JUMPI PUSH1 0x0 CALLDATALOAD PUSH1 0xE0 SHR DUP1 PUSH4 0x56C31637 GT PUSH2 0x8A JUMPI DUP1 PUSH4 0x9ACE38C2 GT PUSH2 0x59 JUMPI DUP1 PUSH4 0x9ACE38C2 EQ PUSH2 0x332 JUMPI DUP1 PUSH4 0xA0E67E2B EQ PUSH2 0x352 JUMPI DUP1 PUSH4 0xB1E130FC EQ PUSH2 0x374 JUMPI DUP1 PUSH4 0xEE22610B EQ PUSH2 0x394 JUMPI PUSH2 0x134 JUMP JUMPDEST DUP1 PUSH4 0x56C31637 EQ PUSH2 0x2AC JUMPI DUP1 PUSH4 0x8253951A EQ PUSH2 0x2CC JUMPI DUP1 PUSH4 0x82E717F7 EQ PUSH2 0x307 JUMPI DUP1 PUSH4 0x99C1AADC EQ PUSH2 0x31D JUMPI PUSH2 0x134 JUMP JUMPDEST DUP1 PUSH4 0x2E7700F0 GT PUSH2 0xC6 JUMPI DUP1 PUSH4 0x2E7700F0 EQ PUSH2 0x206 JUMPI DUP1 PUSH4 0x2F54BF6E EQ PUSH2 0x21B JUMPI DUP1 PUSH4 0x33EA3DC8 EQ PUSH2 0x25B JUMPI DUP1 PUSH4 0x40AD01EA EQ PUSH2 0x28C JUMPI PUSH2 0x134 JUMP JUMPDEST DUP1 PUSH4 0x25E7C27 EQ PUSH2 0x166 JUMPI DUP1 PUSH4 0x117C7A56 EQ PUSH2 0x1A3 JUMPI DUP1 PUSH4 0x12065FE0 EQ PUSH2 0x1D1 JUMPI DUP1 PUSH4 0x242232D1 EQ PUSH2 0x1E4 JUMPI PUSH2 0x134 JUMP JUMPDEST CALLDATASIZE PUSH2 0x134 JUMPI PUSH1 0x40 MLOAD CALLVALUE DUP2 MSTORE CALLER SWAP1 PUSH32 0xE1FFFCC4923D04B559F4D29A8BFC6CDA04EB5B0D3C460751C2402C5C5CC9109C SWAP1 PUSH1 0x20 ADD JUMPDEST PUSH1 0x40 MLOAD DUP1 SWAP2 SUB SWAP1 LOG2 STOP JUMPDEST PUSH1 0x40 MLOAD CALLVALUE DUP2 MSTORE CALLER SWAP1 PUSH32 0xE1FFFCC4923D04B559F4D29A8BFC6CDA04EB5B0D3C460751C2402C5C5CC9109C SWAP1 PUSH1 0x20 ADD PUSH2 0x12A JUMP JUMPDEST CALLVALUE DUP1 ISZERO PUSH2 0x172 JUMPI PUSH1 0x0 DUP1 REVERT JUMPDEST POP PUSH2 0x186 PUSH2 0x181 CALLDATASIZE PUSH1 0x4 PUSH2 0xD97 JUMP JUMPDEST PUSH2 0x3B4 JUMP JUMPDEST PUSH1 0x40 MLOAD PUSH1 0x1 PUSH1 0x1 PUSH1 0xA0 SHL SUB SWAP1 SWAP2 AND DUP2 MSTORE PUSH1 0x20 ADD JUMPDEST PUSH1 0x40 MLOAD DUP1 SWAP2 SUB SWAP1 RETURN JUMPDEST CALLVALUE DUP1 ISZERO PUSH2 0x1AF JUMPI PUSH1 0x0 DUP1 REVERT JUMPDEST POP PUSH2 0x1C3 PUSH2 0x1BE CALLDATASIZE PUSH1 0x4 PUSH2 0xDCC JUMP JUMPDEST PUSH2 0x3DE JUMP JUMPDEST PUSH1 0x40 MLOAD SWAP1 DUP2 MSTORE PUSH1 0x20 ADD PUSH2 0x19A JUMP JUMPDEST CALLVALUE DUP1 ISZERO PUSH2 0x1DD JUMPI PUSH1 0x0 DUP1 REVERT JUMPDEST POP SELFBALANCE PUSH2 0x1C3 JUMP JUMPDEST CALLVALUE DUP1 ISZERO PUSH2 0x1F0 JUMPI PUSH1 0x0 DUP1 REVERT JUMPDEST POP PUSH2 0x204 PUSH2 0x1FF CALLDATASIZE PUSH1 0x4 PUSH2 0xD97 JUMP JUMPDEST PUSH2 0x5EA JUMP JUMPDEST STOP JUMPDEST CALLVALUE DUP1 ISZERO PUSH2 0x212 JUMPI PUSH1 0x0 DUP1 REVERT JUMPDEST POP PUSH1 0x3 SLOAD PUSH2 0x1C3 JUMP JUMPDEST CALLVALUE DUP1 ISZERO PUSH2 0x227 JUMPI PUSH1 0x0 DUP1 REVERT JUMPDEST POP PUSH2 0x24B PUSH2 0x236 CALLDATASIZE PUSH1 0x4 PUSH2 0xE53 JUMP JUMPDEST PUSH1 0x1 PUSH1 0x20 MSTORE PUSH1 0x0 SWAP1 DUP2 MSTORE PUSH1 0x40 SWAP1 KECCAK256 SLOAD PUSH1 0xFF AND DUP2 JUMP JUMPDEST PUSH1 0x40 MLOAD SWAP1 ISZERO ISZERO DUP2 MSTORE PUSH1 0x20 ADD PUSH2 0x19A JUMP JUMPDEST CALLVALUE DUP1 ISZERO PUSH2 0x267 JUMPI PUSH1 0x0 DUP1 REVERT JUMPDEST POP PUSH2 0x27B PUSH2 0x276 CALLDATASIZE PUSH1 0x4 PUSH2 0xD97 JUMP JUMPDEST PUSH2 0x757 JUMP JUMPDEST PUSH1 0x40 MLOAD PUSH2 0x19A SWAP6 SWAP5 SWAP4 SWAP3 SWAP2 SWAP1 PUSH2 0xE75 JUMP JUMPDEST CALLVALUE DUP1 ISZERO PUSH2 0x298 JUMPI PUSH1 0x0 DUP1 REVERT JUMPDEST POP PUSH2 0x1C3 PUSH2 0x2A7 CALLDATASIZE PUSH1 0x4 PUSH2 0xD97 JUMP JUMPDEST PUSH2 0x85C JUMP JUMPDEST CALLVALUE DUP1 ISZERO PUSH2 0x2B8 JUMPI PUSH1 0x0 DUP1 REVERT JUMPDEST POP PUSH2 0x24B PUSH2 0x2C7 CALLDATASIZE PUSH1 0x4 PUSH2 0xEEA JUMP JUMPDEST PUSH2 0x88A JUMP JUMPDEST CALLVALUE DUP1 ISZERO PUSH2 0x2D8 JUMPI PUSH1 0x0 DUP1 REVERT JUMPDEST POP PUSH2 0x24B PUSH2 0x2E7 CALLDATASIZE PUSH1 0x4 PUSH2 0xEEA JUMP JUMPDEST PUSH1 0x4 PUSH1 0x20 SWAP1 DUP2 MSTORE PUSH1 0x0 SWAP3 DUP4 MSTORE PUSH1 0x40 DUP1 DUP5 KECCAK256 SWAP1 SWAP2 MSTORE SWAP1 DUP3 MSTORE SWAP1 KECCAK256 SLOAD PUSH1 0xFF AND DUP2 JUMP JUMPDEST CALLVALUE DUP1 ISZERO PUSH2 0x313 JUMPI PUSH1 0x0 DUP1 REVERT JUMPDEST POP PUSH2 0x1C3 PUSH1 0x2 SLOAD DUP2 JUMP JUMPDEST CALLVALUE DUP1 ISZERO PUSH2 0x329 JUMPI PUSH1 0x0 DUP1 REVERT JUMPDEST POP PUSH1 0x2 SLOAD PUSH2 0x1C3 JUMP JUMPDEST CALLVALUE DUP1 ISZERO PUSH2 0x33E JUMPI PUSH1 0x0 DUP1 REVERT JUMPDEST POP PUSH2 0x27B PUSH2 0x34D CALLDATASIZE PUSH1 0x4 PUSH2 0xD97 JUMP JUMPDEST PUSH2 0x8B7 JUMP JUMPDEST CALLVALUE DUP1 ISZERO PUSH2 0x35E JUMPI PUSH1 0x0 DUP1 REVERT JUMPDEST POP PUSH2 0x367 PUSH2 0x992 JUMP JUMPDEST PUSH1 0x40 MLOAD PUSH2 0x19A SWAP2 SWAP1 PUSH2 0xF16 JUMP JUMPDEST CALLVALUE DUP1 ISZERO PUSH2 0x380 JUMPI PUSH1 0x0 DUP1 REVERT JUMPDEST POP PUSH2 0x204 PUSH2 0x38F CALLDATASIZE PUSH1 0x4 PUSH2 0xD97 JUMP JUMPDEST PUSH2 0x9F4 JUMP JUMPDEST CALLVALUE DUP1 ISZERO PUSH2 0x3A0 JUMPI PUSH1 0x0 DUP1 REVERT JUMPDEST POP PUSH2 0x204 PUSH2 0x3AF CALLDATASIZE PUSH1 0x4 PUSH2 0xD97 JUMP JUMPDEST PUSH2 0xB8A JUMP JUMPDEST PUSH1 0x0 DUP2 DUP2 SLOAD DUP2 LT PUSH2 0x3C4 JUMPI PUSH1 0x0 DUP1 REVERT JUMPDEST PUSH1 0x0 SWAP2 DUP3 MSTORE PUSH1 0x20 SWAP1 SWAP2 KECCAK256 ADD SLOAD PUSH1 0x1 PUSH1 0x1 PUSH1 0xA0 SHL SUB AND SWAP1 POP DUP2 JUMP JUMPDEST CALLER PUSH1 0x0 SWAP1 DUP2 MSTORE PUSH1 0x1 PUSH1 0x20 MSTORE PUSH1 0x40 DUP2 KECCAK256 SLOAD PUSH1 0xFF AND PUSH2 0x40E JUMPI PUSH1 0x40 MLOAD PUSH4 0x30CD7471 PUSH1 0xE0 SHL DUP2 MSTORE PUSH1 0x4 ADD PUSH1 0x40 MLOAD DUP1 SWAP2 SUB SWAP1 REVERT JUMPDEST PUSH1 0x1 PUSH1 0x1 PUSH1 0xA0 SHL SUB DUP6 AND PUSH2 0x462 JUMPI PUSH1 0x40 MLOAD PUSH3 0x461BCD PUSH1 0xE5 SHL DUP2 MSTORE PUSH1 0x20 PUSH1 0x4 DUP3 ADD MSTORE PUSH1 0x16 PUSH1 0x24 DUP3 ADD MSTORE PUSH22 0x496E76616C6964207461726765742061646472657373 PUSH1 0x50 SHL PUSH1 0x44 DUP3 ADD MSTORE PUSH1 0x64 ADD JUMPDEST PUSH1 0x40 MLOAD DUP1 SWAP2 SUB SWAP1 REVERT JUMPDEST PUSH2 0x1000 DUP3 GT ISZERO PUSH2 0x4A9 JUMPI PUSH1 0x40 MLOAD PUSH3 0x461BCD PUSH1 0xE5 SHL DUP2 MSTORE PUSH1 0x20 PUSH1 0x4 DUP3 ADD MSTORE PUSH1 0x12 PUSH1 0x24 DUP3 ADD MSTORE PUSH18 0x43616C6C6461746120746F6F206C61726765 PUSH1 0x70 SHL PUSH1 0x44 DUP3 ADD MSTORE PUSH1 0x64 ADD PUSH2 0x459 JUMP JUMPDEST PUSH1 0x3 DUP1 SLOAD SWAP1 POP SWAP1 POP PUSH1 0x3 PUSH1 0x40 MLOAD DUP1 PUSH1 0xA0 ADD PUSH1 0x40 MSTORE DUP1 DUP8 PUSH1 0x1 PUSH1 0x1 PUSH1 0xA0 SHL SUB AND DUP2 MSTORE PUSH1 0x20 ADD DUP7 DUP2 MSTORE PUSH1 0x20 ADD PUSH1 0x0 ISZERO ISZERO DUP2 MSTORE PUSH1 0x20 ADD PUSH1 0x0 DUP2 MSTORE PUSH1 0x20 ADD DUP6 DUP6 DUP1 DUP1 PUSH1 0x1F ADD PUSH1 0x20 DUP1 SWAP2 DIV MUL PUSH1 0x20 ADD PUSH1 0x40 MLOAD SWAP1 DUP2 ADD PUSH1 0x40 MSTORE DUP1 SWAP4 SWAP3 SWAP2 SWAP1 DUP2 DUP2 MSTORE PUSH1 0x20 ADD DUP4 DUP4 DUP1 DUP3 DUP5 CALLDATACOPY PUSH1 0x0 SWAP3 ADD DUP3 SWAP1 MSTORE POP SWAP4 SWAP1 SWAP5 MSTORE POP POP DUP4 SLOAD PUSH1 0x1 DUP1 DUP3 ADD DUP7 SSTORE SWAP5 DUP3 MSTORE PUSH1 0x20 SWAP2 DUP3 SWAP1 KECCAK256 DUP5 MLOAD PUSH1 0x5 SWAP1 SWAP3 MUL ADD DUP1 SLOAD PUSH1 0x1 PUSH1 0x1 PUSH1 0xA0 SHL SUB NOT AND PUSH1 0x1 PUSH1 0x1 PUSH1 0xA0 SHL SUB SWAP1 SWAP3 AND SWAP2 SWAP1 SWAP2 OR DUP2 SSTORE SWAP1 DUP4 ADD MLOAD SWAP4 DUP2 ADD SWAP4 SWAP1 SWAP4 SSTORE POP PUSH1 0x40 DUP2 ADD MLOAD PUSH1 0x2 DUP4 ADD DUP1 SLOAD PUSH1 0xFF NOT AND SWAP2 ISZERO ISZERO SWAP2 SWAP1 SWAP2 OR SWAP1 SSTORE PUSH1 0x60 DUP2 ADD MLOAD PUSH1 0x3 DUP4 ADD SSTORE PUSH1 0x80 DUP2 ADD MLOAD SWAP1 SWAP2 SWAP1 PUSH1 0x4 DUP3 ADD SWAP1 PUSH2 0x597 SWAP1 DUP3 PUSH2 0x1002 JUMP JUMPDEST POP POP POP CALLER PUSH1 0x1 PUSH1 0x1 PUSH1 0xA0 SHL SUB AND DUP2 PUSH32 0x2ECF8C4571BE1F8A0B1E6FEAA711128F3F8038E97869AA59D0F595E21F50EAA0 DUP8 DUP8 DUP8 DUP8 PUSH1 0x40 MLOAD PUSH2 0x5DA SWAP5 SWAP4 SWAP3 SWAP2 SWAP1 PUSH2 0x10C2 JUMP JUMPDEST PUSH1 0x40 MLOAD DUP1 SWAP2 SUB SWAP1 LOG3 SWAP5 SWAP4 POP POP POP POP JUMP JUMPDEST CALLER PUSH1 0x0 SWAP1 DUP2 MSTORE PUSH1 0x1 PUSH1 0x20 MSTORE PUSH1 0x40 SWAP1 KECCAK256 SLOAD PUSH1 0xFF AND PUSH2 0x61A JUMPI PUSH1 0x40 MLOAD PUSH4 0x30CD7471 PUSH1 0xE0 SHL DUP2 MSTORE PUSH1 0x4 ADD PUSH1 0x40 MLOAD DUP1 SWAP2 SUB SWAP1 REVERT JUMPDEST PUSH1 0x3 SLOAD DUP2 SWAP1 DUP2 LT PUSH2 0x63E JUMPI PUSH1 0x40 MLOAD PUSH4 0x9E1B596F PUSH1 0xE0 SHL DUP2 MSTORE PUSH1 0x4 ADD PUSH1 0x40 MLOAD DUP1 SWAP2 SUB SWAP1 REVERT JUMPDEST DUP2 PUSH1 0x3 DUP2 DUP2 SLOAD DUP2 LT PUSH2 0x652 JUMPI PUSH2 0x652 PUSH2 0x110A JUMP JUMPDEST PUSH1 0x0 SWAP2 DUP3 MSTORE PUSH1 0x20 SWAP1 SWAP2 KECCAK256 PUSH1 0x2 PUSH1 0x5 SWAP1 SWAP3 MUL ADD ADD SLOAD PUSH1 0xFF AND ISZERO PUSH2 0x687 JUMPI PUSH1 0x40 MLOAD PUSH4 0x2EA945CF PUSH1 0xE0 SHL DUP2 MSTORE PUSH1 0x4 ADD PUSH1 0x40 MLOAD DUP1 SWAP2 SUB SWAP1 REVERT JUMPDEST PUSH1 0x0 DUP4 DUP2 MSTORE PUSH1 0x4 PUSH1 0x20 SWAP1 DUP2 MSTORE PUSH1 0x40 DUP1 DUP4 KECCAK256 CALLER DUP5 MSTORE SWAP1 SWAP2 MSTORE SWAP1 KECCAK256 SLOAD DUP4 SWAP1 PUSH1 0xFF AND ISZERO PUSH2 0x6C4 JUMPI PUSH1 0x40 MLOAD PUSH4 0x5DB7EC0D PUSH1 0xE0 SHL DUP2 MSTORE PUSH1 0x4 ADD PUSH1 0x40 MLOAD DUP1 SWAP2 SUB SWAP1 REVERT JUMPDEST PUSH1 0x0 DUP5 DUP2 MSTORE PUSH1 0x4 PUSH1 0x20 SWAP1 DUP2 MSTORE PUSH1 0x40 DUP1 DUP4 KECCAK256 CALLER DUP5 MSTORE SWAP1 SWAP2 MSTORE SWAP1 KECCAK256 DUP1 SLOAD PUSH1 0xFF NOT AND PUSH1 0x1 SWAP1 DUP2 OR SWAP1 SWAP2 SSTORE PUSH1 0x3 DUP1 SLOAD DUP7 SWAP1 DUP2 LT PUSH2 0x6FF JUMPI PUSH2 0x6FF PUSH2 0x110A JUMP JUMPDEST SWAP1 PUSH1 0x0 MSTORE PUSH1 0x20 PUSH1 0x0 KECCAK256 SWAP1 PUSH1 0x5 MUL ADD PUSH1 0x3 ADD PUSH1 0x0 DUP3 DUP3 SLOAD PUSH2 0x71F SWAP2 SWAP1 PUSH2 0x1136 JUMP JUMPDEST SWAP1 SWAP2 SSTORE POP POP PUSH1 0x40 MLOAD CALLER SWAP1 DUP6 SWAP1 PUSH32 0x924813D717E221B5F46DCD8A56DA1679E4612584AB3237D55E5FAABF6F6A3079 SWAP1 PUSH1 0x0 SWAP1 LOG3 POP POP POP POP JUMP JUMPDEST PUSH1 0x0 DUP1 PUSH1 0x0 DUP1 PUSH1 0x60 PUSH1 0x0 PUSH1 0x3 DUP8 DUP2 SLOAD DUP2 LT PUSH2 0x774 JUMPI PUSH2 0x774 PUSH2 0x110A JUMP JUMPDEST SWAP1 PUSH1 0x0 MSTORE PUSH1 0x20 PUSH1 0x0 KECCAK256 SWAP1 PUSH1 0x5 MUL ADD SWAP1 POP DUP1 PUSH1 0x0 ADD PUSH1 0x0 SWAP1 SLOAD SWAP1 PUSH2 0x100 EXP SWAP1 DIV PUSH1 0x1 PUSH1 0x1 PUSH1 0xA0 SHL SUB AND DUP2 PUSH1 0x1 ADD SLOAD DUP3 PUSH1 0x2 ADD PUSH1 0x0 SWAP1 SLOAD SWAP1 PUSH2 0x100 EXP SWAP1 DIV PUSH1 0xFF AND DUP4 PUSH1 0x3 ADD SLOAD DUP5 PUSH1 0x4 ADD DUP1 DUP1 SLOAD PUSH2 0x7C8 SWAP1 PUSH2 0xF79 JUMP JUMPDEST DUP1 PUSH1 0x1F ADD PUSH1 0x20 DUP1 SWAP2 DIV MUL PUSH1 0x20 ADD PUSH1 0x40 MLOAD SWAP1 DUP2 ADD PUSH1 0x40 MSTORE DUP1 SWAP3 SWAP2 SWAP1 DUP2 DUP2 MSTORE PUSH1 0x20 ADD DUP3 DUP1 SLOAD PUSH2 0x7F4 SWAP1 PUSH2 0xF79 JUMP JUMPDEST DUP1 ISZERO PUSH2 0x841 JUMPI DUP1 PUSH1 0x1F LT PUSH2 0x816 JUMPI PUSH2 0x100 DUP1 DUP4 SLOAD DIV MUL DUP4 MSTORE SWAP2 PUSH1 0x20 ADD SWAP2 PUSH2 0x841 JUMP JUMPDEST DUP3 ADD SWAP2 SWAP1 PUSH1 0x0 MSTORE PUSH1 0x20 PUSH1 0x0 KECCAK256 SWAP1 JUMPDEST DUP2 SLOAD DUP2 MSTORE SWAP1 PUSH1 0x1 ADD SWAP1 PUSH1 0x20 ADD DUP1 DUP4 GT PUSH2 0x824 JUMPI DUP3 SWAP1 SUB PUSH1 0x1F AND DUP3 ADD SWAP2 JUMPDEST POP POP POP POP POP SWAP1 POP SWAP6 POP SWAP6 POP SWAP6 POP SWAP6 POP SWAP6 POP POP SWAP2 SWAP4 SWAP6 SWAP1 SWAP3 SWAP5 POP JUMP JUMPDEST PUSH1 0x0 PUSH1 0x3 DUP3 DUP2 SLOAD DUP2 LT PUSH2 0x871 JUMPI PUSH2 0x871 PUSH2 0x110A JUMP JUMPDEST SWAP1 PUSH1 0x0 MSTORE PUSH1 0x20 PUSH1 0x0 KECCAK256 SWAP1 PUSH1 0x5 MUL ADD PUSH1 0x3 ADD SLOAD SWAP1 POP SWAP2 SWAP1 POP JUMP JUMPDEST PUSH1 0x0 DUP3 DUP2 MSTORE PUSH1 0x4 PUSH1 0x20 SWAP1 DUP2 MSTORE PUSH1 0x40 DUP1 DUP4 KECCAK256 PUSH1 0x1 PUSH1 0x1 PUSH1 0xA0 SHL SUB DUP6 AND DUP5 MSTORE SWAP1 SWAP2 MSTORE SWAP1 KECCAK256 SLOAD PUSH1 0xFF AND JUMPDEST SWAP3 SWAP2 POP POP JUMP JUMPDEST PUSH1 0x3 DUP2 DUP2 SLOAD DUP2 LT PUSH2 0x8C7 JUMPI PUSH1 0x0 DUP1 REVERT JUMPDEST PUSH1 0x0 SWAP2 DUP3 MSTORE PUSH1 0x20 SWAP1 SWAP2 KECCAK256 PUSH1 0x5 SWAP1 SWAP2 MUL ADD DUP1 SLOAD PUSH1 0x1 DUP3 ADD SLOAD PUSH1 0x2 DUP4 ADD SLOAD PUSH1 0x3 DUP5 ADD SLOAD PUSH1 0x4 DUP6 ADD DUP1 SLOAD PUSH1 0x1 PUSH1 0x1 PUSH1 0xA0 SHL SUB SWAP1 SWAP6 AND SWAP7 POP SWAP3 SWAP5 PUSH1 0xFF SWAP1 SWAP3 AND SWAP4 SWAP1 SWAP3 SWAP1 PUSH2 0x90F SWAP1 PUSH2 0xF79 JUMP JUMPDEST DUP1 PUSH1 0x1F ADD PUSH1 0x20 DUP1 SWAP2 DIV MUL PUSH1 0x20 ADD PUSH1 0x40 MLOAD SWAP1 DUP2 ADD PUSH1 0x40 MSTORE DUP1 SWAP3 SWAP2 SWAP1 DUP2 DUP2 MSTORE PUSH1 0x20 ADD DUP3 DUP1 SLOAD PUSH2 0x93B SWAP1 PUSH2 0xF79 JUMP JUMPDEST DUP1 ISZERO PUSH2 0x988 JUMPI DUP1 PUSH1 0x1F LT PUSH2 0x95D JUMPI PUSH2 0x100 DUP1 DUP4 SLOAD DIV MUL DUP4 MSTORE SWAP2 PUSH1 0x20 ADD SWAP2 PUSH2 0x988 JUMP JUMPDEST DUP3 ADD SWAP2 SWAP1 PUSH1 0x0 MSTORE PUSH1 0x20 PUSH1 0x0 KECCAK256 SWAP1 JUMPDEST DUP2 SLOAD DUP2 MSTORE SWAP1 PUSH1 0x1 ADD SWAP1 PUSH1 0x20 ADD DUP1 DUP4 GT PUSH2 0x96B JUMPI DUP3 SWAP1 SUB PUSH1 0x1F AND DUP3 ADD SWAP2 JUMPDEST POP POP POP POP POP SWAP1 POP DUP6 JUMP JUMPDEST PUSH1 0x60 PUSH1 0x0 DUP1 SLOAD DUP1 PUSH1 0x20 MUL PUSH1 0x20 ADD PUSH1 0x40 MLOAD SWAP1 DUP2 ADD PUSH1 0x40 MSTORE DUP1 SWAP3 SWAP2 SWAP1 DUP2 DUP2 MSTORE PUSH1 0x20 ADD DUP3 DUP1 SLOAD DUP1 ISZERO PUSH2 0x9EA JUMPI PUSH1 0x20 MUL DUP3 ADD SWAP2 SWAP1 PUSH1 0x0 MSTORE PUSH1 0x20 PUSH1 0x0 KECCAK256 SWAP1 JUMPDEST DUP2 SLOAD PUSH1 0x1 PUSH1 0x1 PUSH1 0xA0 SHL SUB AND DUP2 MSTORE PUSH1 0x1 SWAP1 SWAP2 ADD SWAP1 PUSH1 0x20 ADD DUP1 DUP4 GT PUSH2 0x9CC JUMPI JUMPDEST POP POP POP POP POP SWAP1 POP SWAP1 JUMP JUMPDEST CALLER PUSH1 0x0 SWAP1 DUP2 MSTORE PUSH1 0x1 PUSH1 0x20 MSTORE PUSH1 0x40 SWAP1 KECCAK256 SLOAD PUSH1 0xFF AND PUSH2 0xA24 JUMPI PUSH1 0x40 MLOAD PUSH4 0x30CD7471 PUSH1 0xE0 SHL DUP2 MSTORE PUSH1 0x4 ADD PUSH1 0x40 MLOAD DUP1 SWAP2 SUB SWAP1 REVERT JUMPDEST PUSH1 0x3 SLOAD DUP2 SWAP1 DUP2 LT PUSH2 0xA48 JUMPI PUSH1 0x40 MLOAD PUSH4 0x9E1B596F PUSH1 0xE0 SHL DUP2 MSTORE PUSH1 0x4 ADD PUSH1 0x40 MLOAD DUP1 SWAP2 SUB SWAP1 REVERT JUMPDEST DUP2 PUSH1 0x3 DUP2 DUP2 SLOAD DUP2 LT PUSH2 0xA5C JUMPI PUSH2 0xA5C PUSH2 0x110A JUMP JUMPDEST PUSH1 0x0 SWAP2 DUP3 MSTORE PUSH1 0x20 SWAP1 SWAP2 KECCAK256 PUSH1 0x2 PUSH1 0x5 SWAP1 SWAP3 MUL ADD ADD SLOAD PUSH1 0xFF AND ISZERO PUSH2 0xA91 JUMPI PUSH1 0x40 MLOAD PUSH4 0x2EA945CF PUSH1 0xE0 SHL DUP2 MSTORE PUSH1 0x4 ADD PUSH1 0x40 MLOAD DUP1 SWAP2 SUB SWAP1 REVERT JUMPDEST PUSH1 0x0 DUP4 DUP2 MSTORE PUSH1 0x4 PUSH1 0x20 SWAP1 DUP2 MSTORE PUSH1 0x40 DUP1 DUP4 KECCAK256 CALLER DUP5 MSTORE SWAP1 SWAP2 MSTORE SWAP1 KECCAK256 SLOAD PUSH1 0xFF AND PUSH2 0xAFA JUMPI PUSH1 0x40 MLOAD PUSH3 0x461BCD PUSH1 0xE5 SHL DUP2 MSTORE PUSH1 0x20 PUSH1 0x4 DUP3 ADD MSTORE PUSH1 0x18 PUSH1 0x24 DUP3 ADD MSTORE PUSH32 0x5472616E73616374696F6E206E6F7420617070726F7665640000000000000000 PUSH1 0x44 DUP3 ADD MSTORE PUSH1 0x64 ADD PUSH2 0x459 JUMP JUMPDEST PUSH1 0x0 DUP4 DUP2 MSTORE PUSH1 0x4 PUSH1 0x20 SWAP1 DUP2 MSTORE PUSH1 0x40 DUP1 DUP4 KECCAK256 CALLER DUP5 MSTORE SWAP1 SWAP2 MSTORE SWAP1 KECCAK256 DUP1 SLOAD PUSH1 0xFF NOT AND SWAP1 SSTORE PUSH1 0x3 DUP1 SLOAD PUSH1 0x1 SWAP2 SWAP1 DUP6 SWAP1 DUP2 LT PUSH2 0xB33 JUMPI PUSH2 0xB33 PUSH2 0x110A JUMP JUMPDEST SWAP1 PUSH1 0x0 MSTORE PUSH1 0x20 PUSH1 0x0 KECCAK256 SWAP1 PUSH1 0x5 MUL ADD PUSH1 0x3 ADD PUSH1 0x0 DUP3 DUP3 SLOAD PUSH2 0xB53 SWAP2 SWAP1 PUSH2 0x1149 JUMP JUMPDEST SWAP1 SWAP2 SSTORE POP POP PUSH1 0x40 MLOAD CALLER SWAP1 DUP5 SWAP1 PUSH32 0x430C786AD6C97D1739E88415E23257A88A0A989B6BDC4E9E415B72BB53D869A8 SWAP1 PUSH1 0x0 SWAP1 LOG3 POP POP POP JUMP JUMPDEST CALLER PUSH1 0x0 SWAP1 DUP2 MSTORE PUSH1 0x1 PUSH1 0x20 MSTORE PUSH1 0x40 SWAP1 KECCAK256 SLOAD PUSH1 0xFF AND PUSH2 0xBBA JUMPI PUSH1 0x40 MLOAD PUSH4 0x30CD7471 PUSH1 0xE0 SHL DUP2 MSTORE PUSH1 0x4 ADD PUSH1 0x40 MLOAD DUP1 SWAP2 SUB SWAP1 REVERT JUMPDEST PUSH1 0x3 SLOAD DUP2 SWAP1 DUP2 LT PUSH2 0xBDE JUMPI PUSH1 0x40 MLOAD PUSH4 0x9E1B596F PUSH1 0xE0 SHL DUP2 MSTORE PUSH1 0x4 ADD PUSH1 0x40 MLOAD DUP1 SWAP2 SUB SWAP1 REVERT JUMPDEST DUP2 PUSH1 0x3 DUP2 DUP2 SLOAD DUP2 LT PUSH2 0xBF2 JUMPI PUSH2 0xBF2 PUSH2 0x110A JUMP JUMPDEST PUSH1 0x0 SWAP2 DUP3 MSTORE PUSH1 0x20 SWAP1 SWAP2 KECCAK256 PUSH1 0x2 PUSH1 0x5 SWAP1 SWAP3 MUL ADD ADD SLOAD PUSH1 0xFF AND ISZERO PUSH2 0xC27 JUMPI PUSH1 0x40 MLOAD PUSH4 0x2EA945CF PUSH1 0xE0 SHL DUP2 MSTORE PUSH1 0x4 ADD PUSH1 0x40 MLOAD DUP1 SWAP2 SUB SWAP1 REVERT JUMPDEST PUSH1 0x0 PUSH1 0x3 DUP5 DUP2 SLOAD DUP2 LT PUSH2 0xC3C JUMPI PUSH2 0xC3C PUSH2 0x110A JUMP JUMPDEST SWAP1 PUSH1 0x0 MSTORE PUSH1 0x20 PUSH1 0x0 KECCAK256 SWAP1 PUSH1 0x5 MUL ADD SWAP1 POP PUSH1 0x2 SLOAD DUP2 PUSH1 0x3 ADD SLOAD LT ISZERO PUSH2 0xC99 JUMPI PUSH1 0x40 MLOAD PUSH3 0x461BCD PUSH1 0xE5 SHL DUP2 MSTORE PUSH1 0x20 PUSH1 0x4 DUP3 ADD MSTORE PUSH1 0x14 PUSH1 0x24 DUP3 ADD MSTORE PUSH20 0x4E6F7420656E6F75676820617070726F76616C73 PUSH1 0x60 SHL PUSH1 0x44 DUP3 ADD MSTORE PUSH1 0x64 ADD PUSH2 0x459 JUMP JUMPDEST PUSH1 0x2 DUP2 ADD DUP1 SLOAD PUSH1 0xFF NOT AND PUSH1 0x1 SWAP1 DUP2 OR SWAP1 SWAP2 SSTORE DUP2 SLOAD SWAP1 DUP3 ADD SLOAD PUSH1 0x40 MLOAD PUSH1 0x0 SWAP3 PUSH1 0x1 PUSH1 0x1 PUSH1 0xA0 SHL SUB AND SWAP2 SWAP1 PUSH2 0xCD0 SWAP1 PUSH1 0x4 DUP7 ADD SWAP1 PUSH2 0x115C JUMP JUMPDEST PUSH1 0x0 PUSH1 0x40 MLOAD DUP1 DUP4 SUB DUP2 DUP6 DUP8 GAS CALL SWAP3 POP POP POP RETURNDATASIZE DUP1 PUSH1 0x0 DUP2 EQ PUSH2 0xD0D JUMPI PUSH1 0x40 MLOAD SWAP2 POP PUSH1 0x1F NOT PUSH1 0x3F RETURNDATASIZE ADD AND DUP3 ADD PUSH1 0x40 MSTORE RETURNDATASIZE DUP3 MSTORE RETURNDATASIZE PUSH1 0x0 PUSH1 0x20 DUP5 ADD RETURNDATACOPY PUSH2 0xD12 JUMP JUMPDEST PUSH1 0x60 SWAP2 POP JUMPDEST POP POP SWAP1 POP DUP1 PUSH2 0xD63 JUMPI PUSH1 0x40 MLOAD PUSH3 0x461BCD PUSH1 0xE5 SHL DUP2 MSTORE PUSH1 0x20 PUSH1 0x4 DUP3 ADD MSTORE PUSH1 0x1C PUSH1 0x24 DUP3 ADD MSTORE PUSH32 0x5472616E73616374696F6E20657865637574696F6E206661696C656400000000 PUSH1 0x44 DUP3 ADD MSTORE PUSH1 0x64 ADD PUSH2 0x459 JUMP JUMPDEST PUSH1 0x40 MLOAD CALLER SWAP1 DUP7 SWAP1 PUSH32 0xEFC13BDCF58F184EA7CAE26B499FB33B539E01D0197CEA456F3ADA289B8CF19B SWAP1 PUSH1 0x0 SWAP1 LOG3 POP POP POP POP POP JUMP JUMPDEST PUSH1 0x0 PUSH1 0x20 DUP3 DUP5 SUB SLT ISZERO PUSH2 0xDA9 JUMPI PUSH1 0x0 DUP1 REVERT JUMPDEST POP CALLDATALOAD SWAP2 SWAP1 POP JUMP JUMPDEST DUP1 CALLDATALOAD PUSH1 0x1 PUSH1 0x1 PUSH1 0xA0 SHL SUB DUP2 AND DUP2 EQ PUSH2 0xDC7 JUMPI PUSH1 0x0 DUP1 REVERT JUMPDEST SWAP2 SWAP1 POP JUMP JUMPDEST PUSH1 0x0 DUP1 PUSH1 0x0 DUP1 PUSH1 0x60 DUP6 DUP8 SUB SLT ISZERO PUSH2 0xDE2 JUMPI PUSH1 0x0 DUP1 REVERT JUMPDEST PUSH2 0xDEB DUP6 PUSH2 0xDB0 JUMP JUMPDEST SWAP4 POP PUSH1 0x20 DUP6 ADD CALLDATALOAD SWAP3 POP PUSH1 0x40 DUP6 ADD CALLDATALOAD PUSH8 0xFFFFFFFFFFFFFFFF DUP1 DUP3 GT ISZERO PUSH2 0xE0F JUMPI PUSH1 0x0 DUP1 REVERT JUMPDEST DUP2 DUP8 ADD SWAP2 POP DUP8 PUSH1 0x1F DUP4 ADD SLT PUSH2 0xE23 JUMPI PUSH1 0x0 DUP1 REVERT JUMPDEST DUP2 CALLDATALOAD DUP2 DUP2 GT ISZERO PUSH2 0xE32 JUMPI PUSH1 0x0 DUP1 REVERT JUMPDEST DUP9 PUSH1 0x20 DUP3 DUP6 ADD ADD GT ISZERO PUSH2 0xE44 JUMPI PUSH1 0x0 DUP1 REVERT JUMPDEST SWAP6 SWAP9 SWAP5 SWAP8 POP POP PUSH1 0x20 ADD SWAP5 POP POP POP JUMP JUMPDEST PUSH1 0x0 PUSH1 0x20 DUP3 DUP5 SUB SLT ISZERO PUSH2 0xE65 JUMPI PUSH1 0x0 DUP1 REVERT JUMPDEST PUSH2 0xE6E DUP3 PUSH2 0xDB0 JUMP JUMPDEST SWAP4 SWAP3 POP POP POP JUMP JUMPDEST PUSH1 0x1 DUP1 PUSH1 0xA0 SHL SUB DUP7 AND DUP2 MSTORE PUSH1 0x0 PUSH1 0x20 DUP7 DUP2 DUP5 ADD MSTORE DUP6 ISZERO ISZERO PUSH1 0x40 DUP5 ADD MSTORE DUP5 PUSH1 0x60 DUP5 ADD MSTORE PUSH1 0xA0 PUSH1 0x80 DUP5 ADD MSTORE DUP4 MLOAD DUP1 PUSH1 0xA0 DUP6 ADD MSTORE PUSH1 0x0 JUMPDEST DUP2 DUP2 LT ISZERO PUSH2 0xEC5 JUMPI DUP6 DUP2 ADD DUP4 ADD MLOAD DUP6 DUP3 ADD PUSH1 0xC0 ADD MSTORE DUP3 ADD PUSH2 0xEA9 JUMP JUMPDEST POP PUSH1 0x0 PUSH1 0xC0 DUP3 DUP7 ADD ADD MSTORE PUSH1 0xC0 PUSH1 0x1F NOT PUSH1 0x1F DUP4 ADD AND DUP6 ADD ADD SWAP3 POP POP POP SWAP7 SWAP6 POP POP POP POP POP POP JUMP JUMPDEST PUSH1 0x0 DUP1 PUSH1 0x40 DUP4 DUP6 SUB SLT ISZERO PUSH2 0xEFD JUMPI PUSH1 0x0 DUP1 REVERT JUMPDEST DUP3 CALLDATALOAD SWAP2 POP PUSH2 0xF0D PUSH1 0x20 DUP5 ADD PUSH2 0xDB0 JUMP JUMPDEST SWAP1 POP SWAP3 POP SWAP3 SWAP1 POP JUMP JUMPDEST PUSH1 0x20 DUP1 DUP3 MSTORE DUP3 MLOAD DUP3 DUP3 ADD DUP2 SWAP1 MSTORE PUSH1 0x0 SWAP2 SWAP1 DUP5 DUP3 ADD SWAP1 PUSH1 0x40 DUP6 ADD SWAP1 DUP5 JUMPDEST DUP2 DUP2 LT ISZERO PUSH2 0xF57 JUMPI DUP4 MLOAD PUSH1 0x1 PUSH1 0x1 PUSH1 0xA0 SHL SUB AND DUP4 MSTORE SWAP3 DUP5 ADD SWAP3 SWAP2 DUP5 ADD SWAP2 PUSH1 0x1 ADD PUSH2 0xF32 JUMP JUMPDEST POP SWAP1 SWAP7 SWAP6 POP POP POP POP POP POP JUMP JUMPDEST PUSH4 0x4E487B71 PUSH1 0xE0 SHL PUSH1 0x0 MSTORE PUSH1 0x41 PUSH1 0x4 MSTORE PUSH1 0x24 PUSH1 0x0 REVERT JUMPDEST PUSH1 0x1 DUP2 DUP2 SHR SWAP1 DUP3 AND DUP1 PUSH2 0xF8D JUMPI PUSH1 0x7F DUP3 AND SWAP2 POP JUMPDEST PUSH1 0x20 DUP3 LT DUP2 SUB PUSH2 0xFAD JUMPI PUSH4 0x4E487B71 PUSH1 0xE0 SHL PUSH1 0x0 MSTORE PUSH1 0x22 PUSH1 0x4 MSTORE PUSH1 0x24 PUSH1 0x0 REVERT JUMPDEST POP SWAP2 SWAP1 POP JUMP JUMPDEST PUSH1 0x1F DUP3 GT ISZERO PUSH2 0xFFD JUMPI PUSH1 0x0 DUP2 DUP2 MSTORE PUSH1 0x20 DUP2 KECCAK256 PUSH1 0x1F DUP6 ADD PUSH1 0x5 SHR DUP2 ADD PUSH1 0x20 DUP7 LT ISZERO PUSH2 0xFDA JUMPI POP DUP1 JUMPDEST PUSH1 0x1F DUP6 ADD PUSH1 0x5 SHR DUP3 ADD SWAP2 POP JUMPDEST DUP2 DUP2 LT ISZERO PUSH2 0xFF9 JUMPI DUP3 DUP2 SSTORE PUSH1 0x1 ADD PUSH2 0xFE6 JUMP JUMPDEST POP POP POP JUMPDEST POP POP POP JUMP JUMPDEST DUP2 MLOAD PUSH8 0xFFFFFFFFFFFFFFFF DUP2 GT ISZERO PUSH2 0x101C JUMPI PUSH2 0x101C PUSH2 0xF63 JUMP JUMPDEST PUSH2 0x1030 DUP2 PUSH2 0x102A DUP5 SLOAD PUSH2 0xF79 JUMP JUMPDEST DUP5 PUSH2 0xFB3 JUMP JUMPDEST PUSH1 0x20 DUP1 PUSH1 0x1F DUP4 GT PUSH1 0x1 DUP2 EQ PUSH2 0x1065 JUMPI PUSH1 0x0 DUP5 ISZERO PUSH2 0x104D JUMPI POP DUP6 DUP4 ADD MLOAD JUMPDEST PUSH1 0x0 NOT PUSH1 0x3 DUP7 SWAP1 SHL SHR NOT AND PUSH1 0x1 DUP6 SWAP1 SHL OR DUP6 SSTORE PUSH2 0xFF9 JUMP JUMPDEST PUSH1 0x0 DUP6 DUP2 MSTORE PUSH1 0x20 DUP2 KECCAK256 PUSH1 0x1F NOT DUP7 AND SWAP2 JUMPDEST DUP3 DUP2 LT ISZERO PUSH2 0x1094 JUMPI DUP9 DUP7 ADD MLOAD DUP3 SSTORE SWAP5 DUP5 ADD SWAP5 PUSH1 0x1 SWAP1 SWAP2 ADD SWAP1 DUP5 ADD PUSH2 0x1075 JUMP JUMPDEST POP DUP6 DUP3 LT ISZERO PUSH2 0x10B2 JUMPI DUP8 DUP6 ADD MLOAD PUSH1 0x0 NOT PUSH1 0x3 DUP9 SWAP1 SHL PUSH1 0xF8 AND SHR NOT AND DUP2 SSTORE JUMPDEST POP POP POP POP POP PUSH1 0x1 SWAP1 DUP2 SHL ADD SWAP1 SSTORE POP JUMP JUMPDEST PUSH1 0x1 PUSH1 0x1 PUSH1 0xA0 SHL SUB DUP6 AND DUP2 MSTORE PUSH1 0x20 DUP2 ADD DUP5 SWAP1 MSTORE PUSH1 0x60 PUSH1 0x40 DUP3 ADD DUP2 SWAP1 MSTORE DUP2 ADD DUP3 SWAP1 MSTORE DUP2 DUP4 PUSH1 0x80 DUP4 ADD CALLDATACOPY PUSH1 0x0 DUP2 DUP4 ADD PUSH1 0x80 SWAP1 DUP2 ADD SWAP2 SWAP1 SWAP2 MSTORE PUSH1 0x1F SWAP1 SWAP3 ADD PUSH1 0x1F NOT AND ADD ADD SWAP4 SWAP3 POP POP POP JUMP JUMPDEST PUSH4 0x4E487B71 PUSH1 0xE0 SHL PUSH1 0x0 MSTORE PUSH1 0x32 PUSH1 0x4 MSTORE PUSH1 0x24 PUSH1 0x0 REVERT JUMPDEST PUSH4 0x4E487B71 PUSH1 0xE0 SHL PUSH1 0x0 MSTORE PUSH1 0x11 PUSH1 0x4 MSTORE PUSH1 0x24 PUSH1 0x0 REVERT JUMPDEST DUP1 DUP3 ADD DUP1 DUP3 GT ISZERO PUSH2 0x8B1 JUMPI PUSH2 0x8B1 PUSH2 0x1120 JUMP JUMPDEST DUP2 DUP2 SUB DUP2 DUP2 GT ISZERO PUSH2 0x8B1 JUMPI PUSH2 0x8B1 PUSH2 0x1120 JUMP JUMPDEST PUSH1 0x0 DUP1 DUP4 SLOAD PUSH2 0x116A DUP2 PUSH2 0xF79 JUMP JUMPDEST PUSH1 0x1 DUP3 DUP2 AND DUP1 ISZERO PUSH2 0x1182 JUMPI PUSH1 0x1 DUP2 EQ PUSH2 0x1197 JUMPI PUSH2 0x11C6 JUMP JUMPDEST PUSH1 0xFF NOT DUP5 AND DUP8 MSTORE DUP3 ISZERO ISZERO DUP4 MUL DUP8 ADD SWAP5 POP PUSH2 0x11C6 JUMP JUMPDEST DUP8 PUSH1 0x0 MSTORE PUSH1 0x20 DUP1 PUSH1 0x0 KECCAK256 PUSH1 0x0 JUMPDEST DUP6 DUP2 LT ISZERO PUSH2 0x11BD JUMPI DUP2 SLOAD DUP11 DUP3 ADD MSTORE SWAP1 DUP5 ADD SWAP1 DUP3 ADD PUSH2 0x11A4 JUMP JUMPDEST POP POP POP DUP3 DUP8 ADD SWAP5 POP JUMPDEST POP SWAP3 SWAP7 SWAP6 POP POP POP POP POP POP JUMP INVALID LOG2 PUSH5 0x6970667358 0x22 SLT KECCAK256 0x2F CALLDATALOAD RETURNDATACOPY 0xD 0x2A 0xD8 BALANCE RETURN PUSH26 0x7454453BE40AB98CCEDD9839FD45D1878A214DE9E7AA7564736F PUSH13 0x63430008130033000000000000 "},"methodIdentifiers":{"approvalCount(uint256)":"40ad01ea","approveTransaction(uint256)":"242232d1","approved(uint256,address)":"8253951a","executeTransaction(uint256)":"ee22610b","getBalance()":"12065fe0","getOwners()":"a0e67e2b","getTransaction(uint256)":"33ea3dc8","getTransactionCount()":"2e7700f0","isApproved(uint256,address)":"56c31637","isOwner(address)":"2f54bf6e","newTransaction(address,uint256,bytes)":"117c7a56","owners(uint256)":"025e7c27","requiredApprovals()":"99c1aadc","requiredConfirmations()":"82e717f7","revokeApproval(uint256)":"b1e130fc","transactions(uint256)":"9ace38c2"}}}}}