{
  "_format": "hh-sol-artifact-1",
  "contractName": "MultiSigWallet",
  "sourceName": "contracts/SharpWallet.sol",
  "abi": [
    {
      "inputs": [
        {
          "internalType": "address[]",
          "name": "_owners",
          "type": "address[]"
        },
        {
          "internalType": "uint256",
          "name": "_requiredApprovals",
          "type": "uint256"
        }
      ],
      "stateMutability": "nonpayable",
      "type": "constructor"
    },
    {
      "anonymous": false,
      "inputs": [
        {
          "indexed": true,
          "internalType": "uint256",
          "name": "txId",
          "type": "uint256"
        },
        {
          "indexed": true,
          "internalType": "address",
          "name": "owner",
          "type": "address"
        }
      ],
      "name": "ApprovalRevoked",
      "type": "event"
    },
    {
      "anonymous": false,
      "inputs": [
        {
          "indexed": true,
          "internalType": "address",
          "name": "newOwner",
          "type": "address"
        }
      ],
      "name": "OwnerAdded",
      "type": "event"
    },
    {
      "anonymous": false,
      "inputs": [
        {
          "indexed": true,
          "internalType": "address",
          "name": "oldOwner",
          "type": "address"
        }
      ],
      "name": "OwnerRemoved",
      "type": "event"
    },
    {
      "anonymous": false,
      "inputs": [
        {
          "indexed": false,
          "internalType": "uint256",
          "name": "newRequirement",
          "type": "uint256"
        }
      ],
      "name": "RequirementChanged",
      "type": "event"
    },
    {
      "anonymous": false,
      "inputs": [
        {
          "indexed": true,
          "internalType": "uint256",
          "name": "txId",
          "type": "uint256"
        },
        {
          "indexed": true,
          "internalType": "address",
          "name": "owner",
          "type": "address"
        }
      ],
      "name": "TransactionApproved",
      "type": "event"
    },
    {
      "anonymous": false,
      "inputs": [
        {
          "indexed": true,
          "internalType": "uint256",
          "name": "txId",
          "type": "uint256"
        },
        {
          "indexed": true,
          "internalType": "address",
          "name": "executor",
          "type": "address"
        }
      ],
      "name": "TransactionExecuted",
      "type": "event"
    },
    {
      "anonymous": false,
      "inputs": [
        {
          "indexed": true,
          "internalType": "uint256",
          "name": "txId",
          "type": "uint256"
        },
        {
          "indexed": true,
          "internalType": "address",
          "name": "proposer",
          "type": "address"
        },
        {
          "indexed": false,
          "internalType": "address",
          "name": "to",
          "type": "address"
        },
        {
          "indexed": false,
          "internalType": "uint256",
          "name": "value",
          "type": "uint256"
        },
        {
          "indexed": false,
          "internalType": "bytes",
          "name": "data",
          "type": "bytes"
        }
      ],
      "name": "TransactionSubmitted",
      "type": "event"
    },
    {
      "inputs": [
        {
          "internalType": "address",
          "name": "newOwner",
          "type": "address"
        }
      ],
      "name": "addOwner",
      "outputs": [],
      "stateMutability": "nonpayable",
      "type": "function"
    },
    {
      "inputs": [
        {
          "internalType": "uint256",
          "name": "txId",
          "type": "uint256"
        }
      ],
      "name": "approvalCount",
      "outputs": [
        {
          "internalType": "uint256",
          "name": "",
          "type": "uint256"
        }
      ],
      "stateMutability": "view",
      "type": "function"
    },
    {
      "inputs": [
        {
          "internalType": "uint256",
          "name": "txId",
          "type": "uint256"
        }
      ],
      "name": "approveTransaction",
      "outputs": [],
      "stateMutability": "nonpayable",
      "type": "function"
    },
    {
      "inputs": [
        {
          "internalType": "uint256",
          "name": "",
          "type": "uint256"
        },
        {
          "internalType": "address",
          "name": "",
          "type": "address"
        }
      ],
      "name": "approved",
      "outputs": [
        {
          "internalType": "bool",
          "name": "",
          "type": "bool"
        }
      ],
      "stateMutability": "view",
      "type": "function"
    },
    {
      "inputs": [
        {
          "internalType": "uint256",
          "name": "txId",
          "type": "uint256"
        }
      ],
      "name": "executeTransaction",
      "outputs": [],
      "stateMutability": "nonpayable",
      "type": "function"
    },
    {
      "inputs": [],
      "name": "getOwners",
      "outputs": [
        {
          "internalType": "address[]",
          "name": "",
          "type": "address[]"
        }
      ],
      "stateMutability": "view",
      "type": "function"
    },
    {
      "inputs": [
        {
          "internalType": "uint256",
          "name": "txId",
          "type": "uint256"
        }
      ],
      "name": "getTransaction",
      "outputs": [
        {
          "internalType": "address",
          "name": "to",
          "type": "address"
        },
        {
          "internalType": "uint256",
          "name": "value",
          "type": "uint256"
        },
        {
          "internalType": "bool",
          "name": "executed",
          "type": "bool"
        },
        {
          "internalType": "uint256",
          "name": "numConfirmations",
          "type": "uint256"
        },
        {
          "internalType": "bytes",
          "name": "data",
          "type": "bytes"
        }
      ],
      "stateMutability": "view",
      "type": "function"
    },
    {
      "inputs": [
        {
          "internalType": "uint256",
          "name": "txId",
          "type": "uint256"
        },
        {
          "internalType": "address",
          "name": "owner",
          "type": "address"
        }
      ],
      "name": "isApproved",
      "outputs": [
        {
          "internalType": "bool",
          "name": "",
          "type": "bool"
        }
      ],
      "stateMutability": "view",
      "type": "function"
    },
    {
      "inputs": [
        {
          "internalType": "address",
          "name": "",
          "type": "address"
        }
      ],
      "name": "isOwner",
      "outputs": [
        {
          "internalType": "bool",
          "name": "",
          "type": "bool"
        }
      ],
      "stateMutability": "view",
      "type": "function"
    },
    {
      "inputs": [
        {
          "internalType": "address",
          "name": "to",
          "type": "address"
        },
        {
          "internalType": "uint256",
          "name": "value",
          "type": "uint256"
        },
        {
          "internalType": "bytes",
          "name": "data",
          "type": "bytes"
        }
      ],
      "name": "newTransaction",
      "outputs": [
        {
          "internalType": "uint256",
          "name": "txId",
          "type": "uint256"
        }
      ],
      "stateMutability": "nonpayable",
      "type": "function"
    },
    {
      "inputs": [
        {
          "internalType": "uint256",
          "name": "",
          "type": "uint256"
        }
      ],
      "name": "owners",
      "outputs": [
        {
          "internalType": "address",
          "name": "",
          "type": "address"
        }
      ],
      "stateMutability": "view",
      "type": "function"
    },
    {
      "inputs": [
        {
          "internalType": "address",
          "name": "owner",
          "type": "address"
        }
      ],
      "name": "removeOwner",
      "outputs": [],
      "stateMutability": "nonpayable",
      "type": "function"
    },
    {
      "inputs": [],
      "name": "requiredApprovals",
      "outputs": [
        {
          "internalType": "uint256",
          "name": "",
          "type": "uint256"
        }
      ],
      "stateMutability": "view",
      "type": "function"
    },
    {
      "inputs": [],
      "name": "requiredConfirmations",
      "outputs": [
        {
          "internalType": "uint256",
          "name": "",
          "type": "uint256"
        }
      ],
      "stateMutability": "view",
      "type": "function"
    },
    {
      "inputs": [
        {
          "internalType": "uint256",
          "name": "txId",
          "type": "uint256"
        }
      ],
      "name": "revokeApproval",
      "outputs": [],
      "stateMutability": "nonpayable",
      "type": "function"
    },
    {
      "inputs": [
        {
          "internalType": "uint256",
          "name": "",
          "type": "uint256"
        }
      ],
      "name": "transactions",
      "outputs": [
        {
          "internalType": "address",
          "name": "to",
          "type": "address"
        },
        {
          "internalType": "uint256",
          "name": "value",
          "type": "uint256"
        },
        {
          "internalType": "bool",
          "name": "executed",
          "type": "bool"
        },
        {
          "internalType": "uint256",
          "name": "numConfirmations",
          "type": "uint256"
        },
        {
          "internalType": "bytes",
          "name": "data",
          "type": "bytes"
        }
      ],
      "stateMutability": "view",
      "type": "function"
    },
    {
      "inputs": [
        {
          "internalType": "uint256",
          "name": "newRequirement",
          "type": "uint256"
        }
      ],
      "name": "updateRequirement",
      "outputs": [],
      "stateMutability": "nonpayable",
      "type": "function"
    },
    {
      "stateMutability": "payable",
      "type": "receive"
    }
  ],
  "bytecode": "0x60806040523480156200001157600080fd5b5060405162001b3738038062001b37833981016040819052620000349162000270565b60008251116200007d5760405162461bcd60e51b815260206004820152600f60248201526e13dddb995c9cc81c995c5d5a5c9959608a1b60448201526064015b60405180910390fd5b6000811180156200008f575081518111155b620000dd5760405162461bcd60e51b815260206004820152601c60248201527f496e76616c696420617070726f76616c20726571756972656d656e7400000000604482015260640162000074565b60005b8251811015620002325760008382815181106200010157620001016200034a565b6020026020010151905060006001600160a01b0316816001600160a01b0316036200015f5760405162461bcd60e51b815260206004820152600d60248201526c24b73b30b634b21037bbb732b960991b604482015260640162000074565b6001600160a01b03811660009081526001602052604090205460ff1615620001bd5760405162461bcd60e51b815260206004820152601060248201526f4f776e6572206e6f7420756e6971756560801b604482015260640162000074565b6001600160a01b031660008181526001602081905260408220805460ff191682179055815490810182559080527f290decd9548b62a8d60345a988386fc84ba6bc95484008f6362f93160ef3e5630180546001600160a01b031916909117905580620002298162000360565b915050620000e0565b506002555062000388565b634e487b7160e01b600052604160045260246000fd5b80516001600160a01b03811681146200026b57600080fd5b919050565b600080604083850312156200028457600080fd5b82516001600160401b03808211156200029c57600080fd5b818501915085601f830112620002b157600080fd5b8151602082821115620002c857620002c86200023d565b8160051b604051601f19603f83011681018181108682111715620002f057620002f06200023d565b6040529283528183019350848101820192898411156200030f57600080fd5b948201945b838610156200033857620003288662000253565b8552948201949382019362000314565b97909101519698969750505050505050565b634e487b7160e01b600052603260045260246000fd5b6000600182016200038157634e487b7160e01b600052601160045260246000fd5b5060010190565b61179f80620003986000396000f3fe6080604052600436106101025760003560e01c80637065cb48116100955780639ace38c2116100645780639ace38c2146102f2578063a0e67e2b14610312578063b1e130fc14610334578063c47afb3a14610354578063ee22610b1461037457600080fd5b80637065cb481461026c5780638253951a1461028c57806382e717f7146102c757806399c1aadc146102dd57600080fd5b80632f54bf6e116100d15780632f54bf6e146101bb57806333ea3dc8146101fb57806340ad01ea1461022c57806356c316371461024c57600080fd5b8063025e7c271461010e578063117c7a561461014b578063173825d914610179578063242232d11461019b57600080fd5b3661010957005b600080fd5b34801561011a57600080fd5b5061012e61012936600461126e565b610394565b6040516001600160a01b0390911681526020015b60405180910390f35b34801561015757600080fd5b5061016b6101663660046112a3565b6103be565b604051908152602001610142565b34801561018557600080fd5b5061019961019436600461132a565b610537565b005b3480156101a757600080fd5b506101996101b636600461126e565b6107e4565b3480156101c757600080fd5b506101eb6101d636600461132a565b60016020526000908152604090205460ff1681565b6040519015158152602001610142565b34801561020757600080fd5b5061021b61021636600461126e565b61097d565b60405161014295949392919061134c565b34801561023857600080fd5b5061016b61024736600461126e565b610a82565b34801561025857600080fd5b506101eb6102673660046113c1565b610ab0565b34801561027857600080fd5b5061019961028736600461132a565b610add565b34801561029857600080fd5b506101eb6102a73660046113c1565b600460209081526000928352604080842090915290825290205460ff1681565b3480156102d357600080fd5b5061016b60025481565b3480156102e957600080fd5b5060025461016b565b3480156102fe57600080fd5b5061021b61030d36600461126e565b610c5d565b34801561031e57600080fd5b50610327610d38565b60405161014291906113ed565b34801561034057600080fd5b5061019961034f36600461126e565b610d9a565b34801561036057600080fd5b5061019961036f36600461126e565b610f2d565b34801561038057600080fd5b5061019961038f36600461126e565b611064565b600081815481106103a457600080fd5b6000918252602090912001546001600160a01b0316905081565b3360009081526001602052604081205460ff166103f65760405162461bcd60e51b81526004016103ed9061143a565b60405180910390fd5b600380549050905060036040518060a00160405280876001600160a01b031681526020018681526020016000151581526020016000815260200185858080601f0160208091040260200160405190810160405280939291908181526020018383808284376000920182905250939094525050835460018082018655948252602091829020845160059092020180546001600160a01b0319166001600160a01b03909216919091178155908301519381019390935550604081015160028301805460ff191691151591909117905560608101516003830155608081015190919060048201906104e490826114fc565b505050336001600160a01b0316817f2ecf8c4571be1f8a0b1e6feaa711128f3f8038e97869aa59d0f595e21f50eaa08787878760405161052794939291906115bc565b60405180910390a3949350505050565b3330146105865760405162461bcd60e51b815260206004820152601c60248201527f4f6e6c792077616c6c65742063616e2072656d6f7665206f776e65720000000060448201526064016103ed565b6001600160a01b03811660009081526001602052604090205460ff166105dd5760405162461bcd60e51b815260206004820152600c60248201526b2737ba1030b71037bbb732b960a11b60448201526064016103ed565b60005460011061062f5760405162461bcd60e51b815260206004820152601860248201527f43616e6e6f742072656d6f7665206c617374206f776e6572000000000000000060448201526064016103ed565b6002546000546106419060019061161a565b101561068f5760405162461bcd60e51b815260206004820152601760248201527f576f756c6420627265616b20726571756972656d656e7400000000000000000060448201526064016103ed565b6001600160a01b0381166000908152600160205260408120805460ff191690555b6000548110156107ac57816001600160a01b0316600082815481106106d7576106d761162d565b6000918252602090912001546001600160a01b03160361079a57600080546107019060019061161a565b815481106107115761071161162d565b600091825260208220015481546001600160a01b0390911691908390811061073b5761073b61162d565b6000918252602082200180546001600160a01b0319166001600160a01b03939093169290921790915580548061077357610773611643565b600082815260209020810160001990810180546001600160a01b03191690550190556107ac565b806107a481611659565b9150506106b0565b506040516001600160a01b038216907f58619076adf5bb0943d100ef88d52d7c3fd691b19d3a9071b555b651fbf418da90600090a250565b3360009081526001602052604090205460ff166108135760405162461bcd60e51b81526004016103ed9061143a565b600354819081106108365760405162461bcd60e51b81526004016103ed90611672565b816003818154811061084a5761084a61162d565b600091825260209091206002600590920201015460ff161561087e5760405162461bcd60e51b81526004016103ed906116a9565b6000838152600460209081526040808320338452909152902054839060ff16156108ea5760405162461bcd60e51b815260206004820152601c60248201527f5472616e73616374696f6e20616c726561647920617070726f7665640000000060448201526064016103ed565b60008481526004602090815260408083203384529091529020805460ff1916600190811790915560038054869081106109255761092561162d565b9060005260206000209060050201600301600082825461094591906116e0565b9091555050604051339085907f924813d717e221b5f46dcd8a56da1679e4612584ab3237d55e5faabf6f6a307990600090a350505050565b600080600080606060006003878154811061099a5761099a61162d565b906000526020600020906005020190508060000160009054906101000a90046001600160a01b031681600101548260020160009054906101000a900460ff168360030154846004018080546109ee90611473565b80601f0160208091040260200160405190810160405280929190818152602001828054610a1a90611473565b8015610a675780601f10610a3c57610100808354040283529160200191610a67565b820191906000526020600020905b815481529060010190602001808311610a4a57829003601f168201915b50505050509050955095509550955095505091939590929450565b600060038281548110610a9757610a9761162d565b9060005260206000209060050201600301549050919050565b60008281526004602090815260408083206001600160a01b038516845290915290205460ff165b92915050565b333014610b2c5760405162461bcd60e51b815260206004820152601960248201527f4f6e6c792077616c6c65742063616e20616464206f776e65720000000000000060448201526064016103ed565b6001600160a01b038116610b725760405162461bcd60e51b815260206004820152600d60248201526c24b73b30b634b21037bbb732b960991b60448201526064016103ed565b6001600160a01b03811660009081526001602052604090205460ff1615610bd25760405162461bcd60e51b81526020600482015260146024820152734f776e657220616c72656164792065786973747360601b60448201526064016103ed565b6001600160a01b0381166000818152600160208190526040808320805460ff191683179055825491820183558280527f290decd9548b62a8d60345a988386fc84ba6bc95484008f6362f93160ef3e56390910180546001600160a01b03191684179055517f994a936646fe87ffe4f1e469d3d6aa417d6b855598397f323de5b449f765f0c39190a250565b60038181548110610c6d57600080fd5b6000918252602090912060059091020180546001820154600283015460038401546004850180546001600160a01b039095169650929460ff90921693909290610cb590611473565b80601f0160208091040260200160405190810160405280929190818152602001828054610ce190611473565b8015610d2e5780601f10610d0357610100808354040283529160200191610d2e565b820191906000526020600020905b815481529060010190602001808311610d1157829003601f168201915b5050505050905085565b60606000805480602002602001604051908101604052809291908181526020018280548015610d9057602002820191906000526020600020905b81546001600160a01b03168152600190910190602001808311610d72575b5050505050905090565b3360009081526001602052604090205460ff16610dc95760405162461bcd60e51b81526004016103ed9061143a565b60035481908110610dec5760405162461bcd60e51b81526004016103ed90611672565b8160038181548110610e0057610e0061162d565b600091825260209091206002600590920201015460ff1615610e345760405162461bcd60e51b81526004016103ed906116a9565b600083815260046020908152604080832033845290915290205460ff16610e9d5760405162461bcd60e51b815260206004820152601860248201527f5472616e73616374696f6e206e6f7420617070726f766564000000000000000060448201526064016103ed565b60008381526004602090815260408083203384529091529020805460ff19169055600380546001919085908110610ed657610ed661162d565b90600052602060002090600502016003016000828254610ef6919061161a565b9091555050604051339084907f430c786ad6c97d1739e88415e23257a88a0a989b6bdc4e9e415b72bb53d869a890600090a3505050565b333014610f875760405162461bcd60e51b815260206004820152602260248201527f4f6e6c792077616c6c65742063616e2075706461746520726571756972656d656044820152611b9d60f21b60648201526084016103ed565b60008111610fd75760405162461bcd60e51b815260206004820152601c60248201527f526571756972656d656e74206d75737420626520706f7369746976650000000060448201526064016103ed565b6000548111156110295760405162461bcd60e51b815260206004820152601f60248201527f526571756972656d656e742065786365656473206f776e657220636f756e740060448201526064016103ed565b60028190556040518181527facbdb084c721332ac59f9b8e392196c9eb0e4932862da8eb9beaf0dad4f550da9060200160405180910390a150565b3360009081526001602052604090205460ff166110935760405162461bcd60e51b81526004016103ed9061143a565b600354819081106110b65760405162461bcd60e51b81526004016103ed90611672565b81600381815481106110ca576110ca61162d565b600091825260209091206002600590920201015460ff16156110fe5760405162461bcd60e51b81526004016103ed906116a9565b6000600384815481106111135761111361162d565b90600052602060002090600502019050600254816003015410156111705760405162461bcd60e51b81526020600482015260146024820152734e6f7420656e6f75676820617070726f76616c7360601b60448201526064016103ed565b60028101805460ff191660019081179091558154908201546040516000926001600160a01b031691906111a79060048601906116f3565b60006040518083038185875af1925050503d80600081146111e4576040519150601f19603f3d011682016040523d82523d6000602084013e6111e9565b606091505b505090508061123a5760405162461bcd60e51b815260206004820152601c60248201527f5472616e73616374696f6e20657865637574696f6e206661696c65640000000060448201526064016103ed565b604051339086907fefc13bdcf58f184ea7cae26b499fb33b539e01d0197cea456f3ada289b8cf19b90600090a35050505050565b60006020828403121561128057600080fd5b5035919050565b80356001600160a01b038116811461129e57600080fd5b919050565b600080600080606085870312156112b957600080fd5b6112c285611287565b935060208501359250604085013567ffffffffffffffff808211156112e657600080fd5b818701915087601f8301126112fa57600080fd5b81358181111561130957600080fd5b88602082850101111561131b57600080fd5b95989497505060200194505050565b60006020828403121561133c57600080fd5b61134582611287565b9392505050565b60018060a01b0386168152600060208681840152851515604084015284606084015260a0608084015283518060a085015260005b8181101561139c5785810183015185820160c001528201611380565b50600060c0828601015260c0601f19601f830116850101925050509695505050505050565b600080604083850312156113d457600080fd5b823591506113e460208401611287565b90509250929050565b6020808252825182820181905260009190848201906040850190845b8181101561142e5783516001600160a01b031683529284019291840191600101611409565b50909695505050505050565b6020808252600990820152682737ba1037bbb732b960b91b604082015260600190565b634e487b7160e01b600052604160045260246000fd5b600181811c9082168061148757607f821691505b6020821081036114a757634e487b7160e01b600052602260045260246000fd5b50919050565b601f8211156114f757600081815260208120601f850160051c810160208610156114d45750805b601f850160051c820191505b818110156114f3578281556001016114e0565b5050505b505050565b815167ffffffffffffffff8111156115165761151661145d565b61152a816115248454611473565b846114ad565b602080601f83116001811461155f57600084156115475750858301515b600019600386901b1c1916600185901b1785556114f3565b600085815260208120601f198616915b8281101561158e5788860151825594840194600190910190840161156f565b50858210156115ac5787850151600019600388901b60f8161c191681555b5050505050600190811b01905550565b6001600160a01b0385168152602081018490526060604082018190528101829052818360808301376000818301608090810191909152601f909201601f191601019392505050565b634e487b7160e01b600052601160045260246000fd5b81810381811115610ad757610ad7611604565b634e487b7160e01b600052603260045260246000fd5b634e487b7160e01b600052603160045260246000fd5b60006001820161166b5761166b611604565b5060010190565b6020808252601a908201527f5472616e73616374696f6e20646f6573206e6f74206578697374000000000000604082015260600190565b6020808252601c908201527f5472616e73616374696f6e20616c726561647920657865637574656400000000604082015260600190565b80820180821115610ad757610ad7611604565b600080835461170181611473565b60018281168015611719576001811461172e5761175d565b60ff198416875282151583028701945061175d565b8760005260208060002060005b858110156117545781548a82015290840190820161173b565b50505082870194505b5092969550505050505056fea264697066735822122057d8d6bea9033b0068ec4f43fcae397943a1c379c9e4fb196bf73a8632f7e0b264736f6c63430008130033",
  "linkReferences": {},
  "deployedLinkReferences": {}
}