{
  "_format": "hh-sol-artifact-1",
  "contractName": "SharpWallet",
  "sourceName": "contracts/SharpWallet.sol",
  "abi": [
    {
      "inputs": [
        {
          "internalType": "address[]",
          "name": "_owners",
          "type": "address[]"
        },
        {
          "internalType": "uint256",
          "name": "_requiredApprovals",
          "type": "uint256"
        }
      ],
      "stateMutability": "nonpayable",
      "type": "constructor"
    },
    {
      "inputs": [],
      "name": "NotOwner",
      "type": "error"
    },
    {
      "inputs": [],
      "name": "TxAlreadyApproved",
      "type": "error"
    },
    {
      "inputs": [],
      "name": "TxAlreadyExecuted",
      "type": "error"
    },
    {
      "inputs": [],
      "name": "TxDoesNotExist",
      "type": "error"
    },
    {
      "anonymous": false,
      "inputs": [
        {
          "indexed": true,
          "internalType": "uint256",
          "name": "txId",
          "type": "uint256"
        },
        {
          "indexed": true,
          "internalType": "address",
          "name": "owner",
          "type": "address"
        }
      ],
      "name": "ApprovalRevoked",
      "type": "event"
    },
    {
      "anonymous": false,
      "inputs": [
        {
          "indexed": true,
          "internalType": "address",
          "name": "sender",
          "type": "address"
        },
        {
          "indexed": false,
          "internalType": "uint256",
          "name": "amount",
          "type": "uint256"
        }
      ],
      "name": "Deposit",
      "type": "event"
    },
    {
      "anonymous": false,
      "inputs": [
        {
          "indexed": true,
          "internalType": "address",
          "name": "newOwner",
          "type": "address"
        }
      ],
      "name": "OwnerAdded",
      "type": "event"
    },
    {
      "anonymous": false,
      "inputs": [
        {
          "indexed": true,
          "internalType": "address",
          "name": "oldOwner",
          "type": "address"
        }
      ],
      "name": "OwnerRemoved",
      "type": "event"
    },
    {
      "anonymous": false,
      "inputs": [
        {
          "indexed": false,
          "internalType": "uint256",
          "name": "newRequirement",
          "type": "uint256"
        }
      ],
      "name": "RequirementChanged",
      "type": "event"
    },
    {
      "anonymous": false,
      "inputs": [
        {
          "indexed": true,
          "internalType": "uint256",
          "name": "txId",
          "type": "uint256"
        },
        {
          "indexed": true,
          "internalType": "address",
          "name": "owner",
          "type": "address"
        }
      ],
      "name": "TransactionApproved",
      "type": "event"
    },
    {
      "anonymous": false,
      "inputs": [
        {
          "indexed": true,
          "internalType": "uint256",
          "name": "txId",
          "type": "uint256"
        },
        {
          "indexed": true,
          "internalType": "address",
          "name": "executor",
          "type": "address"
        }
      ],
      "name": "TransactionExecuted",
      "type": "event"
    },
    {
      "anonymous": false,
      "inputs": [
        {
          "indexed": true,
          "internalType": "uint256",
          "name": "txId",
          "type": "uint256"
        },
        {
          "indexed": true,
          "internalType": "address",
          "name": "proposer",
          "type": "address"
        },
        {
          "indexed": false,
          "internalType": "address",
          "name": "to",
          "type": "address"
        },
        {
          "indexed": false,
          "internalType": "uint256",
          "name": "value",
          "type": "uint256"
        },
        {
          "indexed": false,
          "internalType": "bytes",
          "name": "data",
          "type": "bytes"
        }
      ],
      "name": "TransactionSubmitted",
      "type": "event"
    },
    {
      "inputs": [
        {
          "internalType": "address",
          "name": "newOwner",
          "type": "address"
        }
      ],
      "name": "addOwner",
      "outputs": [],
      "stateMutability": "nonpayable",
      "type": "function"
    },
    {
      "inputs": [
        {
          "internalType": "uint256",
          "name": "txId",
          "type": "uint256"
        }
      ],
      "name": "approvalCount",
      "outputs": [
        {
          "internalType": "uint256",
          "name": "",
          "type": "uint256"
        }
      ],
      "stateMutability": "view",
      "type": "function"
    },
    {
      "inputs": [
        {
          "internalType": "uint256",
          "name": "txId",
          "type": "uint256"
        }
      ],
      "name": "approveTransaction",
      "outputs": [],
      "stateMutability": "nonpayable",
      "type": "function"
    },
    {
      "inputs": [
        {
          "internalType": "uint256",
          "name": "",
          "type": "uint256"
        },
        {
          "internalType": "address",
          "name": "",
          "type": "address"
        }
      ],
      "name": "approved",
      "outputs": [
        {
          "internalType": "bool",
          "name": "",
          "type": "bool"
        }
      ],
      "stateMutability": "view",
      "type": "function"
    },
    {
      "inputs": [
        {
          "internalType": "uint256",
          "name": "txId",
          "type": "uint256"
        }
      ],
      "name": "executeTransaction",
      "outputs": [],
      "stateMutability": "nonpayable",
      "type": "function"
    },
    {
      "inputs": [],
      "name": "getBalance",
      "outputs": [
        {
          "internalType": "uint256",
          "name": "",
          "type": "uint256"
        }
      ],
      "stateMutability": "view",
      "type": "function"
    },
    {
      "inputs": [],
      "name": "getOwners",
      "outputs": [
        {
          "internalType": "address[]",
          "name": "",
          "type": "address[]"
        }
      ],
      "stateMutability": "view",
      "type": "function"
    },
    {
      "inputs": [
        {
          "internalType": "uint256",
          "name": "txId",
          "type": "uint256"
        }
      ],
      "name": "getTransaction",
      "outputs": [
        {
          "internalType": "address",
          "name": "to",
          "type": "address"
        },
        {
          "internalType": "uint256",
          "name": "value",
          "type": "uint256"
        },
        {
          "internalType": "bool",
          "name": "executed",
          "type": "bool"
        },
        {
          "internalType": "uint256",
          "name": "numConfirmations",
          "type": "uint256"
        },
        {
          "internalType": "bytes",
          "name": "data",
          "type": "bytes"
        }
      ],
      "stateMutability": "view",
      "type": "function"
    },
    {
      "inputs": [],
      "name": "getTransactionCount",
      "outputs": [
        {
          "internalType": "uint256",
          "name": "",
          "type": "uint256"
        }
      ],
      "stateMutability": "view",
      "type": "function"
    },
    {
      "inputs": [
        {
          "internalType": "uint256",
          "name": "txId",
          "type": "uint256"
        },
        {
          "internalType": "address",
          "name": "owner",
          "type": "address"
        }
      ],
      "name": "isApproved",
      "outputs": [
        {
          "internalType": "bool",
          "name": "",
          "type": "bool"
        }
      ],
      "stateMutability": "view",
      "type": "function"
    },
    {
      "inputs": [
        {
          "internalType": "address",
          "name": "",
          "type": "address"
        }
      ],
      "name": "isOwner",
      "outputs": [
        {
          "internalType": "bool",
          "name": "",
          "type": "bool"
        }
      ],
      "stateMutability": "view",
      "type": "function"
    },
    {
      "inputs": [
        {
          "internalType": "address",
          "name": "to",
          "type": "address"
        },
        {
          "internalType": "uint256",
          "name": "value",
          "type": "uint256"
        },
        {
          "internalType": "bytes",
          "name": "data",
          "type": "bytes"
        }
      ],
      "name": "newTransaction",
      "outputs": [
        {
          "internalType": "uint256",
          "name": "txId",
          "type": "uint256"
        }
      ],
      "stateMutability": "nonpayable",
      "type": "function"
    },
    {
      "inputs": [
        {
          "internalType": "uint256",
          "name": "",
          "type": "uint256"
        }
      ],
      "name": "owners",
      "outputs": [
        {
          "internalType": "address",
          "name": "",
          "type": "address"
        }
      ],
      "stateMutability": "view",
      "type": "function"
    },
    {
      "inputs": [
        {
          "internalType": "address",
          "name": "owner",
          "type": "address"
        }
      ],
      "name": "removeOwner",
      "outputs": [],
      "stateMutability": "nonpayable",
      "type": "function"
    },
    {
      "inputs": [],
      "name": "requiredApprovals",
      "outputs": [
        {
          "internalType": "uint256",
          "name": "",
          "type": "uint256"
        }
      ],
      "stateMutability": "view",
      "type": "function"
    },
    {
      "inputs": [],
      "name": "requiredConfirmations",
      "outputs": [
        {
          "internalType": "uint256",
          "name": "",
          "type": "uint256"
        }
      ],
      "stateMutability": "view",
      "type": "function"
    },
    {
      "inputs": [
        {
          "internalType": "uint256",
          "name": "txId",
          "type": "uint256"
        }
      ],
      "name": "revokeApproval",
      "outputs": [],
      "stateMutability": "nonpayable",
      "type": "function"
    },
    {
      "inputs": [
        {
          "internalType": "uint256",
          "name": "",
          "type": "uint256"
        }
      ],
      "name": "transactions",
      "outputs": [
        {
          "internalType": "address",
          "name": "to",
          "type": "address"
        },
        {
          "internalType": "uint256",
          "name": "value",
          "type": "uint256"
        },
        {
          "internalType": "bool",
          "name": "executed",
          "type": "bool"
        },
        {
          "internalType": "uint256",
          "name": "numConfirmations",
          "type": "uint256"
        },
        {
          "internalType": "bytes",
          "name": "data",
          "type": "bytes"
        }
      ],
      "stateMutability": "view",
      "type": "function"
    },
    {
      "inputs": [
        {
          "internalType": "uint256",
          "name": "newRequirement",
          "type": "uint256"
        }
      ],
      "name": "updateRequirement",
      "outputs": [],
      "stateMutability": "nonpayable",
      "type": "function"
    },
    {
      "stateMutability": "payable",
      "type": "receive"
    }
  ],
  "bytecode": "0x60806040523480156200001157600080fd5b5060405162001b5738038062001b57833981016040819052620000349162000280565b60008251116200007d5760405162461bcd60e51b815260206004820152600f60248201526e13dddb995c9cc81c995c5d5a5c9959608a1b60448201526064015b60405180910390fd5b6000811180156200008f575081518111155b620000dd5760405162461bcd60e51b815260206004820152601c60248201527f496e76616c696420617070726f76616c20726571756972656d656e7400000000604482015260640162000074565b60005b8251811015620002425760008382815181106200010157620001016200035a565b6020026020010151905060006001600160a01b0316816001600160a01b0316036200016f5760405162461bcd60e51b815260206004820152601560248201527f496e76616c6964206f776e657220616464726573730000000000000000000000604482015260640162000074565b6001600160a01b03811660009081526001602052604090205460ff1615620001cd5760405162461bcd60e51b815260206004820152601060248201526f4f776e6572206e6f7420756e6971756560801b604482015260640162000074565b6001600160a01b031660008181526001602081905260408220805460ff191682179055815490810182559080527f290decd9548b62a8d60345a988386fc84ba6bc95484008f6362f93160ef3e5630180546001600160a01b031916909117905580620002398162000370565b915050620000e0565b506002555062000398565b634e487b7160e01b600052604160045260246000fd5b80516001600160a01b03811681146200027b57600080fd5b919050565b600080604083850312156200029457600080fd5b82516001600160401b0380821115620002ac57600080fd5b818501915085601f830112620002c157600080fd5b8151602082821115620002d857620002d86200024d565b8160051b604051601f19603f830116810181811086821117156200030057620003006200024d565b6040529283528183019350848101820192898411156200031f57600080fd5b948201945b838610156200034857620003388662000263565b8552948201949382019362000324565b97909101519698969750505050505050565b634e487b7160e01b600052603260045260246000fd5b6000600182016200039157634e487b7160e01b600052601160045260246000fd5b5060010190565b6117af80620003a86000396000f3fe6080604052600436106101185760003560e01c806356c31637116100a05780639ace38c2116100645780639ace38c214610365578063a0e67e2b14610385578063b1e130fc146103a7578063c47afb3a146103c7578063ee22610b146103e757600080fd5b806356c31637146102bf5780637065cb48146102df5780638253951a146102ff57806382e717f71461033a57806399c1aadc1461035057600080fd5b8063242232d1116100e7578063242232d1146101f95780632e7700f0146102195780632f54bf6e1461022e57806333ea3dc81461026e57806340ad01ea1461029f57600080fd5b8063025e7c2714610159578063117c7a561461019657806312065fe0146101c4578063173825d9146101d757600080fd5b366101545760405134815233907fe1fffcc4923d04b559f4d29a8bfc6cda04eb5b0d3c460751c2402c5c5cc9109c9060200160405180910390a2005b600080fd5b34801561016557600080fd5b5061017961017436600461130f565b610407565b6040516001600160a01b0390911681526020015b60405180910390f35b3480156101a257600080fd5b506101b66101b1366004611344565b610431565b60405190815260200161018d565b3480156101d057600080fd5b50476101b6565b3480156101e357600080fd5b506101f76101f23660046113cb565b6105f6565b005b34801561020557600080fd5b506101f761021436600461130f565b6108a3565b34801561022557600080fd5b506003546101b6565b34801561023a57600080fd5b5061025e6102493660046113cb565b60016020526000908152604090205460ff1681565b604051901515815260200161018d565b34801561027a57600080fd5b5061028e61028936600461130f565b610a10565b60405161018d9594939291906113ed565b3480156102ab57600080fd5b506101b66102ba36600461130f565b610b15565b3480156102cb57600080fd5b5061025e6102da366004611462565b610b43565b3480156102eb57600080fd5b506101f76102fa3660046113cb565b610b70565b34801561030b57600080fd5b5061025e61031a366004611462565b600460209081526000928352604080842090915290825290205460ff1681565b34801561034657600080fd5b506101b660025481565b34801561035c57600080fd5b506002546101b6565b34801561037157600080fd5b5061028e61038036600461130f565b610cf8565b34801561039157600080fd5b5061039a610dd3565b60405161018d919061148e565b3480156103b357600080fd5b506101f76103c236600461130f565b610e35565b3480156103d357600080fd5b506101f76103e236600461130f565b610fcb565b3480156103f357600080fd5b506101f761040236600461130f565b611102565b6000818154811061041757600080fd5b6000918252602090912001546001600160a01b0316905081565b3360009081526001602052604081205460ff16610461576040516330cd747160e01b815260040160405180910390fd5b6001600160a01b0385166104b55760405162461bcd60e51b8152602060048201526016602482015275496e76616c696420746172676574206164647265737360501b60448201526064015b60405180910390fd5b600380549050905060036040518060a00160405280876001600160a01b031681526020018681526020016000151581526020016000815260200185858080601f0160208091040260200160405190810160405280939291908181526020018383808284376000920182905250939094525050835460018082018655948252602091829020845160059092020180546001600160a01b0319166001600160a01b03909216919091178155908301519381019390935550604081015160028301805460ff191691151591909117905560608101516003830155608081015190919060048201906105a3908261157a565b505050336001600160a01b0316817f2ecf8c4571be1f8a0b1e6feaa711128f3f8038e97869aa59d0f595e21f50eaa0878787876040516105e6949392919061163a565b60405180910390a3949350505050565b3330146106455760405162461bcd60e51b815260206004820152601c60248201527f4f6e6c792077616c6c65742063616e2072656d6f7665206f776e65720000000060448201526064016104ac565b6001600160a01b03811660009081526001602052604090205460ff1661069c5760405162461bcd60e51b815260206004820152600c60248201526b2737ba1030b71037bbb732b960a11b60448201526064016104ac565b6000546001106106ee5760405162461bcd60e51b815260206004820152601860248201527f43616e6e6f742072656d6f7665206c617374206f776e6572000000000000000060448201526064016104ac565b60025460005461070090600190611698565b101561074e5760405162461bcd60e51b815260206004820152601760248201527f576f756c6420627265616b20726571756972656d656e7400000000000000000060448201526064016104ac565b6001600160a01b0381166000908152600160205260408120805460ff191690555b60005481101561086b57816001600160a01b031660008281548110610796576107966116ab565b6000918252602090912001546001600160a01b03160361085957600080546107c090600190611698565b815481106107d0576107d06116ab565b600091825260208220015481546001600160a01b039091169190839081106107fa576107fa6116ab565b6000918252602082200180546001600160a01b0319166001600160a01b039390931692909217909155805480610832576108326116c1565b600082815260209020810160001990810180546001600160a01b031916905501905561086b565b80610863816116d7565b91505061076f565b506040516001600160a01b038216907f58619076adf5bb0943d100ef88d52d7c3fd691b19d3a9071b555b651fbf418da90600090a250565b3360009081526001602052604090205460ff166108d3576040516330cd747160e01b815260040160405180910390fd5b600354819081106108f757604051639e1b596f60e01b815260040160405180910390fd5b816003818154811061090b5761090b6116ab565b600091825260209091206002600590920201015460ff161561094057604051632ea945cf60e01b815260040160405180910390fd5b6000838152600460209081526040808320338452909152902054839060ff161561097d57604051635db7ec0d60e01b815260040160405180910390fd5b60008481526004602090815260408083203384529091529020805460ff1916600190811790915560038054869081106109b8576109b86116ab565b906000526020600020906005020160030160008282546109d891906116f0565b9091555050604051339085907f924813d717e221b5f46dcd8a56da1679e4612584ab3237d55e5faabf6f6a307990600090a350505050565b6000806000806060600060038781548110610a2d57610a2d6116ab565b906000526020600020906005020190508060000160009054906101000a90046001600160a01b031681600101548260020160009054906101000a900460ff16836003015484600401808054610a81906114f1565b80601f0160208091040260200160405190810160405280929190818152602001828054610aad906114f1565b8015610afa5780601f10610acf57610100808354040283529160200191610afa565b820191906000526020600020905b815481529060010190602001808311610add57829003601f168201915b50505050509050955095509550955095505091939590929450565b600060038281548110610b2a57610b2a6116ab565b9060005260206000209060050201600301549050919050565b60008281526004602090815260408083206001600160a01b038516845290915290205460ff165b92915050565b333014610bbf5760405162461bcd60e51b815260206004820152601960248201527f4f6e6c792077616c6c65742063616e20616464206f776e65720000000000000060448201526064016104ac565b6001600160a01b038116610c0d5760405162461bcd60e51b8152602060048201526015602482015274496e76616c6964206f776e6572206164647265737360581b60448201526064016104ac565b6001600160a01b03811660009081526001602052604090205460ff1615610c6d5760405162461bcd60e51b81526020600482015260146024820152734f776e657220616c72656164792065786973747360601b60448201526064016104ac565b6001600160a01b0381166000818152600160208190526040808320805460ff191683179055825491820183558280527f290decd9548b62a8d60345a988386fc84ba6bc95484008f6362f93160ef3e56390910180546001600160a01b03191684179055517f994a936646fe87ffe4f1e469d3d6aa417d6b855598397f323de5b449f765f0c39190a250565b60038181548110610d0857600080fd5b6000918252602090912060059091020180546001820154600283015460038401546004850180546001600160a01b039095169650929460ff90921693909290610d50906114f1565b80601f0160208091040260200160405190810160405280929190818152602001828054610d7c906114f1565b8015610dc95780601f10610d9e57610100808354040283529160200191610dc9565b820191906000526020600020905b815481529060010190602001808311610dac57829003601f168201915b5050505050905085565b60606000805480602002602001604051908101604052809291908181526020018280548015610e2b57602002820191906000526020600020905b81546001600160a01b03168152600190910190602001808311610e0d575b5050505050905090565b3360009081526001602052604090205460ff16610e65576040516330cd747160e01b815260040160405180910390fd5b60035481908110610e8957604051639e1b596f60e01b815260040160405180910390fd5b8160038181548110610e9d57610e9d6116ab565b600091825260209091206002600590920201015460ff1615610ed257604051632ea945cf60e01b815260040160405180910390fd5b600083815260046020908152604080832033845290915290205460ff16610f3b5760405162461bcd60e51b815260206004820152601860248201527f5472616e73616374696f6e206e6f7420617070726f766564000000000000000060448201526064016104ac565b60008381526004602090815260408083203384529091529020805460ff19169055600380546001919085908110610f7457610f746116ab565b90600052602060002090600502016003016000828254610f949190611698565b9091555050604051339084907f430c786ad6c97d1739e88415e23257a88a0a989b6bdc4e9e415b72bb53d869a890600090a3505050565b3330146110255760405162461bcd60e51b815260206004820152602260248201527f4f6e6c792077616c6c65742063616e2075706461746520726571756972656d656044820152611b9d60f21b60648201526084016104ac565b600081116110755760405162461bcd60e51b815260206004820152601c60248201527f526571756972656d656e74206d75737420626520706f7369746976650000000060448201526064016104ac565b6000548111156110c75760405162461bcd60e51b815260206004820152601f60248201527f526571756972656d656e742065786365656473206f776e657220636f756e740060448201526064016104ac565b60028190556040518181527facbdb084c721332ac59f9b8e392196c9eb0e4932862da8eb9beaf0dad4f550da9060200160405180910390a150565b3360009081526001602052604090205460ff16611132576040516330cd747160e01b815260040160405180910390fd5b6003548190811061115657604051639e1b596f60e01b815260040160405180910390fd5b816003818154811061116a5761116a6116ab565b600091825260209091206002600590920201015460ff161561119f57604051632ea945cf60e01b815260040160405180910390fd5b6000600384815481106111b4576111b46116ab565b90600052602060002090600502019050600254816003015410156112115760405162461bcd60e51b81526020600482015260146024820152734e6f7420656e6f75676820617070726f76616c7360601b60448201526064016104ac565b60028101805460ff191660019081179091558154908201546040516000926001600160a01b03169190611248906004860190611703565b60006040518083038185875af1925050503d8060008114611285576040519150601f19603f3d011682016040523d82523d6000602084013e61128a565b606091505b50509050806112db5760405162461bcd60e51b815260206004820152601c60248201527f5472616e73616374696f6e20657865637574696f6e206661696c65640000000060448201526064016104ac565b604051339086907fefc13bdcf58f184ea7cae26b499fb33b539e01d0197cea456f3ada289b8cf19b90600090a35050505050565b60006020828403121561132157600080fd5b5035919050565b80356001600160a01b038116811461133f57600080fd5b919050565b6000806000806060858703121561135a57600080fd5b61136385611328565b935060208501359250604085013567ffffffffffffffff8082111561138757600080fd5b818701915087601f83011261139b57600080fd5b8135818111156113aa57600080fd5b8860208285010111156113bc57600080fd5b95989497505060200194505050565b6000602082840312156113dd57600080fd5b6113e682611328565b9392505050565b60018060a01b0386168152600060208681840152851515604084015284606084015260a0608084015283518060a085015260005b8181101561143d5785810183015185820160c001528201611421565b50600060c0828601015260c0601f19601f830116850101925050509695505050505050565b6000806040838503121561147557600080fd5b8235915061148560208401611328565b90509250929050565b6020808252825182820181905260009190848201906040850190845b818110156114cf5783516001600160a01b0316835292840192918401916001016114aa565b50909695505050505050565b634e487b7160e01b600052604160045260246000fd5b600181811c9082168061150557607f821691505b60208210810361152557634e487b7160e01b600052602260045260246000fd5b50919050565b601f82111561157557600081815260208120601f850160051c810160208610156115525750805b601f850160051c820191505b818110156115715782815560010161155e565b5050505b505050565b815167ffffffffffffffff811115611594576115946114db565b6115a8816115a284546114f1565b8461152b565b602080601f8311600181146115dd57600084156115c55750858301515b600019600386901b1c1916600185901b178555611571565b600085815260208120601f198616915b8281101561160c578886015182559484019460019091019084016115ed565b508582101561162a5787850151600019600388901b60f8161c191681555b5050505050600190811b01905550565b6001600160a01b0385168152602081018490526060604082018190528101829052818360808301376000818301608090810191909152601f909201601f191601019392505050565b634e487b7160e01b600052601160045260246000fd5b81810381811115610b6a57610b6a611682565b634e487b7160e01b600052603260045260246000fd5b634e487b7160e01b600052603160045260246000fd5b6000600182016116e9576116e9611682565b5060010190565b80820180821115610b6a57610b6a611682565b6000808354611711816114f1565b60018281168015611729576001811461173e5761176d565b60ff198416875282151583028701945061176d565b8760005260208060002060005b858110156117645781548a82015290840190820161174b565b50505082870194505b5092969550505050505056fea2646970667358221220e6901764f09a0606693953ec6593e4b19e20924a4057d99d7bc4b56d4fcb9c1a64736f6c63430008130033",
  "linkReferences": {},
  "deployedLinkReferences": {}
}