{
  "_format": "hh-sol-artifact-1",
  "contractName": "SharpWallet",
  "sourceName": "contracts/SharpWallet.sol",
  "abi": [
    {
      "inputs": [
        {
          "internalType": "address[]",
          "name": "_owners",
          "type": "address[]"
        },
        {
          "internalType": "uint256",
          "name": "_requiredApprovals",
          "type": "uint256"
        }
      ],
      "stateMutability": "nonpayable",
      "type": "constructor"
    },
    {
      "inputs": [],
      "name": "NotOwner",
      "type": "error"
    },
    {
      "inputs": [],
      "name": "TxAlreadyApproved",
      "type": "error"
    },
    {
      "inputs": [],
      "name": "TxAlreadyExecuted",
      "type": "error"
    },
    {
      "inputs": [],
      "name": "TxDoesNotExist",
      "type": "error"
    },
    {
      "anonymous": false,
      "inputs": [
        {
          "indexed": true,
          "internalType": "uint256",
          "name": "txId",
          "type": "uint256"
        },
        {
          "indexed": true,
          "internalType": "address",
          "name": "owner",
          "type": "address"
        }
      ],
      "name": "ApprovalRevoked",
      "type": "event"
    },
    {
      "anonymous": false,
      "inputs": [
        {
          "indexed": true,
          "internalType": "address",
          "name": "sender",
          "type": "address"
        },
        {
          "indexed": false,
          "internalType": "uint256",
          "name": "amount",
          "type": "uint256"
        }
      ],
      "name": "Deposit",
      "type": "event"
    },
    {
      "anonymous": false,
      "inputs": [
        {
          "indexed": true,
          "internalType": "address",
          "name": "newOwner",
          "type": "address"
        }
      ],
      "name": "OwnerAdded",
      "type": "event"
    },
    {
      "anonymous": false,
      "inputs": [
        {
          "indexed": true,
          "internalType": "address",
          "name": "oldOwner",
          "type": "address"
        }
      ],
      "name": "OwnerRemoved",
      "type": "event"
    },
    {
      "anonymous": false,
      "inputs": [
        {
          "indexed": false,
          "internalType": "uint256",
          "name": "newRequirement",
          "type": "uint256"
        }
      ],
      "name": "RequirementChanged",
      "type": "event"
    },
    {
      "anonymous": false,
      "inputs": [
        {
          "indexed": true,
          "internalType": "uint256",
          "name": "txId",
          "type": "uint256"
        },
        {
          "indexed": true,
          "internalType": "address",
          "name": "owner",
          "type": "address"
        }
      ],
      "name": "TransactionApproved",
      "type": "event"
    },
    {
      "anonymous": false,
      "inputs": [
        {
          "indexed": true,
          "internalType": "uint256",
          "name": "txId",
          "type": "uint256"
        },
        {
          "indexed": true,
          "internalType": "address",
          "name": "executor",
          "type": "address"
        }
      ],
      "name": "TransactionExecuted",
      "type": "event"
    },
    {
      "anonymous": false,
      "inputs": [
        {
          "indexed": true,
          "internalType": "uint256",
          "name": "txId",
          "type": "uint256"
        },
        {
          "indexed": true,
          "internalType": "address",
          "name": "proposer",
          "type": "address"
        },
        {
          "indexed": false,
          "internalType": "address",
          "name": "to",
          "type": "address"
        },
        {
          "indexed": false,
          "internalType": "uint256",
          "name": "value",
          "type": "uint256"
        },
        {
          "indexed": false,
          "internalType": "bytes",
          "name": "data",
          "type": "bytes"
        }
      ],
      "name": "TransactionSubmitted",
      "type": "event"
    },
    {
      "stateMutability": "payable",
      "type": "fallback"
    },
    {
      "inputs": [
        {
          "internalType": "uint256",
          "name": "txId",
          "type": "uint256"
        }
      ],
      "name": "approvalCount",
      "outputs": [
        {
          "internalType": "uint256",
          "name": "",
          "type": "uint256"
        }
      ],
      "stateMutability": "view",
      "type": "function"
    },
    {
      "inputs": [
        {
          "internalType": "uint256",
          "name": "txId",
          "type": "uint256"
        }
      ],
      "name": "approveTransaction",
      "outputs": [],
      "stateMutability": "nonpayable",
      "type": "function"
    },
    {
      "inputs": [
        {
          "internalType": "uint256",
          "name": "",
          "type": "uint256"
        },
        {
          "internalType": "address",
          "name": "",
          "type": "address"
        }
      ],
      "name": "approved",
      "outputs": [
        {
          "internalType": "bool",
          "name": "",
          "type": "bool"
        }
      ],
      "stateMutability": "view",
      "type": "function"
    },
    {
      "inputs": [
        {
          "internalType": "uint256",
          "name": "txId",
          "type": "uint256"
        }
      ],
      "name": "executeTransaction",
      "outputs": [],
      "stateMutability": "nonpayable",
      "type": "function"
    },
    {
      "inputs": [],
      "name": "getBalance",
      "outputs": [
        {
          "internalType": "uint256",
          "name": "",
          "type": "uint256"
        }
      ],
      "stateMutability": "view",
      "type": "function"
    },
    {
      "inputs": [],
      "name": "getOwners",
      "outputs": [
        {
          "internalType": "address[]",
          "name": "",
          "type": "address[]"
        }
      ],
      "stateMutability": "view",
      "type": "function"
    },
    {
      "inputs": [
        {
          "internalType": "uint256",
          "name": "txId",
          "type": "uint256"
        }
      ],
      "name": "getTransaction",
      "outputs": [
        {
          "internalType": "address",
          "name": "to",
          "type": "address"
        },
        {
          "internalType": "uint256",
          "name": "value",
          "type": "uint256"
        },
        {
          "internalType": "bool",
          "name": "executed",
          "type": "bool"
        },
        {
          "internalType": "uint256",
          "name": "numConfirmations",
          "type": "uint256"
        },
        {
          "internalType": "bytes",
          "name": "data",
          "type": "bytes"
        }
      ],
      "stateMutability": "view",
      "type": "function"
    },
    {
      "inputs": [],
      "name": "getTransactionCount",
      "outputs": [
        {
          "internalType": "uint256",
          "name": "",
          "type": "uint256"
        }
      ],
      "stateMutability": "view",
      "type": "function"
    },
    {
      "inputs": [
        {
          "internalType": "uint256",
          "name": "txId",
          "type": "uint256"
        },
        {
          "internalType": "address",
          "name": "owner",
          "type": "address"
        }
      ],
      "name": "isApproved",
      "outputs": [
        {
          "internalType": "bool",
          "name": "",
          "type": "bool"
        }
      ],
      "stateMutability": "view",
      "type": "function"
    },
    {
      "inputs": [
        {
          "internalType": "address",
          "name": "",
          "type": "address"
        }
      ],
      "name": "isOwner",
      "outputs": [
        {
          "internalType": "bool",
          "name": "",
          "type": "bool"
        }
      ],
      "stateMutability": "view",
      "type": "function"
    },
    {
      "inputs": [
        {
          "internalType": "address",
          "name": "to",
          "type": "address"
        },
        {
          "internalType": "uint256",
          "name": "value",
          "type": "uint256"
        },
        {
          "internalType": "bytes",
          "name": "data",
          "type": "bytes"
        }
      ],
      "name": "newTransaction",
      "outputs": [
        {
          "internalType": "uint256",
          "name": "txId",
          "type": "uint256"
        }
      ],
      "stateMutability": "nonpayable",
      "type": "function"
    },
    {
      "inputs": [
        {
          "internalType": "uint256",
          "name": "",
          "type": "uint256"
        }
      ],
      "name": "owners",
      "outputs": [
        {
          "internalType": "address",
          "name": "",
          "type": "address"
        }
      ],
      "stateMutability": "view",
      "type": "function"
    },
    {
      "inputs": [],
      "name": "requiredApprovals",
      "outputs": [
        {
          "internalType": "uint256",
          "name": "",
          "type": "uint256"
        }
      ],
      "stateMutability": "view",
      "type": "function"
    },
    {
      "inputs": [],
      "name": "requiredConfirmations",
      "outputs": [
        {
          "internalType": "uint256",
          "name": "",
          "type": "uint256"
        }
      ],
      "stateMutability": "view",
      "type": "function"
    },
    {
      "inputs": [
        {
          "internalType": "uint256",
          "name": "txId",
          "type": "uint256"
        }
      ],
      "name": "revokeApproval",
      "outputs": [],
      "stateMutability": "nonpayable",
      "type": "function"
    },
    {
      "inputs": [
        {
          "internalType": "uint256",
          "name": "",
          "type": "uint256"
        }
      ],
      "name": "transactions",
      "outputs": [
        {
          "internalType": "address",
          "name": "to",
          "type": "address"
        },
        {
          "internalType": "uint256",
          "name": "value",
          "type": "uint256"
        },
        {
          "internalType": "bool",
          "name": "executed",
          "type": "bool"
        },
        {
          "internalType": "uint256",
          "name": "numConfirmations",
          "type": "uint256"
        },
        {
          "internalType": "bytes",
          "name": "data",
          "type": "bytes"
        }
      ],
      "stateMutability": "view",
      "type": "function"
    },
    {
      "stateMutability": "payable",
      "type": "receive"
    }
  ],
  "bytecode": "0x60806040523480156200001157600080fd5b50604051620015b0380380620015b0833981016040819052620000349162000280565b60008251116200007d5760405162461bcd60e51b815260206004820152600f60248201526e13dddb995c9cc81c995c5d5a5c9959608a1b60448201526064015b60405180910390fd5b6000811180156200008f575081518111155b620000dd5760405162461bcd60e51b815260206004820152601c60248201527f496e76616c696420617070726f76616c20726571756972656d656e7400000000604482015260640162000074565b60005b8251811015620002425760008382815181106200010157620001016200035a565b6020026020010151905060006001600160a01b0316816001600160a01b0316036200016f5760405162461bcd60e51b815260206004820152601560248201527f496e76616c6964206f776e657220616464726573730000000000000000000000604482015260640162000074565b6001600160a01b03811660009081526001602052604090205460ff1615620001cd5760405162461bcd60e51b815260206004820152601060248201526f4f776e6572206e6f7420756e6971756560801b604482015260640162000074565b6001600160a01b031660008181526001602081905260408220805460ff191682179055815490810182559080527f290decd9548b62a8d60345a988386fc84ba6bc95484008f6362f93160ef3e5630180546001600160a01b031916909117905580620002398162000370565b915050620000e0565b506002555062000398565b634e487b7160e01b600052604160045260246000fd5b80516001600160a01b03811681146200027b57600080fd5b919050565b600080604083850312156200029457600080fd5b82516001600160401b0380821115620002ac57600080fd5b818501915085601f830112620002c157600080fd5b8151602082821115620002d857620002d86200024d565b8160051b604051601f19603f830116810181811086821117156200030057620003006200024d565b6040529283528183019350848101820192898411156200031f57600080fd5b948201945b838610156200034857620003388662000263565b8552948201949382019362000324565b97909101519698969750505050505050565b634e487b7160e01b600052603260045260246000fd5b6000600182016200039157634e487b7160e01b600052601160045260246000fd5b5060010190565b61120880620003a86000396000f3fe6080604052600436106100f75760003560e01c806356c316371161008a5780639ace38c2116100595780639ace38c214610332578063a0e67e2b14610352578063b1e130fc14610374578063ee22610b1461039457610134565b806356c31637146102ac5780638253951a146102cc57806382e717f71461030757806399c1aadc1461031d57610134565b80632e7700f0116100c65780632e7700f0146102065780632f54bf6e1461021b57806333ea3dc81461025b57806340ad01ea1461028c57610134565b8063025e7c2714610166578063117c7a56146101a357806312065fe0146101d1578063242232d1146101e457610134565b366101345760405134815233907fe1fffcc4923d04b559f4d29a8bfc6cda04eb5b0d3c460751c2402c5c5cc9109c906020015b60405180910390a2005b60405134815233907fe1fffcc4923d04b559f4d29a8bfc6cda04eb5b0d3c460751c2402c5c5cc9109c9060200161012a565b34801561017257600080fd5b50610186610181366004610d97565b6103b4565b6040516001600160a01b0390911681526020015b60405180910390f35b3480156101af57600080fd5b506101c36101be366004610dcc565b6103de565b60405190815260200161019a565b3480156101dd57600080fd5b50476101c3565b3480156101f057600080fd5b506102046101ff366004610d97565b6105ea565b005b34801561021257600080fd5b506003546101c3565b34801561022757600080fd5b5061024b610236366004610e53565b60016020526000908152604090205460ff1681565b604051901515815260200161019a565b34801561026757600080fd5b5061027b610276366004610d97565b610757565b60405161019a959493929190610e75565b34801561029857600080fd5b506101c36102a7366004610d97565b61085c565b3480156102b857600080fd5b5061024b6102c7366004610eea565b61088a565b3480156102d857600080fd5b5061024b6102e7366004610eea565b600460209081526000928352604080842090915290825290205460ff1681565b34801561031357600080fd5b506101c360025481565b34801561032957600080fd5b506002546101c3565b34801561033e57600080fd5b5061027b61034d366004610d97565b6108b7565b34801561035e57600080fd5b50610367610992565b60405161019a9190610f16565b34801561038057600080fd5b5061020461038f366004610d97565b6109f4565b3480156103a057600080fd5b506102046103af366004610d97565b610b8a565b600081815481106103c457600080fd5b6000918252602090912001546001600160a01b0316905081565b3360009081526001602052604081205460ff1661040e576040516330cd747160e01b815260040160405180910390fd5b6001600160a01b0385166104625760405162461bcd60e51b8152602060048201526016602482015275496e76616c696420746172676574206164647265737360501b60448201526064015b60405180910390fd5b6110008211156104a95760405162461bcd60e51b815260206004820152601260248201527143616c6c6461746120746f6f206c6172676560701b6044820152606401610459565b600380549050905060036040518060a00160405280876001600160a01b031681526020018681526020016000151581526020016000815260200185858080601f0160208091040260200160405190810160405280939291908181526020018383808284376000920182905250939094525050835460018082018655948252602091829020845160059092020180546001600160a01b0319166001600160a01b03909216919091178155908301519381019390935550604081015160028301805460ff191691151591909117905560608101516003830155608081015190919060048201906105979082611002565b505050336001600160a01b0316817f2ecf8c4571be1f8a0b1e6feaa711128f3f8038e97869aa59d0f595e21f50eaa0878787876040516105da94939291906110c2565b60405180910390a3949350505050565b3360009081526001602052604090205460ff1661061a576040516330cd747160e01b815260040160405180910390fd5b6003548190811061063e57604051639e1b596f60e01b815260040160405180910390fd5b81600381815481106106525761065261110a565b600091825260209091206002600590920201015460ff161561068757604051632ea945cf60e01b815260040160405180910390fd5b6000838152600460209081526040808320338452909152902054839060ff16156106c457604051635db7ec0d60e01b815260040160405180910390fd5b60008481526004602090815260408083203384529091529020805460ff1916600190811790915560038054869081106106ff576106ff61110a565b9060005260206000209060050201600301600082825461071f9190611136565b9091555050604051339085907f924813d717e221b5f46dcd8a56da1679e4612584ab3237d55e5faabf6f6a307990600090a350505050565b60008060008060606000600387815481106107745761077461110a565b906000526020600020906005020190508060000160009054906101000a90046001600160a01b031681600101548260020160009054906101000a900460ff168360030154846004018080546107c890610f79565b80601f01602080910402602001604051908101604052809291908181526020018280546107f490610f79565b80156108415780601f1061081657610100808354040283529160200191610841565b820191906000526020600020905b81548152906001019060200180831161082457829003601f168201915b50505050509050955095509550955095505091939590929450565b6000600382815481106108715761087161110a565b9060005260206000209060050201600301549050919050565b60008281526004602090815260408083206001600160a01b038516845290915290205460ff165b92915050565b600381815481106108c757600080fd5b6000918252602090912060059091020180546001820154600283015460038401546004850180546001600160a01b039095169650929460ff9092169390929061090f90610f79565b80601f016020809104026020016040519081016040528092919081815260200182805461093b90610f79565b80156109885780601f1061095d57610100808354040283529160200191610988565b820191906000526020600020905b81548152906001019060200180831161096b57829003601f168201915b5050505050905085565b606060008054806020026020016040519081016040528092919081815260200182805480156109ea57602002820191906000526020600020905b81546001600160a01b031681526001909101906020018083116109cc575b5050505050905090565b3360009081526001602052604090205460ff16610a24576040516330cd747160e01b815260040160405180910390fd5b60035481908110610a4857604051639e1b596f60e01b815260040160405180910390fd5b8160038181548110610a5c57610a5c61110a565b600091825260209091206002600590920201015460ff1615610a9157604051632ea945cf60e01b815260040160405180910390fd5b600083815260046020908152604080832033845290915290205460ff16610afa5760405162461bcd60e51b815260206004820152601860248201527f5472616e73616374696f6e206e6f7420617070726f76656400000000000000006044820152606401610459565b60008381526004602090815260408083203384529091529020805460ff19169055600380546001919085908110610b3357610b3361110a565b90600052602060002090600502016003016000828254610b539190611149565b9091555050604051339084907f430c786ad6c97d1739e88415e23257a88a0a989b6bdc4e9e415b72bb53d869a890600090a3505050565b3360009081526001602052604090205460ff16610bba576040516330cd747160e01b815260040160405180910390fd5b60035481908110610bde57604051639e1b596f60e01b815260040160405180910390fd5b8160038181548110610bf257610bf261110a565b600091825260209091206002600590920201015460ff1615610c2757604051632ea945cf60e01b815260040160405180910390fd5b600060038481548110610c3c57610c3c61110a565b9060005260206000209060050201905060025481600301541015610c995760405162461bcd60e51b81526020600482015260146024820152734e6f7420656e6f75676820617070726f76616c7360601b6044820152606401610459565b60028101805460ff191660019081179091558154908201546040516000926001600160a01b03169190610cd090600486019061115c565b60006040518083038185875af1925050503d8060008114610d0d576040519150601f19603f3d011682016040523d82523d6000602084013e610d12565b606091505b5050905080610d635760405162461bcd60e51b815260206004820152601c60248201527f5472616e73616374696f6e20657865637574696f6e206661696c6564000000006044820152606401610459565b604051339086907fefc13bdcf58f184ea7cae26b499fb33b539e01d0197cea456f3ada289b8cf19b90600090a35050505050565b600060208284031215610da957600080fd5b5035919050565b80356001600160a01b0381168114610dc757600080fd5b919050565b60008060008060608587031215610de257600080fd5b610deb85610db0565b935060208501359250604085013567ffffffffffffffff80821115610e0f57600080fd5b818701915087601f830112610e2357600080fd5b813581811115610e3257600080fd5b886020828501011115610e4457600080fd5b95989497505060200194505050565b600060208284031215610e6557600080fd5b610e6e82610db0565b9392505050565b60018060a01b0386168152600060208681840152851515604084015284606084015260a0608084015283518060a085015260005b81811015610ec55785810183015185820160c001528201610ea9565b50600060c0828601015260c0601f19601f830116850101925050509695505050505050565b60008060408385031215610efd57600080fd5b82359150610f0d60208401610db0565b90509250929050565b6020808252825182820181905260009190848201906040850190845b81811015610f575783516001600160a01b031683529284019291840191600101610f32565b50909695505050505050565b634e487b7160e01b600052604160045260246000fd5b600181811c90821680610f8d57607f821691505b602082108103610fad57634e487b7160e01b600052602260045260246000fd5b50919050565b601f821115610ffd57600081815260208120601f850160051c81016020861015610fda5750805b601f850160051c820191505b81811015610ff957828155600101610fe6565b5050505b505050565b815167ffffffffffffffff81111561101c5761101c610f63565b6110308161102a8454610f79565b84610fb3565b602080601f831160018114611065576000841561104d5750858301515b600019600386901b1c1916600185901b178555610ff9565b600085815260208120601f198616915b8281101561109457888601518255948401946001909101908401611075565b50858210156110b25787850151600019600388901b60f8161c191681555b5050505050600190811b01905550565b6001600160a01b0385168152602081018490526060604082018190528101829052818360808301376000818301608090810191909152601f909201601f191601019392505050565b634e487b7160e01b600052603260045260246000fd5b634e487b7160e01b600052601160045260246000fd5b808201808211156108b1576108b1611120565b818103818111156108b1576108b1611120565b600080835461116a81610f79565b600182811680156111825760018114611197576111c6565b60ff19841687528215158302870194506111c6565b8760005260208060002060005b858110156111bd5781548a8201529084019082016111a4565b50505082870194505b5092969550505050505056fea26469706673582212202f353e0d2ad831f3797454453be40ab98ccedd9839fd45d1878a214de9e7aa7564736f6c63430008130033",
  "linkReferences": {},
  "deployedLinkReferences": {}
}