{
  "_format": "hh-sol-artifact-1",
  "contractName": "SharpWallet",
  "sourceName": "contracts/SharpWallet.sol",
  "abi": [
    {
      "inputs": [
        {
          "internalType": "address[]",
          "name": "_owners",
          "type": "address[]"
        },
        {
          "internalType": "uint256",
          "name": "_requiredApprovals",
          "type": "uint256"
        }
      ],
      "stateMutability": "nonpayable",
      "type": "constructor"
    },
    {
      "inputs": [],
      "name": "NotOwner",
      "type": "error"
    },
    {
      "inputs": [],
      "name": "TxAlreadyApproved",
      "type": "error"
    },
    {
      "inputs": [],
      "name": "TxAlreadyExecuted",
      "type": "error"
    },
    {
      "inputs": [],
      "name": "TxDeleted",
      "type": "error"
    },
    {
      "inputs": [],
      "name": "TxDoesNotExist",
      "type": "error"
    },
    {
      "anonymous": false,
      "inputs": [
        {
          "indexed": true,
          "internalType": "uint256",
          "name": "txId",
          "type": "uint256"
        },
        {
          "indexed": true,
          "internalType": "address",
          "name": "owner",
          "type": "address"
        }
      ],
      "name": "ApprovalRevoked",
      "type": "event"
    },
    {
      "anonymous": false,
      "inputs": [
        {
          "indexed": true,
          "internalType": "address",
          "name": "sender",
          "type": "address"
        },
        {
          "indexed": false,
          "internalType": "uint256",
          "name": "amount",
          "type": "uint256"
        }
      ],
      "name": "Deposit",
      "type": "event"
    },
    {
      "anonymous": false,
      "inputs": [
        {
          "indexed": true,
          "internalType": "address",
          "name": "newOwner",
          "type": "address"
        }
      ],
      "name": "OwnerAdded",
      "type": "event"
    },
    {
      "anonymous": false,
      "inputs": [
        {
          "indexed": true,
          "internalType": "address",
          "name": "oldOwner",
          "type": "address"
        }
      ],
      "name": "OwnerRemoved",
      "type": "event"
    },
    {
      "anonymous": false,
      "inputs": [
        {
          "indexed": false,
          "internalType": "uint256",
          "name": "newRequirement",
          "type": "uint256"
        }
      ],
      "name": "RequirementChanged",
      "type": "event"
    },
    {
      "anonymous": false,
      "inputs": [
        {
          "indexed": true,
          "internalType": "uint256",
          "name": "txId",
          "type": "uint256"
        },
        {
          "indexed": true,
          "internalType": "address",
          "name": "owner",
          "type": "address"
        }
      ],
      "name": "TransactionApproved",
      "type": "event"
    },
    {
      "anonymous": false,
      "inputs": [
        {
          "indexed": true,
          "internalType": "uint256",
          "name": "txId",
          "type": "uint256"
        },
        {
          "indexed": true,
          "internalType": "address",
          "name": "deleter",
          "type": "address"
        }
      ],
      "name": "TransactionDeleted",
      "type": "event"
    },
    {
      "anonymous": false,
      "inputs": [
        {
          "indexed": true,
          "internalType": "uint256",
          "name": "txId",
          "type": "uint256"
        },
        {
          "indexed": true,
          "internalType": "address",
          "name": "executor",
          "type": "address"
        }
      ],
      "name": "TransactionExecuted",
      "type": "event"
    },
    {
      "anonymous": false,
      "inputs": [
        {
          "indexed": true,
          "internalType": "uint256",
          "name": "txId",
          "type": "uint256"
        },
        {
          "indexed": true,
          "internalType": "address",
          "name": "proposer",
          "type": "address"
        },
        {
          "indexed": false,
          "internalType": "address",
          "name": "to",
          "type": "address"
        },
        {
          "indexed": false,
          "internalType": "uint256",
          "name": "value",
          "type": "uint256"
        },
        {
          "indexed": false,
          "internalType": "bytes",
          "name": "data",
          "type": "bytes"
        }
      ],
      "name": "TransactionSubmitted",
      "type": "event"
    },
    {
      "stateMutability": "payable",
      "type": "fallback"
    },
    {
      "inputs": [
        {
          "internalType": "uint256",
          "name": "txId",
          "type": "uint256"
        }
      ],
      "name": "approvalCount",
      "outputs": [
        {
          "internalType": "uint256",
          "name": "",
          "type": "uint256"
        }
      ],
      "stateMutability": "view",
      "type": "function"
    },
    {
      "inputs": [
        {
          "internalType": "uint256",
          "name": "txId",
          "type": "uint256"
        }
      ],
      "name": "approveTransaction",
      "outputs": [],
      "stateMutability": "nonpayable",
      "type": "function"
    },
    {
      "inputs": [
        {
          "internalType": "uint256",
          "name": "",
          "type": "uint256"
        },
        {
          "internalType": "address",
          "name": "",
          "type": "address"
        }
      ],
      "name": "approved",
      "outputs": [
        {
          "internalType": "bool",
          "name": "",
          "type": "bool"
        }
      ],
      "stateMutability": "view",
      "type": "function"
    },
    {
      "inputs": [
        {
          "internalType": "uint256",
          "name": "txId",
          "type": "uint256"
        }
      ],
      "name": "deleteTransaction",
      "outputs": [],
      "stateMutability": "nonpayable",
      "type": "function"
    },
    {
      "inputs": [
        {
          "internalType": "uint256",
          "name": "txId",
          "type": "uint256"
        }
      ],
      "name": "executeTransaction",
      "outputs": [],
      "stateMutability": "nonpayable",
      "type": "function"
    },
    {
      "inputs": [],
      "name": "getBalance",
      "outputs": [
        {
          "internalType": "uint256",
          "name": "",
          "type": "uint256"
        }
      ],
      "stateMutability": "view",
      "type": "function"
    },
    {
      "inputs": [],
      "name": "getOwners",
      "outputs": [
        {
          "internalType": "address[]",
          "name": "",
          "type": "address[]"
        }
      ],
      "stateMutability": "view",
      "type": "function"
    },
    {
      "inputs": [
        {
          "internalType": "uint256",
          "name": "txId",
          "type": "uint256"
        }
      ],
      "name": "getTransaction",
      "outputs": [
        {
          "internalType": "address",
          "name": "to",
          "type": "address"
        },
        {
          "internalType": "uint256",
          "name": "value",
          "type": "uint256"
        },
        {
          "internalType": "bool",
          "name": "executed",
          "type": "bool"
        },
        {
          "internalType": "uint256",
          "name": "numConfirmations",
          "type": "uint256"
        },
        {
          "internalType": "bytes",
          "name": "data",
          "type": "bytes"
        }
      ],
      "stateMutability": "view",
      "type": "function"
    },
    {
      "inputs": [],
      "name": "getTransactionCount",
      "outputs": [
        {
          "internalType": "uint256",
          "name": "",
          "type": "uint256"
        }
      ],
      "stateMutability": "view",
      "type": "function"
    },
    {
      "inputs": [
        {
          "internalType": "uint256",
          "name": "txId",
          "type": "uint256"
        },
        {
          "internalType": "address",
          "name": "owner",
          "type": "address"
        }
      ],
      "name": "isApproved",
      "outputs": [
        {
          "internalType": "bool",
          "name": "",
          "type": "bool"
        }
      ],
      "stateMutability": "view",
      "type": "function"
    },
    {
      "inputs": [
        {
          "internalType": "address",
          "name": "",
          "type": "address"
        }
      ],
      "name": "isOwner",
      "outputs": [
        {
          "internalType": "bool",
          "name": "",
          "type": "bool"
        }
      ],
      "stateMutability": "view",
      "type": "function"
    },
    {
      "inputs": [
        {
          "internalType": "address",
          "name": "to",
          "type": "address"
        },
        {
          "internalType": "uint256",
          "name": "value",
          "type": "uint256"
        },
        {
          "internalType": "bytes",
          "name": "data",
          "type": "bytes"
        }
      ],
      "name": "newTransaction",
      "outputs": [
        {
          "internalType": "uint256",
          "name": "txId",
          "type": "uint256"
        }
      ],
      "stateMutability": "nonpayable",
      "type": "function"
    },
    {
      "inputs": [
        {
          "internalType": "uint256",
          "name": "",
          "type": "uint256"
        }
      ],
      "name": "owners",
      "outputs": [
        {
          "internalType": "address",
          "name": "",
          "type": "address"
        }
      ],
      "stateMutability": "view",
      "type": "function"
    },
    {
      "inputs": [],
      "name": "requiredApprovals",
      "outputs": [
        {
          "internalType": "uint256",
          "name": "",
          "type": "uint256"
        }
      ],
      "stateMutability": "view",
      "type": "function"
    },
    {
      "inputs": [],
      "name": "requiredConfirmations",
      "outputs": [
        {
          "internalType": "uint256",
          "name": "",
          "type": "uint256"
        }
      ],
      "stateMutability": "view",
      "type": "function"
    },
    {
      "inputs": [
        {
          "internalType": "uint256",
          "name": "txId",
          "type": "uint256"
        }
      ],
      "name": "revokeApproval",
      "outputs": [],
      "stateMutability": "nonpayable",
      "type": "function"
    },
    {
      "inputs": [
        {
          "internalType": "uint256",
          "name": "",
          "type": "uint256"
        }
      ],
      "name": "transactions",
      "outputs": [
        {
          "internalType": "address",
          "name": "to",
          "type": "address"
        },
        {
          "internalType": "uint256",
          "name": "value",
          "type": "uint256"
        },
        {
          "internalType": "bool",
          "name": "executed",
          "type": "bool"
        },
        {
          "internalType": "uint256",
          "name": "numConfirmations",
          "type": "uint256"
        },
        {
          "internalType": "bytes",
          "name": "data",
          "type": "bytes"
        },
        {
          "internalType": "bool",
          "name": "deleted",
          "type": "bool"
        }
      ],
      "stateMutability": "view",
      "type": "function"
    },
    {
      "stateMutability": "payable",
      "type": "receive"
    }
  ],
  "bytecode": "0x60806040523480156200001157600080fd5b50604051620019c7380380620019c7833981016040819052620000349162000280565b60008251116200007d5760405162461bcd60e51b815260206004820152600f60248201526e13dddb995c9cc81c995c5d5a5c9959608a1b60448201526064015b60405180910390fd5b6000811180156200008f575081518111155b620000dd5760405162461bcd60e51b815260206004820152601c60248201527f496e76616c696420617070726f76616c20726571756972656d656e7400000000604482015260640162000074565b60005b8251811015620002425760008382815181106200010157620001016200035a565b6020026020010151905060006001600160a01b0316816001600160a01b0316036200016f5760405162461bcd60e51b815260206004820152601560248201527f496e76616c6964206f776e657220616464726573730000000000000000000000604482015260640162000074565b6001600160a01b03811660009081526001602052604090205460ff1615620001cd5760405162461bcd60e51b815260206004820152601060248201526f4f776e6572206e6f7420756e6971756560801b604482015260640162000074565b6001600160a01b031660008181526001602081905260408220805460ff191682179055815490810182559080527f290decd9548b62a8d60345a988386fc84ba6bc95484008f6362f93160ef3e5630180546001600160a01b031916909117905580620002398162000370565b915050620000e0565b506002555062000398565b634e487b7160e01b600052604160045260246000fd5b80516001600160a01b03811681146200027b57600080fd5b919050565b600080604083850312156200029457600080fd5b82516001600160401b0380821115620002ac57600080fd5b818501915085601f830112620002c157600080fd5b8151602082821115620002d857620002d86200024d565b8160051b604051601f19603f830116810181811086821117156200030057620003006200024d565b6040529283528183019350848101820192898411156200031f57600080fd5b948201945b838610156200034857620003388662000263565b8552948201949382019362000324565b97909101519698969750505050505050565b634e487b7160e01b600052603260045260246000fd5b6000600182016200039157634e487b7160e01b600052601160045260246000fd5b5060010190565b61161f80620003a86000396000f3fe6080604052600436106101015760003560e01c806340ad01ea1161009557806399c1aadc1161006457806399c1aadc146103475780639ace38c21461035c578063a0e67e2b1461038e578063b1e130fc146103b0578063ee22610b146103d05761013e565b806340ad01ea146102b657806356c31637146102d65780638253951a146102f657806382e717f7146103315761013e565b8063242232d1116100d1578063242232d1146102105780632e7700f0146102305780632f54bf6e1461024557806333ea3dc8146102855761013e565b8062e9c00614610170578063025e7c2714610192578063117c7a56146101cf57806312065fe0146101fd5761013e565b3661013e5760405134815233907fe1fffcc4923d04b559f4d29a8bfc6cda04eb5b0d3c460751c2402c5c5cc9109c906020015b60405180910390a2005b60405134815233907fe1fffcc4923d04b559f4d29a8bfc6cda04eb5b0d3c460751c2402c5c5cc9109c90602001610134565b34801561017c57600080fd5b5061019061018b366004611153565b6103f0565b005b34801561019e57600080fd5b506101b26101ad366004611153565b610625565b6040516001600160a01b0390911681526020015b60405180910390f35b3480156101db57600080fd5b506101ef6101ea366004611188565b61064f565b6040519081526020016101c6565b34801561020957600080fd5b50476101ef565b34801561021c57600080fd5b5061019061022b366004611153565b6108bf565b34801561023c57600080fd5b506003546101ef565b34801561025157600080fd5b5061027561026036600461120f565b60016020526000908152604090205460ff1681565b60405190151581526020016101c6565b34801561029157600080fd5b506102a56102a0366004611153565b610a76565b6040516101c6959493929190611277565b3480156102c257600080fd5b506101ef6102d1366004611153565b610b7b565b3480156102e257600080fd5b506102756102f13660046112b7565b610ba9565b34801561030257600080fd5b506102756103113660046112b7565b600460209081526000928352604080842090915290825290205460ff1681565b34801561033d57600080fd5b506101ef60025481565b34801561035357600080fd5b506002546101ef565b34801561036857600080fd5b5061037c610377366004611153565b610bd6565b6040516101c6969594939291906112e3565b34801561039a57600080fd5b506103a3610cba565b6040516101c6919061132d565b3480156103bc57600080fd5b506101906103cb366004611153565b610d1c565b3480156103dc57600080fd5b506101906103eb366004611153565b610efc565b3360009081526001602052604090205460ff16610420576040516330cd747160e01b815260040160405180910390fd5b6003548190811061044457604051639e1b596f60e01b815260040160405180910390fd5b81600381815481106104585761045861137a565b600091825260209091206002600690920201015460ff161561048d57604051632ea945cf60e01b815260040160405180910390fd5b82600381815481106104a1576104a161137a565b600091825260209091206005600690920201015460ff16156104d657604051630230e6cf60e21b815260040160405180910390fd5b6000600385815481106104eb576104eb61137a565b600091825260208083208884526004825260408085203386529092529220546006909102909101915060ff166105685760405162461bcd60e51b815260206004820152601760248201527f596f75206469646e27742070726f706f7365207468697300000000000000000060448201526064015b60405180910390fd5b80600301546001146105bc5760405162461bcd60e51b815260206004820152601760248201527f4f746865727320616c726561647920617070726f766564000000000000000000604482015260640161055f565b60058101805460ff199081166001179091556000868152600460209081526040808320338085529252808320805490941690935560038401829055915187917f0db4a2e81b174686d0ed44896f2d8fcfe9eb7631601e632fbe6aa79b267bc15091a35050505050565b6000818154811061063557600080fd5b6000918252602090912001546001600160a01b0316905081565b3360009081526001602052604081205460ff1661067f576040516330cd747160e01b815260040160405180910390fd5b6001600160a01b0385166106ce5760405162461bcd60e51b8152602060048201526016602482015275496e76616c696420746172676574206164647265737360501b604482015260640161055f565b6110008211156107155760405162461bcd60e51b815260206004820152601260248201527143616c6c6461746120746f6f206c6172676560701b604482015260640161055f565b600380549050905060036040518060c00160405280876001600160a01b031681526020018681526020016000151581526020016001815260200185858080601f0160208091040260200160405190810160405280939291908181526020018383808284376000920182905250938552505050602091820181905283546001808201865594825290829020835160069092020180546001600160a01b0319166001600160a01b039092169190911781559082015192810192909255604081015160028301805460ff19169115159190911790556060810151600383015560808101519091906004820190610808908261142f565b5060a091909101516005909101805491151560ff1992831617905560008281526004602090815260408083203380855292528083208054909416600117909355915183917f924813d717e221b5f46dcd8a56da1679e4612584ab3237d55e5faabf6f6a307991a3336001600160a01b0316817f2ecf8c4571be1f8a0b1e6feaa711128f3f8038e97869aa59d0f595e21f50eaa0878787876040516108af94939291906114ef565b60405180910390a3949350505050565b3360009081526001602052604090205460ff166108ef576040516330cd747160e01b815260040160405180910390fd5b6003548190811061091357604051639e1b596f60e01b815260040160405180910390fd5b81600381815481106109275761092761137a565b600091825260209091206002600690920201015460ff161561095c57604051632ea945cf60e01b815260040160405180910390fd5b82600381815481106109705761097061137a565b600091825260209091206005600690920201015460ff16156109a557604051630230e6cf60e21b815260040160405180910390fd5b6000848152600460209081526040808320338452909152902054849060ff16156109e257604051635db7ec0d60e01b815260040160405180910390fd5b60008581526004602090815260408083203384529091529020805460ff191660019081179091556003805487908110610a1d57610a1d61137a565b90600052602060002090600602016003016000828254610a3d919061154d565b9091555050604051339086907f924813d717e221b5f46dcd8a56da1679e4612584ab3237d55e5faabf6f6a307990600090a35050505050565b6000806000806060600060038781548110610a9357610a9361137a565b906000526020600020906006020190508060000160009054906101000a90046001600160a01b031681600101548260020160009054906101000a900460ff16836003015484600401808054610ae7906113a6565b80601f0160208091040260200160405190810160405280929190818152602001828054610b13906113a6565b8015610b605780601f10610b3557610100808354040283529160200191610b60565b820191906000526020600020905b815481529060010190602001808311610b4357829003601f168201915b50505050509050955095509550955095505091939590929450565b600060038281548110610b9057610b9061137a565b9060005260206000209060060201600301549050919050565b60008281526004602090815260408083206001600160a01b038516845290915290205460ff165b92915050565b60038181548110610be657600080fd5b6000918252602090912060069091020180546001820154600283015460038401546004850180546001600160a01b039095169650929460ff90921693909290610c2e906113a6565b80601f0160208091040260200160405190810160405280929190818152602001828054610c5a906113a6565b8015610ca75780601f10610c7c57610100808354040283529160200191610ca7565b820191906000526020600020905b815481529060010190602001808311610c8a57829003601f168201915b5050506005909301549192505060ff1686565b60606000805480602002602001604051908101604052809291908181526020018280548015610d1257602002820191906000526020600020905b81546001600160a01b03168152600190910190602001808311610cf4575b5050505050905090565b3360009081526001602052604090205460ff16610d4c576040516330cd747160e01b815260040160405180910390fd5b60035481908110610d7057604051639e1b596f60e01b815260040160405180910390fd5b8160038181548110610d8457610d8461137a565b600091825260209091206002600690920201015460ff1615610db957604051632ea945cf60e01b815260040160405180910390fd5b8260038181548110610dcd57610dcd61137a565b600091825260209091206005600690920201015460ff1615610e0257604051630230e6cf60e21b815260040160405180910390fd5b600084815260046020908152604080832033845290915290205460ff16610e6b5760405162461bcd60e51b815260206004820152601860248201527f5472616e73616374696f6e206e6f7420617070726f7665640000000000000000604482015260640161055f565b60008481526004602090815260408083203384529091529020805460ff19169055600380546001919086908110610ea457610ea461137a565b90600052602060002090600602016003016000828254610ec49190611560565b9091555050604051339085907f430c786ad6c97d1739e88415e23257a88a0a989b6bdc4e9e415b72bb53d869a890600090a350505050565b3360009081526001602052604090205460ff16610f2c576040516330cd747160e01b815260040160405180910390fd5b60035481908110610f5057604051639e1b596f60e01b815260040160405180910390fd5b8160038181548110610f6457610f6461137a565b600091825260209091206002600690920201015460ff1615610f9957604051632ea945cf60e01b815260040160405180910390fd5b8260038181548110610fad57610fad61137a565b600091825260209091206005600690920201015460ff1615610fe257604051630230e6cf60e21b815260040160405180910390fd5b600060038581548110610ff757610ff761137a565b90600052602060002090600602019050600254816003015410156110545760405162461bcd60e51b81526020600482015260146024820152734e6f7420656e6f75676820617070726f76616c7360601b604482015260640161055f565b60028101805460ff191660019081179091558154908201546040516000926001600160a01b0316919061108b906004860190611573565b60006040518083038185875af1925050503d80600081146110c8576040519150601f19603f3d011682016040523d82523d6000602084013e6110cd565b606091505b505090508061111e5760405162461bcd60e51b815260206004820152601c60248201527f5472616e73616374696f6e20657865637574696f6e206661696c656400000000604482015260640161055f565b604051339087907fefc13bdcf58f184ea7cae26b499fb33b539e01d0197cea456f3ada289b8cf19b90600090a3505050505050565b60006020828403121561116557600080fd5b5035919050565b80356001600160a01b038116811461118357600080fd5b919050565b6000806000806060858703121561119e57600080fd5b6111a78561116c565b935060208501359250604085013567ffffffffffffffff808211156111cb57600080fd5b818701915087601f8301126111df57600080fd5b8135818111156111ee57600080fd5b88602082850101111561120057600080fd5b95989497505060200194505050565b60006020828403121561122157600080fd5b61122a8261116c565b9392505050565b6000815180845260005b818110156112575760208185018101518683018201520161123b565b506000602082860101526020601f19601f83011685010191505092915050565b60018060a01b0386168152846020820152831515604082015282606082015260a0608082015260006112ac60a0830184611231565b979650505050505050565b600080604083850312156112ca57600080fd5b823591506112da6020840161116c565b90509250929050565b60018060a01b0387168152856020820152841515604082015283606082015260c06080820152600061131860c0830185611231565b905082151560a0830152979650505050505050565b6020808252825182820181905260009190848201906040850190845b8181101561136e5783516001600160a01b031683529284019291840191600101611349565b50909695505050505050565b634e487b7160e01b600052603260045260246000fd5b634e487b7160e01b600052604160045260246000fd5b600181811c908216806113ba57607f821691505b6020821081036113da57634e487b7160e01b600052602260045260246000fd5b50919050565b601f82111561142a57600081815260208120601f850160051c810160208610156114075750805b601f850160051c820191505b8181101561142657828155600101611413565b5050505b505050565b815167ffffffffffffffff81111561144957611449611390565b61145d8161145784546113a6565b846113e0565b602080601f831160018114611492576000841561147a5750858301515b600019600386901b1c1916600185901b178555611426565b600085815260208120601f198616915b828110156114c1578886015182559484019460019091019084016114a2565b50858210156114df5787850151600019600388901b60f8161c191681555b5050505050600190811b01905550565b6001600160a01b0385168152602081018490526060604082018190528101829052818360808301376000818301608090810191909152601f909201601f191601019392505050565b634e487b7160e01b600052601160045260246000fd5b80820180821115610bd057610bd0611537565b81810381811115610bd057610bd0611537565b6000808354611581816113a6565b6001828116801561159957600181146115ae576115dd565b60ff19841687528215158302870194506115dd565b8760005260208060002060005b858110156115d45781548a8201529084019082016115bb565b50505082870194505b5092969550505050505056fea264697066735822122040651aeae012257f19cfdbba1b2262b99825a9b241be97c10ba2e6889d91c72464736f6c63430008130033",
  "linkReferences": {},
  "deployedLinkReferences": {}
}