{
  "_format": "hh-sol-artifact-1",
  "contractName": "SharpWallet",
  "sourceName": "contracts/SharpWallet.sol",
  "abi": [
    {
      "inputs": [
        {
          "internalType": "address[]",
          "name": "_owners",
          "type": "address[]"
        },
        {
          "internalType": "uint256",
          "name": "_requiredApprovals",
          "type": "uint256"
        }
      ],
      "stateMutability": "nonpayable",
      "type": "constructor"
    },
    {
      "inputs": [],
      "name": "NotOwner",
      "type": "error"
    },
    {
      "inputs": [],
      "name": "TxAlreadyApproved",
      "type": "error"
    },
    {
      "inputs": [],
      "name": "TxAlreadyExecuted",
      "type": "error"
    },
    {
      "inputs": [],
      "name": "TxDeleted",
      "type": "error"
    },
    {
      "inputs": [],
      "name": "TxDoesNotExist",
      "type": "error"
    },
    {
      "anonymous": false,
      "inputs": [
        {
          "indexed": true,
          "internalType": "uint256",
          "name": "txId",
          "type": "uint256"
        },
        {
          "indexed": true,
          "internalType": "address",
          "name": "owner",
          "type": "address"
        }
      ],
      "name": "ApprovalRevoked",
      "type": "event"
    },
    {
      "anonymous": false,
      "inputs": [
        {
          "indexed": true,
          "internalType": "address",
          "name": "sender",
          "type": "address"
        },
        {
          "indexed": false,
          "internalType": "uint256",
          "name": "amount",
          "type": "uint256"
        }
      ],
      "name": "Deposit",
      "type": "event"
    },
    {
      "anonymous": false,
      "inputs": [
        {
          "indexed": true,
          "internalType": "address",
          "name": "newOwner",
          "type": "address"
        }
      ],
      "name": "OwnerAdded",
      "type": "event"
    },
    {
      "anonymous": false,
      "inputs": [
        {
          "indexed": true,
          "internalType": "address",
          "name": "oldOwner",
          "type": "address"
        }
      ],
      "name": "OwnerRemoved",
      "type": "event"
    },
    {
      "anonymous": false,
      "inputs": [
        {
          "indexed": false,
          "internalType": "uint256",
          "name": "newRequirement",
          "type": "uint256"
        }
      ],
      "name": "RequirementChanged",
      "type": "event"
    },
    {
      "anonymous": false,
      "inputs": [
        {
          "indexed": true,
          "internalType": "uint256",
          "name": "txId",
          "type": "uint256"
        },
        {
          "indexed": true,
          "internalType": "address",
          "name": "owner",
          "type": "address"
        }
      ],
      "name": "TransactionApproved",
      "type": "event"
    },
    {
      "anonymous": false,
      "inputs": [
        {
          "indexed": true,
          "internalType": "uint256",
          "name": "txId",
          "type": "uint256"
        },
        {
          "indexed": true,
          "internalType": "address",
          "name": "deleter",
          "type": "address"
        }
      ],
      "name": "TransactionDeleted",
      "type": "event"
    },
    {
      "anonymous": false,
      "inputs": [
        {
          "indexed": true,
          "internalType": "uint256",
          "name": "txId",
          "type": "uint256"
        },
        {
          "indexed": true,
          "internalType": "address",
          "name": "executor",
          "type": "address"
        }
      ],
      "name": "TransactionExecuted",
      "type": "event"
    },
    {
      "anonymous": false,
      "inputs": [
        {
          "indexed": true,
          "internalType": "uint256",
          "name": "txId",
          "type": "uint256"
        },
        {
          "indexed": true,
          "internalType": "address",
          "name": "proposer",
          "type": "address"
        },
        {
          "indexed": false,
          "internalType": "address",
          "name": "to",
          "type": "address"
        },
        {
          "indexed": false,
          "internalType": "uint256",
          "name": "value",
          "type": "uint256"
        },
        {
          "indexed": false,
          "internalType": "bytes",
          "name": "data",
          "type": "bytes"
        }
      ],
      "name": "TransactionSubmitted",
      "type": "event"
    },
    {
      "stateMutability": "payable",
      "type": "fallback"
    },
    {
      "inputs": [
        {
          "internalType": "uint256",
          "name": "txId",
          "type": "uint256"
        }
      ],
      "name": "approvalCount",
      "outputs": [
        {
          "internalType": "uint256",
          "name": "",
          "type": "uint256"
        }
      ],
      "stateMutability": "view",
      "type": "function"
    },
    {
      "inputs": [
        {
          "internalType": "uint256",
          "name": "txId",
          "type": "uint256"
        }
      ],
      "name": "approveTransaction",
      "outputs": [],
      "stateMutability": "nonpayable",
      "type": "function"
    },
    {
      "inputs": [
        {
          "internalType": "uint256",
          "name": "",
          "type": "uint256"
        },
        {
          "internalType": "address",
          "name": "",
          "type": "address"
        }
      ],
      "name": "approved",
      "outputs": [
        {
          "internalType": "bool",
          "name": "",
          "type": "bool"
        }
      ],
      "stateMutability": "view",
      "type": "function"
    },
    {
      "inputs": [
        {
          "internalType": "uint256",
          "name": "txId",
          "type": "uint256"
        }
      ],
      "name": "deleteTransaction",
      "outputs": [],
      "stateMutability": "nonpayable",
      "type": "function"
    },
    {
      "inputs": [
        {
          "internalType": "uint256",
          "name": "txId",
          "type": "uint256"
        }
      ],
      "name": "executeTransaction",
      "outputs": [],
      "stateMutability": "nonpayable",
      "type": "function"
    },
    {
      "inputs": [
        {
          "internalType": "uint256",
          "name": "txId",
          "type": "uint256"
        }
      ],
      "name": "getApprovers",
      "outputs": [
        {
          "internalType": "address[]",
          "name": "",
          "type": "address[]"
        }
      ],
      "stateMutability": "view",
      "type": "function"
    },
    {
      "inputs": [],
      "name": "getBalance",
      "outputs": [
        {
          "internalType": "uint256",
          "name": "",
          "type": "uint256"
        }
      ],
      "stateMutability": "view",
      "type": "function"
    },
    {
      "inputs": [],
      "name": "getOwners",
      "outputs": [
        {
          "internalType": "address[]",
          "name": "",
          "type": "address[]"
        }
      ],
      "stateMutability": "view",
      "type": "function"
    },
    {
      "inputs": [
        {
          "internalType": "uint256",
          "name": "txId",
          "type": "uint256"
        }
      ],
      "name": "getTransaction",
      "outputs": [
        {
          "internalType": "address",
          "name": "to",
          "type": "address"
        },
        {
          "internalType": "uint256",
          "name": "value",
          "type": "uint256"
        },
        {
          "internalType": "bool",
          "name": "executed",
          "type": "bool"
        },
        {
          "internalType": "uint256",
          "name": "numConfirmations",
          "type": "uint256"
        },
        {
          "internalType": "bytes",
          "name": "data",
          "type": "bytes"
        }
      ],
      "stateMutability": "view",
      "type": "function"
    },
    {
      "inputs": [],
      "name": "getTransactionCount",
      "outputs": [
        {
          "internalType": "uint256",
          "name": "",
          "type": "uint256"
        }
      ],
      "stateMutability": "view",
      "type": "function"
    },
    {
      "inputs": [
        {
          "internalType": "uint256",
          "name": "txId",
          "type": "uint256"
        },
        {
          "internalType": "address",
          "name": "owner",
          "type": "address"
        }
      ],
      "name": "isApproved",
      "outputs": [
        {
          "internalType": "bool",
          "name": "",
          "type": "bool"
        }
      ],
      "stateMutability": "view",
      "type": "function"
    },
    {
      "inputs": [
        {
          "internalType": "address",
          "name": "",
          "type": "address"
        }
      ],
      "name": "isOwner",
      "outputs": [
        {
          "internalType": "bool",
          "name": "",
          "type": "bool"
        }
      ],
      "stateMutability": "view",
      "type": "function"
    },
    {
      "inputs": [
        {
          "internalType": "address",
          "name": "to",
          "type": "address"
        },
        {
          "internalType": "uint256",
          "name": "value",
          "type": "uint256"
        },
        {
          "internalType": "bytes",
          "name": "data",
          "type": "bytes"
        }
      ],
      "name": "newTransaction",
      "outputs": [
        {
          "internalType": "uint256",
          "name": "txId",
          "type": "uint256"
        }
      ],
      "stateMutability": "nonpayable",
      "type": "function"
    },
    {
      "inputs": [
        {
          "internalType": "uint256",
          "name": "",
          "type": "uint256"
        }
      ],
      "name": "owners",
      "outputs": [
        {
          "internalType": "address",
          "name": "",
          "type": "address"
        }
      ],
      "stateMutability": "view",
      "type": "function"
    },
    {
      "inputs": [],
      "name": "requiredApprovals",
      "outputs": [
        {
          "internalType": "uint256",
          "name": "",
          "type": "uint256"
        }
      ],
      "stateMutability": "view",
      "type": "function"
    },
    {
      "inputs": [],
      "name": "requiredConfirmations",
      "outputs": [
        {
          "internalType": "uint256",
          "name": "",
          "type": "uint256"
        }
      ],
      "stateMutability": "view",
      "type": "function"
    },
    {
      "inputs": [
        {
          "internalType": "uint256",
          "name": "txId",
          "type": "uint256"
        }
      ],
      "name": "revokeApproval",
      "outputs": [],
      "stateMutability": "nonpayable",
      "type": "function"
    },
    {
      "inputs": [
        {
          "internalType": "uint256",
          "name": "",
          "type": "uint256"
        }
      ],
      "name": "transactions",
      "outputs": [
        {
          "internalType": "address",
          "name": "to",
          "type": "address"
        },
        {
          "internalType": "uint256",
          "name": "value",
          "type": "uint256"
        },
        {
          "internalType": "bool",
          "name": "executed",
          "type": "bool"
        },
        {
          "internalType": "uint256",
          "name": "numConfirmations",
          "type": "uint256"
        },
        {
          "internalType": "bytes",
          "name": "data",
          "type": "bytes"
        },
        {
          "internalType": "bool",
          "name": "deleted",
          "type": "bool"
        }
      ],
      "stateMutability": "view",
      "type": "function"
    },
    {
      "stateMutability": "payable",
      "type": "receive"
    }
  ],
  "bytecode": "0x60806040523480156200001157600080fd5b5060405162001b5d38038062001b5d833981016040819052620000349162000280565b60008251116200007d5760405162461bcd60e51b815260206004820152600f60248201526e13dddb995c9cc81c995c5d5a5c9959608a1b60448201526064015b60405180910390fd5b6000811180156200008f575081518111155b620000dd5760405162461bcd60e51b815260206004820152601c60248201527f496e76616c696420617070726f76616c20726571756972656d656e7400000000604482015260640162000074565b60005b8251811015620002425760008382815181106200010157620001016200035a565b6020026020010151905060006001600160a01b0316816001600160a01b0316036200016f5760405162461bcd60e51b815260206004820152601560248201527f496e76616c6964206f776e657220616464726573730000000000000000000000604482015260640162000074565b6001600160a01b03811660009081526001602052604090205460ff1615620001cd5760405162461bcd60e51b815260206004820152601060248201526f4f776e6572206e6f7420756e6971756560801b604482015260640162000074565b6001600160a01b031660008181526001602081905260408220805460ff191682179055815490810182559080527f290decd9548b62a8d60345a988386fc84ba6bc95484008f6362f93160ef3e5630180546001600160a01b031916909117905580620002398162000370565b915050620000e0565b506002555062000398565b634e487b7160e01b600052604160045260246000fd5b80516001600160a01b03811681146200027b57600080fd5b919050565b600080604083850312156200029457600080fd5b82516001600160401b0380821115620002ac57600080fd5b818501915085601f830112620002c157600080fd5b8151602082821115620002d857620002d86200024d565b8160051b604051601f19603f830116810181811086821117156200030057620003006200024d565b6040529283528183019350848101820192898411156200031f57600080fd5b948201945b838610156200034857620003388662000263565b8552948201949382019362000324565b97909101519698969750505050505050565b634e487b7160e01b600052603260045260246000fd5b6000600182016200039157634e487b7160e01b600052601160045260246000fd5b5060010190565b6117b580620003a86000396000f3fe60806040526004361061010c5760003560e01c806356c31637116100955780639ace38c2116100645780639ace38c214610367578063a0e67e2b14610399578063b1e130fc146103bb578063c65df794146103db578063ee22610b146103fb57610149565b806356c31637146102e15780638253951a1461030157806382e717f71461033c57806399c1aadc1461035257610149565b8063242232d1116100dc578063242232d11461021b5780632e7700f01461023b5780632f54bf6e1461025057806333ea3dc81461029057806340ad01ea146102c157610149565b8062e9c0061461017b578063025e7c271461019d578063117c7a56146101da57806312065fe01461020857610149565b366101495760405134815233907fe1fffcc4923d04b559f4d29a8bfc6cda04eb5b0d3c460751c2402c5c5cc9109c906020015b60405180910390a2005b60405134815233907fe1fffcc4923d04b559f4d29a8bfc6cda04eb5b0d3c460751c2402c5c5cc9109c9060200161013f565b34801561018757600080fd5b5061019b6101963660046112d6565b61041b565b005b3480156101a957600080fd5b506101bd6101b83660046112d6565b610650565b6040516001600160a01b0390911681526020015b60405180910390f35b3480156101e657600080fd5b506101fa6101f536600461130b565b61067a565b6040519081526020016101d1565b34801561021457600080fd5b50476101fa565b34801561022757600080fd5b5061019b6102363660046112d6565b6108ea565b34801561024757600080fd5b506003546101fa565b34801561025c57600080fd5b5061028061026b366004611392565b60016020526000908152604090205460ff1681565b60405190151581526020016101d1565b34801561029c57600080fd5b506102b06102ab3660046112d6565b610aa1565b6040516101d19594939291906113fa565b3480156102cd57600080fd5b506101fa6102dc3660046112d6565b610ba6565b3480156102ed57600080fd5b506102806102fc36600461143a565b610bd4565b34801561030d57600080fd5b5061028061031c36600461143a565b600460209081526000928352604080842090915290825290205460ff1681565b34801561034857600080fd5b506101fa60025481565b34801561035e57600080fd5b506002546101fa565b34801561037357600080fd5b506103876103823660046112d6565b610c01565b6040516101d196959493929190611466565b3480156103a557600080fd5b506103ae610ce5565b6040516101d191906114b0565b3480156103c757600080fd5b5061019b6103d63660046112d6565b610d47565b3480156103e757600080fd5b506103ae6103f63660046112d6565b610f27565b34801561040757600080fd5b5061019b6104163660046112d6565b61107f565b3360009081526001602052604090205460ff1661044b576040516330cd747160e01b815260040160405180910390fd5b6003548190811061046f57604051639e1b596f60e01b815260040160405180910390fd5b8160038181548110610483576104836114fd565b600091825260209091206002600690920201015460ff16156104b857604051632ea945cf60e01b815260040160405180910390fd5b82600381815481106104cc576104cc6114fd565b600091825260209091206005600690920201015460ff161561050157604051630230e6cf60e21b815260040160405180910390fd5b600060038581548110610516576105166114fd565b600091825260208083208884526004825260408085203386529092529220546006909102909101915060ff166105935760405162461bcd60e51b815260206004820152601760248201527f596f75206469646e27742070726f706f7365207468697300000000000000000060448201526064015b60405180910390fd5b80600301546001146105e75760405162461bcd60e51b815260206004820152601760248201527f4f746865727320616c726561647920617070726f766564000000000000000000604482015260640161058a565b60058101805460ff199081166001179091556000868152600460209081526040808320338085529252808320805490941690935560038401829055915187917f0db4a2e81b174686d0ed44896f2d8fcfe9eb7631601e632fbe6aa79b267bc15091a35050505050565b6000818154811061066057600080fd5b6000918252602090912001546001600160a01b0316905081565b3360009081526001602052604081205460ff166106aa576040516330cd747160e01b815260040160405180910390fd5b6001600160a01b0385166106f95760405162461bcd60e51b8152602060048201526016602482015275496e76616c696420746172676574206164647265737360501b604482015260640161058a565b6110008211156107405760405162461bcd60e51b815260206004820152601260248201527143616c6c6461746120746f6f206c6172676560701b604482015260640161058a565b600380549050905060036040518060c00160405280876001600160a01b031681526020018681526020016000151581526020016001815260200185858080601f0160208091040260200160405190810160405280939291908181526020018383808284376000920182905250938552505050602091820181905283546001808201865594825290829020835160069092020180546001600160a01b0319166001600160a01b039092169190911781559082015192810192909255604081015160028301805460ff1916911515919091179055606081015160038301556080810151909190600482019061083390826115ac565b5060a091909101516005909101805491151560ff1992831617905560008281526004602090815260408083203380855292528083208054909416600117909355915183917f924813d717e221b5f46dcd8a56da1679e4612584ab3237d55e5faabf6f6a307991a3336001600160a01b0316817f2ecf8c4571be1f8a0b1e6feaa711128f3f8038e97869aa59d0f595e21f50eaa0878787876040516108da949392919061166c565b60405180910390a3949350505050565b3360009081526001602052604090205460ff1661091a576040516330cd747160e01b815260040160405180910390fd5b6003548190811061093e57604051639e1b596f60e01b815260040160405180910390fd5b8160038181548110610952576109526114fd565b600091825260209091206002600690920201015460ff161561098757604051632ea945cf60e01b815260040160405180910390fd5b826003818154811061099b5761099b6114fd565b600091825260209091206005600690920201015460ff16156109d057604051630230e6cf60e21b815260040160405180910390fd5b6000848152600460209081526040808320338452909152902054849060ff1615610a0d57604051635db7ec0d60e01b815260040160405180910390fd5b60008581526004602090815260408083203384529091529020805460ff191660019081179091556003805487908110610a4857610a486114fd565b90600052602060002090600602016003016000828254610a6891906116ca565b9091555050604051339086907f924813d717e221b5f46dcd8a56da1679e4612584ab3237d55e5faabf6f6a307990600090a35050505050565b6000806000806060600060038781548110610abe57610abe6114fd565b906000526020600020906006020190508060000160009054906101000a90046001600160a01b031681600101548260020160009054906101000a900460ff16836003015484600401808054610b1290611529565b80601f0160208091040260200160405190810160405280929190818152602001828054610b3e90611529565b8015610b8b5780601f10610b6057610100808354040283529160200191610b8b565b820191906000526020600020905b815481529060010190602001808311610b6e57829003601f168201915b50505050509050955095509550955095505091939590929450565b600060038281548110610bbb57610bbb6114fd565b9060005260206000209060060201600301549050919050565b60008281526004602090815260408083206001600160a01b038516845290915290205460ff165b92915050565b60038181548110610c1157600080fd5b6000918252602090912060069091020180546001820154600283015460038401546004850180546001600160a01b039095169650929460ff90921693909290610c5990611529565b80601f0160208091040260200160405190810160405280929190818152602001828054610c8590611529565b8015610cd25780601f10610ca757610100808354040283529160200191610cd2565b820191906000526020600020905b815481529060010190602001808311610cb557829003601f168201915b5050506005909301549192505060ff1686565b60606000805480602002602001604051908101604052809291908181526020018280548015610d3d57602002820191906000526020600020905b81546001600160a01b03168152600190910190602001808311610d1f575b5050505050905090565b3360009081526001602052604090205460ff16610d77576040516330cd747160e01b815260040160405180910390fd5b60035481908110610d9b57604051639e1b596f60e01b815260040160405180910390fd5b8160038181548110610daf57610daf6114fd565b600091825260209091206002600690920201015460ff1615610de457604051632ea945cf60e01b815260040160405180910390fd5b8260038181548110610df857610df86114fd565b600091825260209091206005600690920201015460ff1615610e2d57604051630230e6cf60e21b815260040160405180910390fd5b600084815260046020908152604080832033845290915290205460ff16610e965760405162461bcd60e51b815260206004820152601860248201527f5472616e73616374696f6e206e6f7420617070726f7665640000000000000000604482015260640161058a565b60008481526004602090815260408083203384529091529020805460ff19169055600380546001919086908110610ecf57610ecf6114fd565b90600052602060002090600602016003016000828254610eef91906116dd565b9091555050604051339085907f430c786ad6c97d1739e88415e23257a88a0a989b6bdc4e9e415b72bb53d869a890600090a350505050565b60035460609082908110610f4e57604051639e1b596f60e01b815260040160405180910390fd5b6000805467ffffffffffffffff811115610f6a57610f6a611513565b604051908082528060200260200182016040528015610f93578160200160208202803683370190505b5090506000805b60005481101561107357600460008781526020019081526020016000206000808381548110610fcb57610fcb6114fd565b60009182526020808320909101546001600160a01b0316835282019290925260400190205460ff1615611061576000818154811061100b5761100b6114fd565b9060005260206000200160009054906101000a90046001600160a01b031683838151811061103b5761103b6114fd565b6001600160a01b03909216602092830291909101909101528161105d816116f0565b9250505b8061106b816116f0565b915050610f9a565b50815291505b50919050565b3360009081526001602052604090205460ff166110af576040516330cd747160e01b815260040160405180910390fd5b600354819081106110d357604051639e1b596f60e01b815260040160405180910390fd5b81600381815481106110e7576110e76114fd565b600091825260209091206002600690920201015460ff161561111c57604051632ea945cf60e01b815260040160405180910390fd5b8260038181548110611130576111306114fd565b600091825260209091206005600690920201015460ff161561116557604051630230e6cf60e21b815260040160405180910390fd5b60006003858154811061117a5761117a6114fd565b90600052602060002090600602019050600254816003015410156111d75760405162461bcd60e51b81526020600482015260146024820152734e6f7420656e6f75676820617070726f76616c7360601b604482015260640161058a565b60028101805460ff191660019081179091558154908201546040516000926001600160a01b0316919061120e906004860190611709565b60006040518083038185875af1925050503d806000811461124b576040519150601f19603f3d011682016040523d82523d6000602084013e611250565b606091505b50509050806112a15760405162461bcd60e51b815260206004820152601c60248201527f5472616e73616374696f6e20657865637574696f6e206661696c656400000000604482015260640161058a565b604051339087907fefc13bdcf58f184ea7cae26b499fb33b539e01d0197cea456f3ada289b8cf19b90600090a3505050505050565b6000602082840312156112e857600080fd5b5035919050565b80356001600160a01b038116811461130657600080fd5b919050565b6000806000806060858703121561132157600080fd5b61132a856112ef565b935060208501359250604085013567ffffffffffffffff8082111561134e57600080fd5b818701915087601f83011261136257600080fd5b81358181111561137157600080fd5b88602082850101111561138357600080fd5b95989497505060200194505050565b6000602082840312156113a457600080fd5b6113ad826112ef565b9392505050565b6000815180845260005b818110156113da576020818501810151868301820152016113be565b506000602082860101526020601f19601f83011685010191505092915050565b60018060a01b0386168152846020820152831515604082015282606082015260a06080820152600061142f60a08301846113b4565b979650505050505050565b6000806040838503121561144d57600080fd5b8235915061145d602084016112ef565b90509250929050565b60018060a01b0387168152856020820152841515604082015283606082015260c06080820152600061149b60c08301856113b4565b905082151560a0830152979650505050505050565b6020808252825182820181905260009190848201906040850190845b818110156114f15783516001600160a01b0316835292840192918401916001016114cc565b50909695505050505050565b634e487b7160e01b600052603260045260246000fd5b634e487b7160e01b600052604160045260246000fd5b600181811c9082168061153d57607f821691505b60208210810361107957634e487b7160e01b600052602260045260246000fd5b601f8211156115a757600081815260208120601f850160051c810160208610156115845750805b601f850160051c820191505b818110156115a357828155600101611590565b5050505b505050565b815167ffffffffffffffff8111156115c6576115c6611513565b6115da816115d48454611529565b8461155d565b602080601f83116001811461160f57600084156115f75750858301515b600019600386901b1c1916600185901b1785556115a3565b600085815260208120601f198616915b8281101561163e5788860151825594840194600190910190840161161f565b508582101561165c5787850151600019600388901b60f8161c191681555b5050505050600190811b01905550565b6001600160a01b0385168152602081018490526060604082018190528101829052818360808301376000818301608090810191909152601f909201601f191601019392505050565b634e487b7160e01b600052601160045260246000fd5b80820180821115610bfb57610bfb6116b4565b81810381811115610bfb57610bfb6116b4565b600060018201611702576117026116b4565b5060010190565b600080835461171781611529565b6001828116801561172f576001811461174457611773565b60ff1984168752821515830287019450611773565b8760005260208060002060005b8581101561176a5781548a820152908401908201611751565b50505082870194505b5092969550505050505056fea26469706673582212208d0058a6649e2c48e40e96bffca044dbe7c7c66f19755ab868abc0d937e0fdaf64736f6c63430008130033",
  "linkReferences": {},
  "deployedLinkReferences": {}
}