{
  "_format": "hh-sol-artifact-1",
  "contractName": "SharpWallet",
  "sourceName": "contracts/SharpWallet.sol",
  "abi": [
    {
      "inputs": [
        {
          "internalType": "address[]",
          "name": "_owners",
          "type": "address[]"
        },
        {
          "internalType": "uint256",
          "name": "_requiredApprovals",
          "type": "uint256"
        }
      ],
      "stateMutability": "nonpayable",
      "type": "constructor"
    },
    {
      "inputs": [],
      "name": "NotOwner",
      "type": "error"
    },
    {
      "inputs": [],
      "name": "TxAlreadyApproved",
      "type": "error"
    },
    {
      "inputs": [],
      "name": "TxAlreadyExecuted",
      "type": "error"
    },
    {
      "inputs": [],
      "name": "TxDoesNotExist",
      "type": "error"
    },
    {
      "anonymous": false,
      "inputs": [
        {
          "indexed": true,
          "internalType": "uint256",
          "name": "txId",
          "type": "uint256"
        },
        {
          "indexed": true,
          "internalType": "address",
          "name": "owner",
          "type": "address"
        }
      ],
      "name": "ApprovalRevoked",
      "type": "event"
    },
    {
      "anonymous": false,
      "inputs": [
        {
          "indexed": true,
          "internalType": "address",
          "name": "sender",
          "type": "address"
        },
        {
          "indexed": false,
          "internalType": "uint256",
          "name": "amount",
          "type": "uint256"
        }
      ],
      "name": "Deposit",
      "type": "event"
    },
    {
      "anonymous": false,
      "inputs": [
        {
          "indexed": true,
          "internalType": "address",
          "name": "newOwner",
          "type": "address"
        }
      ],
      "name": "OwnerAdded",
      "type": "event"
    },
    {
      "anonymous": false,
      "inputs": [
        {
          "indexed": true,
          "internalType": "address",
          "name": "oldOwner",
          "type": "address"
        }
      ],
      "name": "OwnerRemoved",
      "type": "event"
    },
    {
      "anonymous": false,
      "inputs": [
        {
          "indexed": false,
          "internalType": "uint256",
          "name": "newRequirement",
          "type": "uint256"
        }
      ],
      "name": "RequirementChanged",
      "type": "event"
    },
    {
      "anonymous": false,
      "inputs": [
        {
          "indexed": true,
          "internalType": "uint256",
          "name": "txId",
          "type": "uint256"
        },
        {
          "indexed": true,
          "internalType": "address",
          "name": "owner",
          "type": "address"
        }
      ],
      "name": "TransactionApproved",
      "type": "event"
    },
    {
      "anonymous": false,
      "inputs": [
        {
          "indexed": true,
          "internalType": "uint256",
          "name": "txId",
          "type": "uint256"
        },
        {
          "indexed": true,
          "internalType": "address",
          "name": "executor",
          "type": "address"
        }
      ],
      "name": "TransactionExecuted",
      "type": "event"
    },
    {
      "anonymous": false,
      "inputs": [
        {
          "indexed": true,
          "internalType": "uint256",
          "name": "txId",
          "type": "uint256"
        },
        {
          "indexed": true,
          "internalType": "address",
          "name": "proposer",
          "type": "address"
        },
        {
          "indexed": false,
          "internalType": "address",
          "name": "to",
          "type": "address"
        },
        {
          "indexed": false,
          "internalType": "uint256",
          "name": "value",
          "type": "uint256"
        },
        {
          "indexed": false,
          "internalType": "bytes",
          "name": "data",
          "type": "bytes"
        }
      ],
      "name": "TransactionSubmitted",
      "type": "event"
    },
    {
      "stateMutability": "payable",
      "type": "fallback"
    },
    {
      "inputs": [
        {
          "internalType": "address",
          "name": "newOwner",
          "type": "address"
        }
      ],
      "name": "addOwner",
      "outputs": [],
      "stateMutability": "nonpayable",
      "type": "function"
    },
    {
      "inputs": [
        {
          "internalType": "uint256",
          "name": "txId",
          "type": "uint256"
        }
      ],
      "name": "approvalCount",
      "outputs": [
        {
          "internalType": "uint256",
          "name": "",
          "type": "uint256"
        }
      ],
      "stateMutability": "view",
      "type": "function"
    },
    {
      "inputs": [
        {
          "internalType": "uint256",
          "name": "txId",
          "type": "uint256"
        }
      ],
      "name": "approveTransaction",
      "outputs": [],
      "stateMutability": "nonpayable",
      "type": "function"
    },
    {
      "inputs": [
        {
          "internalType": "uint256",
          "name": "",
          "type": "uint256"
        },
        {
          "internalType": "address",
          "name": "",
          "type": "address"
        }
      ],
      "name": "approved",
      "outputs": [
        {
          "internalType": "bool",
          "name": "",
          "type": "bool"
        }
      ],
      "stateMutability": "view",
      "type": "function"
    },
    {
      "inputs": [
        {
          "internalType": "uint256",
          "name": "txId",
          "type": "uint256"
        }
      ],
      "name": "executeTransaction",
      "outputs": [],
      "stateMutability": "nonpayable",
      "type": "function"
    },
    {
      "inputs": [],
      "name": "getBalance",
      "outputs": [
        {
          "internalType": "uint256",
          "name": "",
          "type": "uint256"
        }
      ],
      "stateMutability": "view",
      "type": "function"
    },
    {
      "inputs": [],
      "name": "getOwners",
      "outputs": [
        {
          "internalType": "address[]",
          "name": "",
          "type": "address[]"
        }
      ],
      "stateMutability": "view",
      "type": "function"
    },
    {
      "inputs": [
        {
          "internalType": "uint256",
          "name": "txId",
          "type": "uint256"
        }
      ],
      "name": "getTransaction",
      "outputs": [
        {
          "internalType": "address",
          "name": "to",
          "type": "address"
        },
        {
          "internalType": "uint256",
          "name": "value",
          "type": "uint256"
        },
        {
          "internalType": "bool",
          "name": "executed",
          "type": "bool"
        },
        {
          "internalType": "uint256",
          "name": "numConfirmations",
          "type": "uint256"
        },
        {
          "internalType": "bytes",
          "name": "data",
          "type": "bytes"
        }
      ],
      "stateMutability": "view",
      "type": "function"
    },
    {
      "inputs": [],
      "name": "getTransactionCount",
      "outputs": [
        {
          "internalType": "uint256",
          "name": "",
          "type": "uint256"
        }
      ],
      "stateMutability": "view",
      "type": "function"
    },
    {
      "inputs": [
        {
          "internalType": "uint256",
          "name": "txId",
          "type": "uint256"
        },
        {
          "internalType": "address",
          "name": "owner",
          "type": "address"
        }
      ],
      "name": "isApproved",
      "outputs": [
        {
          "internalType": "bool",
          "name": "",
          "type": "bool"
        }
      ],
      "stateMutability": "view",
      "type": "function"
    },
    {
      "inputs": [
        {
          "internalType": "address",
          "name": "",
          "type": "address"
        }
      ],
      "name": "isOwner",
      "outputs": [
        {
          "internalType": "bool",
          "name": "",
          "type": "bool"
        }
      ],
      "stateMutability": "view",
      "type": "function"
    },
    {
      "inputs": [
        {
          "internalType": "address",
          "name": "to",
          "type": "address"
        },
        {
          "internalType": "uint256",
          "name": "value",
          "type": "uint256"
        },
        {
          "internalType": "bytes",
          "name": "data",
          "type": "bytes"
        }
      ],
      "name": "newTransaction",
      "outputs": [
        {
          "internalType": "uint256",
          "name": "txId",
          "type": "uint256"
        }
      ],
      "stateMutability": "nonpayable",
      "type": "function"
    },
    {
      "inputs": [
        {
          "internalType": "uint256",
          "name": "",
          "type": "uint256"
        }
      ],
      "name": "owners",
      "outputs": [
        {
          "internalType": "address",
          "name": "",
          "type": "address"
        }
      ],
      "stateMutability": "view",
      "type": "function"
    },
    {
      "inputs": [
        {
          "internalType": "address",
          "name": "owner",
          "type": "address"
        }
      ],
      "name": "removeOwner",
      "outputs": [],
      "stateMutability": "nonpayable",
      "type": "function"
    },
    {
      "inputs": [],
      "name": "requiredApprovals",
      "outputs": [
        {
          "internalType": "uint256",
          "name": "",
          "type": "uint256"
        }
      ],
      "stateMutability": "view",
      "type": "function"
    },
    {
      "inputs": [],
      "name": "requiredConfirmations",
      "outputs": [
        {
          "internalType": "uint256",
          "name": "",
          "type": "uint256"
        }
      ],
      "stateMutability": "view",
      "type": "function"
    },
    {
      "inputs": [
        {
          "internalType": "uint256",
          "name": "txId",
          "type": "uint256"
        }
      ],
      "name": "revokeApproval",
      "outputs": [],
      "stateMutability": "nonpayable",
      "type": "function"
    },
    {
      "inputs": [
        {
          "internalType": "uint256",
          "name": "",
          "type": "uint256"
        }
      ],
      "name": "transactions",
      "outputs": [
        {
          "internalType": "address",
          "name": "to",
          "type": "address"
        },
        {
          "internalType": "uint256",
          "name": "value",
          "type": "uint256"
        },
        {
          "internalType": "bool",
          "name": "executed",
          "type": "bool"
        },
        {
          "internalType": "uint256",
          "name": "numConfirmations",
          "type": "uint256"
        },
        {
          "internalType": "bytes",
          "name": "data",
          "type": "bytes"
        }
      ],
      "stateMutability": "view",
      "type": "function"
    },
    {
      "inputs": [
        {
          "internalType": "uint256",
          "name": "newRequirement",
          "type": "uint256"
        }
      ],
      "name": "updateRequirement",
      "outputs": [],
      "stateMutability": "nonpayable",
      "type": "function"
    },
    {
      "stateMutability": "payable",
      "type": "receive"
    }
  ],
  "bytecode": "0x60806040523480156200001157600080fd5b5060405162001bcc38038062001bcc833981016040819052620000349162000280565b60008251116200007d5760405162461bcd60e51b815260206004820152600f60248201526e13dddb995c9cc81c995c5d5a5c9959608a1b60448201526064015b60405180910390fd5b6000811180156200008f575081518111155b620000dd5760405162461bcd60e51b815260206004820152601c60248201527f496e76616c696420617070726f76616c20726571756972656d656e7400000000604482015260640162000074565b60005b8251811015620002425760008382815181106200010157620001016200035a565b6020026020010151905060006001600160a01b0316816001600160a01b0316036200016f5760405162461bcd60e51b815260206004820152601560248201527f496e76616c6964206f776e657220616464726573730000000000000000000000604482015260640162000074565b6001600160a01b03811660009081526001602052604090205460ff1615620001cd5760405162461bcd60e51b815260206004820152601060248201526f4f776e6572206e6f7420756e6971756560801b604482015260640162000074565b6001600160a01b031660008181526001602081905260408220805460ff191682179055815490810182559080527f290decd9548b62a8d60345a988386fc84ba6bc95484008f6362f93160ef3e5630180546001600160a01b031916909117905580620002398162000370565b915050620000e0565b506002555062000398565b634e487b7160e01b600052604160045260246000fd5b80516001600160a01b03811681146200027b57600080fd5b919050565b600080604083850312156200029457600080fd5b82516001600160401b0380821115620002ac57600080fd5b818501915085601f830112620002c157600080fd5b8151602082821115620002d857620002d86200024d565b8160051b604051601f19603f830116810181811086821117156200030057620003006200024d565b6040529283528183019350848101820192898411156200031f57600080fd5b948201945b838610156200034857620003388662000263565b8552948201949382019362000324565b97909101519698969750505050505050565b634e487b7160e01b600052603260045260246000fd5b6000600182016200039157634e487b7160e01b600052601160045260246000fd5b5060010190565b61182480620003a86000396000f3fe6080604052600436106101185760003560e01c806356c31637116100a05780639ace38c2116100645780639ace38c214610393578063a0e67e2b146103b3578063b1e130fc146103d5578063c47afb3a146103f5578063ee22610b1461041557610155565b806356c31637146102ed5780637065cb481461030d5780638253951a1461032d57806382e717f71461036857806399c1aadc1461037e57610155565b8063242232d1116100e7578063242232d1146102275780632e7700f0146102475780632f54bf6e1461025c57806333ea3dc81461029c57806340ad01ea146102cd57610155565b8063025e7c2714610187578063117c7a56146101c457806312065fe0146101f2578063173825d91461020557610155565b366101555760405134815233907fe1fffcc4923d04b559f4d29a8bfc6cda04eb5b0d3c460751c2402c5c5cc9109c906020015b60405180910390a2005b60405134815233907fe1fffcc4923d04b559f4d29a8bfc6cda04eb5b0d3c460751c2402c5c5cc9109c9060200161014b565b34801561019357600080fd5b506101a76101a2366004611384565b610435565b6040516001600160a01b0390911681526020015b60405180910390f35b3480156101d057600080fd5b506101e46101df3660046113b9565b61045f565b6040519081526020016101bb565b3480156101fe57600080fd5b50476101e4565b34801561021157600080fd5b50610225610220366004611440565b61066b565b005b34801561023357600080fd5b50610225610242366004611384565b610918565b34801561025357600080fd5b506003546101e4565b34801561026857600080fd5b5061028c610277366004611440565b60016020526000908152604090205460ff1681565b60405190151581526020016101bb565b3480156102a857600080fd5b506102bc6102b7366004611384565b610a85565b6040516101bb959493929190611462565b3480156102d957600080fd5b506101e46102e8366004611384565b610b8a565b3480156102f957600080fd5b5061028c6103083660046114d7565b610bb8565b34801561031957600080fd5b50610225610328366004611440565b610be5565b34801561033957600080fd5b5061028c6103483660046114d7565b600460209081526000928352604080842090915290825290205460ff1681565b34801561037457600080fd5b506101e460025481565b34801561038a57600080fd5b506002546101e4565b34801561039f57600080fd5b506102bc6103ae366004611384565b610d6d565b3480156103bf57600080fd5b506103c8610e48565b6040516101bb9190611503565b3480156103e157600080fd5b506102256103f0366004611384565b610eaa565b34801561040157600080fd5b50610225610410366004611384565b611040565b34801561042157600080fd5b50610225610430366004611384565b611177565b6000818154811061044557600080fd5b6000918252602090912001546001600160a01b0316905081565b3360009081526001602052604081205460ff1661048f576040516330cd747160e01b815260040160405180910390fd5b6001600160a01b0385166104e35760405162461bcd60e51b8152602060048201526016602482015275496e76616c696420746172676574206164647265737360501b60448201526064015b60405180910390fd5b61100082111561052a5760405162461bcd60e51b815260206004820152601260248201527143616c6c6461746120746f6f206c6172676560701b60448201526064016104da565b600380549050905060036040518060a00160405280876001600160a01b031681526020018681526020016000151581526020016000815260200185858080601f0160208091040260200160405190810160405280939291908181526020018383808284376000920182905250939094525050835460018082018655948252602091829020845160059092020180546001600160a01b0319166001600160a01b03909216919091178155908301519381019390935550604081015160028301805460ff1916911515919091179055606081015160038301556080810151909190600482019061061890826115ef565b505050336001600160a01b0316817f2ecf8c4571be1f8a0b1e6feaa711128f3f8038e97869aa59d0f595e21f50eaa08787878760405161065b94939291906116af565b60405180910390a3949350505050565b3330146106ba5760405162461bcd60e51b815260206004820152601c60248201527f4f6e6c792077616c6c65742063616e2072656d6f7665206f776e65720000000060448201526064016104da565b6001600160a01b03811660009081526001602052604090205460ff166107115760405162461bcd60e51b815260206004820152600c60248201526b2737ba1030b71037bbb732b960a11b60448201526064016104da565b6000546001106107635760405162461bcd60e51b815260206004820152601860248201527f43616e6e6f742072656d6f7665206c617374206f776e6572000000000000000060448201526064016104da565b6002546000546107759060019061170d565b10156107c35760405162461bcd60e51b815260206004820152601760248201527f576f756c6420627265616b20726571756972656d656e7400000000000000000060448201526064016104da565b6001600160a01b0381166000908152600160205260408120805460ff191690555b6000548110156108e057816001600160a01b03166000828154811061080b5761080b611720565b6000918252602090912001546001600160a01b0316036108ce57600080546108359060019061170d565b8154811061084557610845611720565b600091825260208220015481546001600160a01b0390911691908390811061086f5761086f611720565b6000918252602082200180546001600160a01b0319166001600160a01b0393909316929092179091558054806108a7576108a7611736565b600082815260209020810160001990810180546001600160a01b03191690550190556108e0565b806108d88161174c565b9150506107e4565b506040516001600160a01b038216907f58619076adf5bb0943d100ef88d52d7c3fd691b19d3a9071b555b651fbf418da90600090a250565b3360009081526001602052604090205460ff16610948576040516330cd747160e01b815260040160405180910390fd5b6003548190811061096c57604051639e1b596f60e01b815260040160405180910390fd5b816003818154811061098057610980611720565b600091825260209091206002600590920201015460ff16156109b557604051632ea945cf60e01b815260040160405180910390fd5b6000838152600460209081526040808320338452909152902054839060ff16156109f257604051635db7ec0d60e01b815260040160405180910390fd5b60008481526004602090815260408083203384529091529020805460ff191660019081179091556003805486908110610a2d57610a2d611720565b90600052602060002090600502016003016000828254610a4d9190611765565b9091555050604051339085907f924813d717e221b5f46dcd8a56da1679e4612584ab3237d55e5faabf6f6a307990600090a350505050565b6000806000806060600060038781548110610aa257610aa2611720565b906000526020600020906005020190508060000160009054906101000a90046001600160a01b031681600101548260020160009054906101000a900460ff16836003015484600401808054610af690611566565b80601f0160208091040260200160405190810160405280929190818152602001828054610b2290611566565b8015610b6f5780601f10610b4457610100808354040283529160200191610b6f565b820191906000526020600020905b815481529060010190602001808311610b5257829003601f168201915b50505050509050955095509550955095505091939590929450565b600060038281548110610b9f57610b9f611720565b9060005260206000209060050201600301549050919050565b60008281526004602090815260408083206001600160a01b038516845290915290205460ff165b92915050565b333014610c345760405162461bcd60e51b815260206004820152601960248201527f4f6e6c792077616c6c65742063616e20616464206f776e65720000000000000060448201526064016104da565b6001600160a01b038116610c825760405162461bcd60e51b8152602060048201526015602482015274496e76616c6964206f776e6572206164647265737360581b60448201526064016104da565b6001600160a01b03811660009081526001602052604090205460ff1615610ce25760405162461bcd60e51b81526020600482015260146024820152734f776e657220616c72656164792065786973747360601b60448201526064016104da565b6001600160a01b0381166000818152600160208190526040808320805460ff191683179055825491820183558280527f290decd9548b62a8d60345a988386fc84ba6bc95484008f6362f93160ef3e56390910180546001600160a01b03191684179055517f994a936646fe87ffe4f1e469d3d6aa417d6b855598397f323de5b449f765f0c39190a250565b60038181548110610d7d57600080fd5b6000918252602090912060059091020180546001820154600283015460038401546004850180546001600160a01b039095169650929460ff90921693909290610dc590611566565b80601f0160208091040260200160405190810160405280929190818152602001828054610df190611566565b8015610e3e5780601f10610e1357610100808354040283529160200191610e3e565b820191906000526020600020905b815481529060010190602001808311610e2157829003601f168201915b5050505050905085565b60606000805480602002602001604051908101604052809291908181526020018280548015610ea057602002820191906000526020600020905b81546001600160a01b03168152600190910190602001808311610e82575b5050505050905090565b3360009081526001602052604090205460ff16610eda576040516330cd747160e01b815260040160405180910390fd5b60035481908110610efe57604051639e1b596f60e01b815260040160405180910390fd5b8160038181548110610f1257610f12611720565b600091825260209091206002600590920201015460ff1615610f4757604051632ea945cf60e01b815260040160405180910390fd5b600083815260046020908152604080832033845290915290205460ff16610fb05760405162461bcd60e51b815260206004820152601860248201527f5472616e73616374696f6e206e6f7420617070726f766564000000000000000060448201526064016104da565b60008381526004602090815260408083203384529091529020805460ff19169055600380546001919085908110610fe957610fe9611720565b90600052602060002090600502016003016000828254611009919061170d565b9091555050604051339084907f430c786ad6c97d1739e88415e23257a88a0a989b6bdc4e9e415b72bb53d869a890600090a3505050565b33301461109a5760405162461bcd60e51b815260206004820152602260248201527f4f6e6c792077616c6c65742063616e2075706461746520726571756972656d656044820152611b9d60f21b60648201526084016104da565b600081116110ea5760405162461bcd60e51b815260206004820152601c60248201527f526571756972656d656e74206d75737420626520706f7369746976650000000060448201526064016104da565b60005481111561113c5760405162461bcd60e51b815260206004820152601f60248201527f526571756972656d656e742065786365656473206f776e657220636f756e740060448201526064016104da565b60028190556040518181527facbdb084c721332ac59f9b8e392196c9eb0e4932862da8eb9beaf0dad4f550da9060200160405180910390a150565b3360009081526001602052604090205460ff166111a7576040516330cd747160e01b815260040160405180910390fd5b600354819081106111cb57604051639e1b596f60e01b815260040160405180910390fd5b81600381815481106111df576111df611720565b600091825260209091206002600590920201015460ff161561121457604051632ea945cf60e01b815260040160405180910390fd5b60006003848154811061122957611229611720565b90600052602060002090600502019050600254816003015410156112865760405162461bcd60e51b81526020600482015260146024820152734e6f7420656e6f75676820617070726f76616c7360601b60448201526064016104da565b60028101805460ff191660019081179091558154908201546040516000926001600160a01b031691906112bd906004860190611778565b60006040518083038185875af1925050503d80600081146112fa576040519150601f19603f3d011682016040523d82523d6000602084013e6112ff565b606091505b50509050806113505760405162461bcd60e51b815260206004820152601c60248201527f5472616e73616374696f6e20657865637574696f6e206661696c65640000000060448201526064016104da565b604051339086907fefc13bdcf58f184ea7cae26b499fb33b539e01d0197cea456f3ada289b8cf19b90600090a35050505050565b60006020828403121561139657600080fd5b5035919050565b80356001600160a01b03811681146113b457600080fd5b919050565b600080600080606085870312156113cf57600080fd5b6113d88561139d565b935060208501359250604085013567ffffffffffffffff808211156113fc57600080fd5b818701915087601f83011261141057600080fd5b81358181111561141f57600080fd5b88602082850101111561143157600080fd5b95989497505060200194505050565b60006020828403121561145257600080fd5b61145b8261139d565b9392505050565b60018060a01b0386168152600060208681840152851515604084015284606084015260a0608084015283518060a085015260005b818110156114b25785810183015185820160c001528201611496565b50600060c0828601015260c0601f19601f830116850101925050509695505050505050565b600080604083850312156114ea57600080fd5b823591506114fa6020840161139d565b90509250929050565b6020808252825182820181905260009190848201906040850190845b818110156115445783516001600160a01b03168352928401929184019160010161151f565b50909695505050505050565b634e487b7160e01b600052604160045260246000fd5b600181811c9082168061157a57607f821691505b60208210810361159a57634e487b7160e01b600052602260045260246000fd5b50919050565b601f8211156115ea57600081815260208120601f850160051c810160208610156115c75750805b601f850160051c820191505b818110156115e6578281556001016115d3565b5050505b505050565b815167ffffffffffffffff81111561160957611609611550565b61161d816116178454611566565b846115a0565b602080601f831160018114611652576000841561163a5750858301515b600019600386901b1c1916600185901b1785556115e6565b600085815260208120601f198616915b8281101561168157888601518255948401946001909101908401611662565b508582101561169f5787850151600019600388901b60f8161c191681555b5050505050600190811b01905550565b6001600160a01b0385168152602081018490526060604082018190528101829052818360808301376000818301608090810191909152601f909201601f191601019392505050565b634e487b7160e01b600052601160045260246000fd5b81810381811115610bdf57610bdf6116f7565b634e487b7160e01b600052603260045260246000fd5b634e487b7160e01b600052603160045260246000fd5b60006001820161175e5761175e6116f7565b5060010190565b80820180821115610bdf57610bdf6116f7565b600080835461178681611566565b6001828116801561179e57600181146117b3576117e2565b60ff19841687528215158302870194506117e2565b8760005260208060002060005b858110156117d95781548a8201529084019082016117c0565b50505082870194505b5092969550505050505056fea2646970667358221220bb408a15bfb5d90cdac1a793da36f9f38da1e0e3eb68e61c769dd449179d960e64736f6c63430008130033",
  "linkReferences": {},
  "deployedLinkReferences": {}
}